:03000000020008F3
:0300610002000397
:0500030012008180FEE7
:02006400AA826E
:0500660010990280FB6F
:03006B008A99224D
:05006E0010980280FB68
:0400730085998222C7
:0A00770075FFDE75FFAD75820022F3
:0C0081007A007B207C007D007508007573
:0B008D000920C002C003C004C005121F
:06009800023A12025D12A3
:0A009E00028F75840074B9C0E0748D
:0C00A80008C0E07480C0E01202D715818F
:0A00B4001581158174BEC0E07408C8
:0E00BE00C0E07480C0E01202D71581158115D4
:0E00CC0081D005D004D003D0029020007461D2
:0100DA00F035
:0600DB00E4F50AF50B8AB2
:0400E100108B1185EA
:0300E5000A0E857B
:0200E8000B0FFC
:0C00EA00C3E50F6480948840030201A469
:0600F600E50E2508FEE501
:0A00FC000F3509FF8E828F837455C3
:08010600F00510E4B51002053C
:01010E0011DF
:0C010F008E828F83E0FEBE550302019932
:0A011B00EC2400F582ED3400F583BA
:09012500E50EFEF00CBC00010D1A
:0B012E00BCFF68BD006574CEC0E0742B
:0C01390008C0E07480C0E01202D71581FD
:0B014500158115817E007F008E0C8F5D
:010150000DA1
:0A015100C3E50C94FFE50D648094F3
:0A015B00805037E50C2400F582E522
:0A0165000D3400F583E0F879007412
:0C016F002029F9C000C00174E0C0E07459
:0C017B0008C0E07480C0E01202D7E581EB
:0A01870024FBF581050CE4B50CC063
:04019100050D80BC1C
:040195007C007D006D
:07019900050EE4B50E02059E
:0101A0000F4F
:0301A1000200EA6F
:0E01A4007A007B20C3E49C74808DF063F080B1
:0801B20095F0505C7E007F0017
:0E01BA00C3EE9CEF64808DF063F08095F04002
:0401C800030200DB53
:0A01CC00EE2400F582EF3400F58305
:0E01D600E0F87900C002C003C004C005C006F6
:0B01E400C007C000C00174E5C0E0745B
:0C01EF0008C0E07480C0E01202D7E58177
:0E01FB0024FBF581D007D006D005D004D00338
:09020900D0020EBE00AB0F80A86C
:0C021200C002C003C004C00574EAC0E0D4
:0C021E007408C0E07480C0E01202D71524
:0E022A008115811581D005D004D003D00202C9
:0202380000DBE9
:0C023A00AA8475840F758C677BB87C0B60
:050246001BBBFF011CC1
:04024B00EB4C70F711
:0E024F00E58C30E7FB759701758A008A8422E2
:0E025D00AA8475840F75E10475E20075E34014
:0E026B0043A401759CFF759DFF759EFF759F56
:0E027900FF75D8FF75E8FF75F8FF75840075F6
:08028700A33B75A1FF8A84224C
:0E028F00AA8475840075884053890F43892026
:0E029D00438E10758DE8D28E758400759850D2
:0802AB00759100D2998A8422AA
:0508B9001B5B324A0048
:0E08BE006372797374616C20666169720A0A54
:0208CC000D001D
:0E08CE0064756D70696E67206275666665728E
:0408DC003A0A0D00C7
:0508E00025780A0D005F
:0508E50025640A0D006E
:0E08EA006E6F206572726F727320666F756E8E
:0408F800640A0D0081
:06003700E478FFF6D8FD9D
:080015007900E94400601B7A48
:05001D000090090778C6
:030022000075A2C4
:0A00250001E493F2A308B8000205FD
:08002F00A2D9F4DAF275A2FF78
:08003D007800E84400600A7934
:030045000075A2A1
:0600480000E4F309D8FCFE
:08004E007800E84401600C7920
:0B00560001900000E4F0A3D8FCD9FAF0
:0602B300C0138581131247
:0502B9000064D01322D7
:0802BE0085823185833285F051
:0502C60033E4F52EF504
:0402CB002FF5308556
:0302CF0012349056
:0502D20002B3020397D6
:0602D700C013858113E550
:0702DD001324FBF534E4F5E6
:0402E4002EF52FF5CF
:0702E80030E51324FBF8864A
:0602EF003108863208868A
:0502F500339002B3127A
:0502FA000397D0132260
:0702FF00AA82C024C025C043
:06030600267416C0E0742D
:06030C0003C0E0C022C0A6
:04031200238A822296
:0A031600158115811581052CE4B551
:040320002C02052D79
:0103240022B6
:0E032500AA8274302AFA24C6500A74072AFAF3
:060333003000034302202C
:050339008A820202FFB0
:0E033E00E582FAC4540FF582C002120325D0E6
:09034C0002740F5AF58202032528
:06035500858214AB27AC09
:04035B0028AD29AEF2
:04035F002AAF2B7521
:02036300152063
:0E036500EF2FFFEE235401FA4207EB2BFBECC7
:0C03730033FCED33FDEE33FEC3EF9514B8
:0A037F004008EFC39514FF4303018B
:06038900D515D98B278C6D
:04038F00288D298EFE
:040393002A8F2B2260
:070397008582228583238586
:03039E002E248585
:0303A1002F258580
:0403A4003026E4F526
:0303A8002CF52D04
:0503AB00AA31AB32ACE9
:0C03B000338A828B838CF012089DFD7450
:0903BC00012AF531E43BF5328C15
:0803C50033EDFA700302087E1B
:0503CD00BA25028003C7
:0303D200020876A8
:0503D500C201C202C2DA
:0403DA0003C204C294
:0403DE0005C206C28C
:0403E20007C20875D1
:0803E60035007536007DFFAE05
:0403EE0031AF32AB4E
:0103F20033D7
:0E03F3008E828F838BF012089DFAA3AE82AF2C
:06040100838E318F328B67
:0B04070033BA25078A821202FF809999
:050412008A04BC30006B
:0D041700402A8A04EC24C64023BDFF13E5F3
:0B0424003675F00AA4FCEA24D02CF589
:07042F003670C1D20280BD4E
:0D043600ED75F00AA4FCEA24D02CFD80B086
:0A044300BA2E07BDFFAA7D0080A6B7
:05044D008A04BC6100FF
:0D045200400E8A04EC248540075302DFD2DF
:03045F0000800218
:02046200C200D6
:05046400BA20028055E2
:05046900BA2B02804BDC
:05046E00BA2D028041DF
:05047300BA4202804BBB
:05047800BA43028050B0
:06047D00BA440302062848
:06048300BA460302063E2A
:06048900BA490302062837
:05048F00BA4C028034AC
:06049400BA4F0302062F1F
:06049A00BA50030205BF89
:0504A000BA5302804C7C
:0604A500BA550302063403
:0604AB00BA5803020639F5
:0304B100020642FE
:0504B400D2010203F378
:0504B900D2030203F371
:0504BE00D2040203F36B
:0504C300D2060203F364
:0504C800D2070203F35E
:0804CD0030060AE53414F8883A
:0504D500348602800FD7
:0A04DA00E53424FEF8883486030898
:0504E4008604188B02E4
:0804E9008A821202FF02064B99
:0A04F100E53424FDF8883486030882
:0A04FB00860408860618188B278C6B
:04050500288E29858E
:060509002782852883858E
:0C050F0029F0C005120885AB82AC83D037
:06051B0005BDFF028B0587
:0A05210020012CC3EB95365026E5AF
:06052B0036C39BF536AC5F
:010531003693
:0C0532008C061C8C36EE6014758220C014
:0E053E0003C004C0051202FFD005D004D00394
:02054C0080E449
:02054E008C36E9
:020550008D0418
:0705520085278285288385BF
:0C05590029F012089DFDFA602F8C051C93
:0E056500C374808DF063F08095F050208A8280
:0C057300C003C0041202FFD004D003AD8E
:04057F0027AE28AFCC
:06058300290DBD00010E70
:050589008D278E288F74
:03058E002980C100
:0605910020010302064BED
:09059700C3EB9536400302064B4C
:0705A000E536C39BF536AC04
:0105A700361D
:0B05A8008C051C8C36ED700302064928
:0C05B300758220C0041202FFD00480E911
:0A05BF00E53424FDF88834860508B1
:0A05C900860608860718188D278E95
:0405D300288F29AD97
:0405D70029BD8000BA
:0605DB0040047A43801485
:0305E100BD6000FA
:0605E40040047A50800B78
:0305EA00BD400011
:0605ED0040047A4980027F
:0205F3007A5834
:0E05F5008A82C0021202FF75823A1202FF755E
:0E06030082301202FF7582781202FFD002BA16
:040611004902800B0F
:05061500BA500280064E
:06061A0085288212033E58
:0806200085278212033E8023AE
:07062800D20575350A801CA4
:05062F0075350880177D
:0506340075350A80127B
:05063900753510800D75
:04063E00D208800955
:070642008A821202FF800210
:020649008C36ED
:09064B0030085AE53424FCF8885B
:0C06540034860408860508860608860720
:080660001818188C278D288E54
:04066800298F2A7537
:03066C0027FC75F3
:03066F00280875E3
:020672002980DD
:040674008527388519
:0306780028398599
:05067B00293A7401257D
:0706800038FFE43539FCAD41
:040687003A8F278CF3
:04068B00288D298508
:06068F00388285398385E5
:0A0695003AF012089DFCFA7003020F
:02069F0003ABAB
:0706A1008A821202FF80CCE7
:0706A800E53570030203AB0E
:0406AF0075371B3050
:0706B300062BE53414F88862
:0A06BA0034E6FD3395E0FEFFFC8DF1
:0406C400278E288FC6
:0406C800298C2A202F
:0A06CC00055EAC277D007E007F0074
:0506D6008C278D288E29
:0506DB00298F2A804C6C
:0906E00030071FE53424FCF88802
:0C06E9003486040886050886060886078B
:0806F5001818188C278D288EBF
:0506FD00298F2A802A6C
:0A070200E53424FEF888348604086C
:0C070C00860518ED3395E0FEFF8C278D6C
:04071800288E298F6F
:05071C002A20050CACD1
:0807210027AD287E007F008E49
:03072900298F2AEB
:0A072C00300522E52A30E71BC3E484
:090736009527FCE49528FDE495EB
:07073F0029FEE4952AFF8C5E
:04074600278D288E45
:05074A00298F2A800246
:02074F00C205E1
:06075100D209A8377C006C
:0A075700752B00853582C004C00038
:0B076100120355D000D00420090DE564
:0A076C002BC4FDE6FE4DF618883799
:020776008002FF
:02077800A62BAE
:08077A000C8C03B209E52745D0
:040782002845294598
:080786002A70CE88378C03E5D0
:06078E0036700375360110
:0A079400200224200121EB04FCAD3B
:01079E003624
:0E079F00C3EC9D5015758220C003C004C00538
:0C07AD001202FFD005D004D0031D80E62E
:0207B9008D367B
:0C07BB0030050E75822DC0031202FFD025
:0507C70003153680233C
:0C07CC00EB602030030E75822BC003127E
:0807D80002FFD0031536800F6B
:0C07E00030040C758220C0031202FFD010
:0307EC00031536BC
:0507EF00200124AC36DE
:0B07F4008C051C8C36C3EB9D502B3095
:0607FF0002047D308002BF
:020805007D2054
:0E0807008D82C003C0041202FFD004D0038013
:01081500DE04
:0A081600C3EB95365008E536C39B8E
:04082000F536800722
:050824007536008002A2
:020829008C360B
:02082B00A837EC
:0A082D008B041BEC6026B2092009C1
:0B0837000A08E6C4540FFC8C2B80075D
:070842008604740F5CF52B26
:0C084900852B82C003C000120325D000E4
:04085500D00380D478
:060859002001030203ABC5
:02085F00AB36B6
:090861008B041BEC70030203ABD5
:0C086A00758220C0031202FFD00380EB57
:080876008A821202FF0203ABAB
:07087E00852C82852D8322E9
:0B08FC003C4E4F20464C4F41543E0044
:04088500AA82AB8315
:0808890012089D6003A380F832
:0C089100C3E5829AF582E5839BF5832283
:0300080075813AC5
:0A000B00120077E582600302000393
:0E089D0020F71430F6148883A88220F507E6B1
:0608AB00A8837583002202
:0308B100E280F7EB
:0308B400E49322A8
:0208B700E0223D
:00000001FF
