:03000000020008F3
:0300610002000397
:0500030012008180FEE7
:02006400AA826E
:0500660010990280FB6F
:03006B008A99224D
:05006E0010980280FB68
:0400730085998222C7
:0A00770075FFDE75FFAD75820022F3
:0700810012012812014B12CD
:0A008800017D75840074A7C0E074C8
:0C00920007C0E07480C0E01201C51581B9
:0A009E001581158174ACC0E07407F1
:0E00A800C0E07480C0E01201C51581158115FD
:0A00B6008174B9C0E07407C0E07463
:0D00C00080C0E01201C515811581158190E9
:0500CD0020027461F047
:0C00D200902002E0FA7B00C002C0037422
:0A00DE00C8C0E07407C0E07480C0E1
:0E00E800E01201C5E58124FBF58112006EE5F2
:0D00F60082902002F0902002E0FA7B009042
:0E0103002002E0FC7D00C002C003C004C00565
:0A01110074FDC0E07407C0E07480C4
:0D011B00C0E01201C5E58124F9F58180AA3C
:0C012800AA8475840F758C677BB87C0B73
:050134001BBBFF011CD4
:04013900EB4C70F724
:0E013D00E58C30E7FB759731758A008A8422C5
:0E014B00AA8475840F75E10475E20075E34027
:0E01590043A401759CFF759DFF759EFF759F69
:0E016700FF75D8FF75E8FF75F8FF7584007509
:08017500A33B75A1FF8A84225F
:0E017D00AA8475840075884053890F43892039
:0E018B00438E10758DE8D28E758400759850E5
:08019900759100D2998A8422BD
:0507A7001B5B324A005B
:0D07AC00686572706164657270610A0D000D
:0E07B9004D656D6F727920746573740A0A0DB8
:0107C7000031
:0E07C800456E74657220612063686172616322
:0E07D60074657220746F2077726974652074E8
:0E07E4006F206D656D6F7279206164647265BF
:0B07F2007373203078323030323A0050
:0E07FD000D0A43686172616374657220737443
:0E080B006F72656420696E206D656D6F727985
:0B0819003A2025782C2025630D0A00F2
:06003700E478FFF6D8FD9D
:080015007900E94400601B7A48
:05001D000090082F789F
:030022000075A2C4
:0A00250000E493F2A308B8000205FE
:08002F00A2D9F4DAF275A2FF78
:08003D007800E84400600A7934
:030045000075A2A1
:0600480000E4F309D8FCFE
:08004E007800E84400600C7921
:0B00560000900000E4F0A3D8FCD9FAF1
:0601A100C009858109126E
:0501A7000064D00922F4
:0801AC0085823185833285F064
:0501B40033E4F52EF517
:0401B9002FF5308569
:0301BD0008349073
:0501C00001A10202850F
:0601C500C009858109E577
:0701CB000924FBF534E4F503
:0401D2002EF52FF5E2
:0701D60030E50924FBF88667
:0601DD003108863208869D
:0501E300339001A112A0
:0501E8000285D0092290
:0701ED00AA82C024C025C056
:0601F400267404C0E07453
:0601FA0002C0E0C022C0BB
:04020000238A8222A9
:0A020400158115811581052CE4B564
:04020E002C02052D8C
:0102120022C9
:0E021300AA8274302AFA24C6500A74072AFA06
:060221003000034302203F
:050227008A820201EDD6
:0E022C00E582FAC4540FF582C002120213D00C
:09023A0002740F5AF5820202134E
:0602430085820AAB27AC26
:0402490028AD29AE05
:04024D002AAF2B7534
:020251000B2080
:0E025300EF2FFFEE235401FA4207EB2BFBECDA
:0C02610033FCED33FDEE33FEC3EF950AD5
:0A026D004008EFC3950AFF430301A8
:06027700D50BD98B278C8A
:04027D00288D298E11
:040281002A8F2B2273
:070285008582228583238599
:03028C002E248598
:03028F002F258593
:040292003026E4F539
:030296002CF52D17
:05029900AA31AB32ACFC
:0C029E00338A828B838CF012078BFD7476
:0902AA00012AF531E43BF5328C28
:0802B30033EDFA700302076C41
:0502BB00BA25028003DA
:0302C000020764CE
:0502C300C201C202C2ED
:0402C80003C204C2A7
:0402CC0005C206C29F
:0402D00007C20875E4
:0802D40035007536007DFFAE18
:0402DC0031AF32AB61
:0102E00033EA
:0E02E1008E828F838BF012078BFAA3AE82AF52
:0602EF00838E318F328B7B
:0B02F50033BA25078A821201ED8099C0
:050300008A04BC30007E
:0D030500402A8A04EC24C64023BDFF13E506
:0B0312003675F00AA4FCEA24D02CF59C
:07031D003670C1D20280BD61
:0D032400ED75F00AA4FCEA24D02CFD80B099
:0A033100BA2E07BDFFAA7D0080A6CA
:05033B008A04BC610012
:0D034000400E8A04EC248540075302DFD2F2
:03034D000080022B
:02035000C200E9
:05035200BA20028055F5
:05035700BA2B02804BEF
:05035C00BA2D028041F2
:05036100BA4202804BCE
:05036600BA43028050C3
:06036B00BA44030205166E
:06037100BA460302052C50
:06037700BA49030205165D
:05037D00BA4C028034BF
:06038200BA4F0302051D45
:06038800BA50030204ADAF
:05038E00BA5302804C8F
:06039300BA550302052229
:06039900BA58030205271B
:03039F0002053024
:0503A200D2010202E19E
:0503A700D2030202E197
:0503AC00D2040202E191
:0503B100D2060202E18A
:0503B600D2070202E184
:0803BB0030060AE53414F8884D
:0503C300348602800FEA
:0A03C800E53424FEF88834860308AB
:0503D2008604188B02F7
:0803D7008A821201ED020539D2
:0A03DF00E53424FDF8883486030895
:0A03E900860408860618188B278C7E
:0403F300288E2985A2
:0603F700278285288385A2
:0C03FD0029F0C005120773AB82AC83D05E
:0604090005BDFF028B059A
:0A040F0020012CC3EB95365026E5C2
:0604190036C39BF536AC72
:01041F0036A6
:0C0420008C061C8C36EE6014758220C027
:0E042C0003C004C0051201EDD005D004D003BA
:02043A0080E45C
:02043C008C36FC
:02043E008D042B
:0704400085278285288385D2
:0C04470029F012078BFDFA602F8C051CB9
:0E045300C374808DF063F08095F050208A8293
:0C046100C003C0041201EDD004D003ADB4
:04046D0027AE28AFDF
:06047100290DBD00010E83
:050477008D278E288F87
:03047C002980C113
:06047F0020010302053913
:09048500C3EB9536400302053972
:07048E00E536C39BF536AC17
:010495003630
:0B0496008C051C8C36ED70030205374E
:0C04A100758220C0041201EDD00480E937
:0A04AD00E53424FDF88834860508C4
:0A04B700860608860718188D278EA8
:0404C100288F29ADAA
:0404C50029BD8000CD
:0604C90040047A43801498
:0304CF00BD60000D
:0604D20040047A50800B8B
:0304D800BD400024
:0604DB0040047A49800292
:0204E1007A5847
:0E04E3008A82C0021201ED75823A1201ED7597
:0E04F10082301201ED7582781201EDD002BA50
:0404FF004902800B23
:05050300BA5002800661
:0605080085288212022C7E
:08050E0085278212022C8023D4
:07051600D20575350A801CB7
:05051D00753508801790
:0505220075350A80128E
:05052700753510800D88
:04052C00D208800968
:070530008A821201ED800236
:020537008C3600
:0905390030085AE53424FCF8886E
:0C05420034860408860508860608860733
:08054E001818188C278D288E67
:04055600298F2A754A
:03055A00272475DE
:03055D00280875F6
:020560002980F0
:04056200852738852C
:03056600283985AC
:05056900293A74012590
:07056E0038FFE43539FCAD54
:040575003A8F278C06
:04057900288D29851B
:06057D00388285398385F8
:0A0583003AF012078BFCFA70030235
:02058D000299D1
:07058F008A821201ED80CC0D
:07059600E535700302029934
:04059D00753711306D
:0705A100062BE53414F88875
:0A05A80034E6FD3395E0FEFFFC8D04
:0405B200278E288FD9
:0405B600298C2A2042
:0A05BA00055EAC277D007E007F0087
:0505C4008C278D288E3C
:0505C900298F2A804C7F
:0905CE0030071FE53424FCF88815
:0C05D7003486040886050886060886079E
:0805E3001818188C278D288ED2
:0505EB00298F2A802A7F
:0A05F000E53424FEF8883486040880
:0C05FA00860518ED3395E0FEFF8C278D80
:04060600288E298F82
:05060A002A20050CACE4
:08060F0027AD287E007F008E5C
:03061700298F2AFE
:0A061A00300522E52A30E71BC3E497
:090624009527FCE49528FDE495FE
:07062D0029FEE4952AFF8C71
:04063400278D288E58
:05063800298F2A800259
:02063D00C205F4
:06063F00D209A8377C007F
:0A064500752B00853582C004C0004B
:0B064F00120243D000D00420090DE58A
:0A065A002BC4FDE6FE4DF6188837AC
:02066400800212
:02066600A62BC1
:080668000C8C03B209E52745E3
:0406700028452945AB
:080674002A70CE88378C03E5E3
:06067C0036700375360123
:0A068200200224200121EB04FCAD4E
:01068C003637
:0E068D00C3EC9D5015758220C003C004C0054B
:0C069B001201EDD005D004D0031D80E654
:0206A7008D368E
:0C06A90030050E75822DC0031201EDD04B
:0506B50003153680234F
:0C06BA00EB602030030E75822BC0031291
:0806C60001EDD0031536800F91
:0C06CE0030040C758220C0031201EDD036
:0306DA00031536CF
:0506DD00200124AC36F1
:0B06E2008C051C8C36C3EB9D502B30A8
:0606ED0002047D308002D2
:0206F3007D2068
:0E06F5008D82C003C0041201EDD004D003803A
:01070300DE17
:0A070400C3EB95365008E536C39BA1
:04070E00F536800735
:050712007536008002B5
:020717008C361E
:02071900A837FF
:0A071B008B041BEC6026B2092009D4
:0B0725000A08E6C4540FFC8C2B800770
:070730008604740F5CF52B39
:0C073700852B82C003C000120213D0000A
:04074300D00380D48B
:06074700200103020299EB
:02074D00AB36C9
:09074F008B041BEC7003020299FB
:0C075800758220C0031201EDD00380EB7D
:080764008A821201ED020299E4
:07076C00852C82852D8322FC
:0B0824003C4E4F20464C4F41543E001C
:04077300AA82AB8328
:0807770012078B6003A380F858
:0C077F00C3E5829AF582E5839BF5832296
:0300080075813AC5
:0A000B00120077E582600302000393
:0E078B0020F71430F6148883A88220F507E6C4
:06079900A8837583002215
:03079F00E280F7FE
:0307A200E49322BB
:0207A500E02250
:00000001FF
