:03000000020008F3
:0300610002000397
:0500030012007780FEF1
:02006400AA826E
:0500660010990280FB6F
:03006B008A99224D
:05006E0010980280FB68
:0400730085998222C7
:0D00770075FFDE75FFAD12017312019612C8
:0A00840001AD75840074DBC0E07468
:0C008E0007C0E07480C0E01201F515818D
:0A009A001581158174E0C0E07407C1
:0E00A400C0E07480C0E01201F51581158115D1
:0100B20081CC
:0A00B3007402C0E07408C0E074801D
:0C00BD00C0E01201F51581158115817459
:0A00C90012C0E07408C0E07480C0AB
:0C00D300E01201F5158115811581743AC9
:0B00DF00C0E07408C0E07480C0E012B4
:0E00EA0001F515811581158112006EAA82C0E4
:0D00F80002120064D002439040BA30012291
:0A010500BA31177458C0E07408C046
:0E010F00E07480C0E01201F5158115811581A4
:02011D008094CC
:0A011F00BA321874DBC0E07407C0A8
:0E012900E07480C0E01201F51581158115818A
:030137000200B310
:0A013A005390BFC002746FC0E07460
:0C01440008C0E07480C0E01201F51581D5
:0C01500015811581D0028A8212006474AF
:0A015C0075C0E07408C0E07480C0B4
:0D016600E01201F51581158115810200B32D
:0C017300AA8475840F758C677BB87C0B28
:05017F001BBBFF011C89
:04018400EB4C70F7D9
:0E018800E58C30E7FB759701758A008A8422AA
:0E019600AA8475840F75E10475E20075E340DC
:0901A40043A40143A5408A842212
:0E01AD00AA8475840075884053890F43892009
:0E01BB00438E10758DE8D28E758400759850B5
:0801C900759100D2998A84228D
:0507DB001B5B324A0027
:0E07E00054657374206F662074686520707213
:0E07EE00696E746628292066756E6374696FE3
:0607FC006E2E0A0A0D003A
:0E08020048656C6C6F20576F726C64210A0A97
:020810000D00D9
:0E08120028206772656574696E6773206672D0
:0E0820006F6D2052757373656C6C20502E2026
:0C082E004B7261667420290A0A0A0D0052
:0E083A00313D7265706561742C20323D636C37
:0E0848006561722C20303D717569742E0A0AAC
:020856000D0093
:0E0858000A0A4865726520776520676F206187
:090866006761696E2E0A0A0D009B
:06086F000A0D41202200E9
:0E08750022206973206E6F7420612076616C02
:0E08830069642063686F6963652E0A0A0D00C0
:06003700E478FFF6D8FD9D
:080015007900E94400601B7A48
:05001D000090089C7832
:030022000075A2C4
:0A00250000E493F2A308B8000205FE
:08002F00A2D9F4DAF275A2FF78
:08003D007800E84400600A7934
:030045000075A2A1
:0600480000E4F309D8FCFE
:08004E007800E84400600C7921
:0B00560000900000E4F0A3D8FCD9FAF1
:0601D100C009858109123E
:0501D7000064D00922C4
:0801DC0085823185833285F034
:0501E40033E4F52EF5E7
:0401E9002FF5308539
:0301ED0008349043
:0501F00001D10202B57F
:0601F500C009858109E547
:0701FB000924FBF534E4F5D3
:040202002EF52FF5B1
:0702060030E50924FBF88636
:06020D003108863208866C
:05021300339001D1123F
:0502180002B5D009222F
:07021D00AA82C024C025C025
:06022400267434C0E074F2
:06022A0002C0E0C022C08A
:04023000238A822279
:0A023400158115811581052CE4B534
:04023E002C02052D5C
:010242002299
:0E024300AA8274302AFA24C6500A74072AFAD6
:060251003000034302200F
:050257008A8202021D75
:0E025C00E582FAC4540FF582C002120243D0AC
:09026A0002740F5AF582020243EE
:0602730085820AAB27ACF6
:0402790028AD29AED5
:04027D002AAF2B7504
:020281000B2050
:0E028300EF2FFFEE235401FA4207EB2BFBECAA
:0C02910033FCED33FDEE33FEC3EF950AA5
:0A029D004008EFC3950AFF43030178
:0602A700D50BD98B278C5A
:0402AD00288D298EE1
:0402B1002A8F2B2243
:0702B5008582228583238569
:0302BC002E248568
:0302BF002F258563
:0402C2003026E4F509
:0302C6002CF52DE7
:0502C900AA31AB32ACCC
:0C02CE00338A828B838CF01207BBFD7416
:0902DA00012AF531E43BF5328CF8
:0802E30033EDFA700302079CE1
:0502EB00BA25028003AA
:0302F0000207946E
:0502F300C201C202C2BD
:0402F80003C204C277
:0402FC0005C206C26F
:0403000007C20875B3
:0803040035007536007DFFAEE7
:04030C0031AF32AB30
:0103100033B9
:0E0311008E828F838BF01207BBFAA3AE82AFF1
:06031F00838E318F328B4A
:0B03250033BA25078A8212021D80995E
:050330008A04BC30004E
:0D033500402A8A04EC24C64023BDFF13E5D6
:0B0342003675F00AA4FCEA24D02CF56C
:07034D003670C1D20280BD31
:0D035400ED75F00AA4FCEA24D02CFD80B069
:0A036100BA2E07BDFFAA7D0080A69A
:05036B008A04BC6100E2
:0D037000400E8A04EC248540075302DFD2C2
:03037D00008002FB
:02038000C200B9
:05038200BA20028055C5
:05038700BA2B02804BBF
:05038C00BA2D028041C2
:05039100BA4202804B9E
:05039600BA4302805093
:06039B00BA44030205460E
:0603A100BA460302055CF0
:0603A700BA4903020546FD
:0503AD00BA4C0280348F
:0603B200BA4F0302054DE5
:0603B800BA50030204DD4F
:0503BE00BA5302804C5F
:0603C300BA5503020552C9
:0603C900BA5803020557BB
:0303CF00020560C4
:0503D200D2010203113D
:0503D700D20302031136
:0503DC00D20402031130
:0503E100D20602031129
:0503E600D20702031123
:0803EB0030060AE53414F8881D
:0503F300348602800FBA
:0A03F800E53424FEF888348603087B
:050402008604188B02C6
:080407008A8212021D02056940
:0A040F00E53424FDF8883486030864
:0A041900860408860618188B278C4D
:04042300288E298571
:0604270027828528838571
:0C042D0029F0C0051207A3AB82AC83D0FD
:0604390005BDFF028B056A
:0A043F0020012CC3EB95365026E592
:0604490036C39BF536AC42
:01044F003676
:0C0450008C061C8C36EE6014758220C0F7
:0E045C0003C004C00512021DD005D004D00359
:02046A0080E42C
:02046C008C36CC
:02046E008D04FB
:0704700085278285288385A2
:0C04770029F01207BBFDFA602F8C051C59
:0E048300C374808DF063F08095F050208A8263
:0C049100C003C00412021DD004D003AD53
:04049D0027AE28AFAF
:0604A100290DBD00010E53
:0504A7008D278E288F57
:0304AC002980C1E3
:0604AF00200103020569B3
:0904B500C3EB9536400302056912
:0704BE00E536C39BF536ACE7
:0104C5003600
:0B04C6008C051C8C36ED7003020567EE
:0C04D100758220C00412021DD00480E9D6
:0A04DD00E53424FDF8883486050894
:0A04E700860608860718188D278E78
:0404F100288F29AD7A
:0404F50029BD80009D
:0604F90040047A43801468
:0304FF00BD6000DD
:0605020040047A50800B5A
:03050800BD4000F3
:06050B0040047A49800261
:020511007A5816
:0E0513008A82C00212021D75823A12021D7504
:0E052100823012021D75827812021DD002BABD
:04052F004902800BF2
:05053300BA5002800631
:0605380085288212025C1E
:08053E0085278212025C802374
:07054600D20575350A801C87
:05054D00753508801760
:0505520075350A80125E
:05055700753510800D58
:04055C00D208800938
:070560008A8212021D8002D5
:020567008C36D0
:0905690030085AE53424FCF8883E
:0C05720034860408860508860608860703
:08057E001818188C278D288E37
:04058600298F2A751A
:03058A0027917541
:03058D00280875C6
:020590002980C0
:0405920085273885FC
:030596002839857C
:05059900293A74012560
:07059E0038FFE43539FCAD24
:0405A5003A8F278CD6
:0405A900288D2985EB
:0605AD00388285398385C8
:0A05B3003AF01207BBFCFA700302D5
:0205BD0002C971
:0705BF008A8212021D80CCAC
:0705C600E53570030202C9D4
:0405CD00753711303D
:0705D100062BE53414F88845
:0A05D80034E6FD3395E0FEFFFC8DD4
:0405E200278E288FA9
:0405E600298C2A2012
:0A05EA00055EAC277D007E007F0057
:0505F4008C278D288E0C
:0505F900298F2A804C4F
:0905FE0030071FE53424FCF888E5
:0C0607003486040886050886060886076D
:080613001818188C278D288EA1
:05061B00298F2A802A4E
:0A062000E53424FEF888348604084F
:0C062A00860518ED3395E0FEFF8C278D4F
:04063600288E298F52
:05063A002A20050CACB4
:08063F0027AD287E007F008E2C
:03064700298F2ACE
:0A064A00300522E52A30E71BC3E467
:090654009527FCE49528FDE495CE
:07065D0029FEE4952AFF8C41
:04066400278D288E28
:05066800298F2A800229
:02066D00C205C4
:06066F00D209A8377C004F
:0A067500752B00853582C004C0001B
:0B067F00120273D000D00420090DE52A
:0A068A002BC4FDE6FE4DF61888377C
:020694008002E2
:02069600A62B91
:080698000C8C03B209E52745B3
:0406A000284529457B
:0806A4002A70CE88378C03E5B3
:0606AC00367003753601F3
:0A06B200200224200121EB04FCAD1E
:0106BC003607
:0E06BD00C3EC9D5015758220C003C004C0051B
:0C06CB0012021DD005D004D0031D80E6F3
:0206D7008D365E
:0C06D90030050E75822DC00312021DD0EA
:0506E50003153680231F
:0C06EA00EB602030030E75822BC0031261
:0806F600021DD0031536800F30
:0C06FE0030040C758220C00312021DD0D5
:03070A000315369E
:05070D00200124AC36C0
:0B0712008C051C8C36C3EB9D502B3077
:06071D0002047D308002A1
:020723007D2037
:0E0725008D82C003C00412021DD004D00380D8
:01073300DEE7
:0A073400C3EB95365008E536C39B71
:04073E00F536800705
:05074200753600800285
:020747008C36EE
:02074900A837CF
:0A074B008B041BEC6026B2092009A4
:0B0755000A08E6C4540FFC8C2B800740
:070760008604740F5CF52B09
:0C076700852B82C003C000120243D000AA
:04077300D00380D45B
:060777002001030202C98B
:02077D00AB3699
:09077F008B041BEC70030202C99B
:0C078800758220C00312021DD00380EB1C
:080794008A8212021D0202C953
:07079C00852C82852D8322CC
:0B0891003C4E4F20464C4F41543E00AF
:0407A300AA82AB83F8
:0807A7001207BB6003A380F8F8
:0C07AF00C3E5829AF582E5839BF5832266
:0300080075813AC5
:0A000B001207D7E58260030200032C
:0E07BB0020F71430F6148883A88220F507E694
:0607C900A88375830022E5
:0307CF00E280F7CE
:0307D200E493228B
:0207D500E02220
:0407D7007582002205
:00000001FF
