:03000000020008F3
:0300610002000397
:0500030012007780FEF1
:02006400AA826E
:0500660010990280FB6F
:03006B008A99224D
:05006E0010980280FB68
:0400730085998222C7
:0E0077007A0B7B0075FFDE75FFADC002C00383
:070085001202721202951233
:0A008C0002AC75840074DAC0E07461
:0C00960008C0E07480C0E01202F4158184
:0A00A2001581158174DFC0E07408B9
:0E00AC00C0E07480C0E01202F41581158115C9
:0A00BA008174EEC0E07408C0E07429
:0D00C40080C0E01202F415811581158174D1
:0A00D10016C0E07409C0E07480C09E
:0E00DB00E01202F4158115811581D003D002C8
:0E00E900C002C00312006EAC82D003D002C36E
:0E00F700EC648094A0407874FE8CF063F0807E
:0C01050095F0406DC002C003C004741FE0
:0B011100C0E07409C0E07480C0E01280
:0C011C0002F41581158115817424C0E0E7
:0C0128007409C0E07480C0E01202F415FD
:0A0134008115811581742DC0E0745F
:0C013E0009C0E07480C0E01202F41581DA
:0E014A0015811581D004ECFD3395E0FEC00553
:0A015800C0067434C0E07409C0E072
:0E0162007480C0E01202F4E58124FBF581D028
:0601700003D0020200E9C9
:0A017600BC1B557460C0E07409C0A2
:0E018000E07480C0E01202F415811581158133
:0A018E007464C0E07409C0E07480DE
:0C019800C0E01202F4158115811581747D
:0A01A40024C0E07409C0E07480C0BC
:0C01AE00E01202F4158115811581746CBB
:0B01BA00C0E07409C0E07480C0E012D7
:0901C50002F41581158115812257
:0D01CE00BA183BBB0038C002C003C0047467
:0A01DB0060C0E07409C0E07480C049
:0C01E500E01202F41581158115817424CC
:0B01F100C0E07409C0E07480C0E012A0
:0E01FC0002F4158115811581D004D003D002C4
:02020A0080056D
:05020C000ABA00010B1D
:0C021100C002C003C004C002C003747C23
:0B021D00C0E07409C0E07480C0E01273
:0C02280002F4E58124FBF5817484C0E041
:0C0234007409C0E07480C0E01202F415F0
:0E0240008115811581D004EC3395E0FDC004DA
:0A024E00C0057489C0E07409C0E027
:0E0258007480C0E01202F4E58124FBF581758C
:0C0266008207120064D003D0020200E9FD
:0C027200AA8475840F758C677BB87C0B28
:05027E001BBBFF011C89
:04028300EB4C70F7D9
:0E028700E58C30E7FB759701758A008A8422AA
:0E029500AA8475840F75E10475E20075E340DC
:0902A30043A40143A5408A842212
:0E02AC00AA8475840075884053890F43892009
:0E02BA00438E10758DE8D28E758400759850B5
:0802C800759100D2998A84228D
:0508DA001B5B324A0027
:0E08DF001B5B33336D1B5B31421B5B323143BD
:0108ED00000A
:0E08EE0052657475726E7320696E7075742099
:0E08FC00636861722E20546F20657869742045
:0C090A00686974204553432E0A0A0D0052
:090916001B5B31323B32347200EC
:05091F001B5B306D00C0
:090924001B5B34343B33336D00DE
:07092D001B5B363B30480064
:0E0934000A0D546865206B6579626F6172640C
:0E0942002063686172616374657220697320BE
:0E0950001B5B33376D25631B5B33336D2E0A43
:02095E000D008A
:040960001B5B6D00B0
:080964001B5B32343B304800FC
:0E096C0050726F6772616D2065786974200AA1
:02097A000D006E
:08097C001B5B25643B304800C1
:050984001B5B356D0056
:0E098900546865206368617261637465722052
:0E09970024255820697320271B5B346D6E6F7A
:0E09A50074207072696E7461626C65271B5B52
:0E09B300306D1B5B353B34343B33336D2E0A05
:0209C1000D0027
:06003700E478FFF6D8FD9D
:080015007900E94400601B7A48
:05001D00009009CE78FF
:030022000075A2C4
:0A00250000E493F2A308B8000205FE
:08002F00A2D9F4DAF275A2FF78
:08003D007800E84400600A7934
:030045000075A2A1
:0600480000E4F309D8FCFE
:08004E007800E84400600C7921
:0B00560000900000E4F0A3D8FCD9FAF1
:0602D000C009858109123E
:0502D6000064D00922C4
:0802DB0085823185833285F034
:0502E30033E4F52EF5E7
:0402E8002FF5308539
:0302EC0008349043
:0502EF0002D00203B47F
:0602F400C009858109E547
:0702FA000924FBF534E4F5D3
:040301002EF52FF5B1
:0703050030E50924FBF88636
:06030C003108863208866C
:05031200339002D0123F
:0503170003B4D009222F
:07031C00AA82C024C025C025
:06032300267433C0E074F3
:0603290003C0E0C022C089
:04032F00238A822279
:0A033300158115811581052CE4B534
:04033D002C02052D5C
:010341002299
:0E034200AA8274302AFA24C6500A74072AFAD6
:060350003000034302200F
:050356008A8202031C75
:0E035B00E582FAC4540FF582C002120342D0AC
:0903690002740F5AF582020342EE
:0603720085820AAB27ACF6
:0403780028AD29AED5
:04037C002AAF2B7504
:020380000B2050
:0E038200EF2FFFEE235401FA4207EB2BFBECAA
:0C03900033FCED33FDEE33FEC3EF950AA5
:0A039C004008EFC3950AFF43030178
:0603A600D50BD98B278C5A
:0403AC00288D298EE1
:0403B0002A8F2B2243
:0703B4008582228583238569
:0303BB002E248568
:0303BE002F258563
:0403C1003026E4F509
:0303C5002CF52DE7
:0503C800AA31AB32ACCC
:0C03CD00338A828B838CF01208BAFD7416
:0903D900012AF531E43BF5328CF8
:0803E20033EDFA700302089BE1
:0503EA00BA25028003AA
:0303EF000208936E
:0503F200C201C202C2BD
:0403F70003C204C277
:0403FB0005C206C26F
:0403FF0007C20875B4
:0804030035007536007DFFAEE7
:04040B0031AF32AB30
:01040F0033B9
:0E0410008E828F838BF01208BAFAA3AE82AFF1
:06041E00838E318F328B4A
:0B04240033BA25078A8212031C80995E
:05042F008A04BC30004E
:0D043400402A8A04EC24C64023BDFF13E5D6
:0B0441003675F00AA4FCEA24D02CF56C
:07044C003670C1D20280BD31
:0D045300ED75F00AA4FCEA24D02CFD80B069
:0A046000BA2E07BDFFAA7D0080A69A
:05046A008A04BC6100E2
:0D046F00400E8A04EC248540075302DFD2C2
:03047C00008002FB
:02047F00C200B9
:05048100BA20028055C5
:05048600BA2B02804BBF
:05048B00BA2D028041C2
:05049000BA4202804B9E
:05049500BA4302805093
:06049A00BA44030206450E
:0604A000BA460302065BF0
:0604A600BA4903020645FD
:0504AC00BA4C0280348F
:0604B100BA4F0302064CE5
:0604B700BA50030205DC4F
:0504BD00BA5302804C5F
:0604C200BA5503020651C9
:0604C800BA5803020656BB
:0304CE0002065FC4
:0504D100D2010204103D
:0504D600D20302041036
:0504DB00D20402041030
:0504E000D20602041029
:0504E500D20702041023
:0804EA0030060AE53414F8881D
:0504F200348602800FBA
:0A04F700E53424FEF888348603087B
:050501008604188B02C6
:080506008A8212031C02066840
:0A050E00E53424FDF8883486030864
:0A051800860408860618188B278C4D
:04052200288E298571
:0605260027828528838571
:0C052C0029F0C0051208A2AB82AC83D0FD
:0605380005BDFF028B056A
:0A053E0020012CC3EB95365026E592
:0605480036C39BF536AC42
:01054E003676
:0C054F008C061C8C36EE6014758220C0F7
:0E055B0003C004C00512031CD005D004D00359
:0205690080E42C
:02056B008C36CC
:02056D008D04FB
:07056F0085278285288385A2
:0C05760029F01208BAFDFA602F8C051C59
:0E058200C374808DF063F08095F050208A8263
:0C059000C003C00412031CD004D003AD53
:04059C0027AE28AFAF
:0605A000290DBD00010E53
:0505A6008D278E288F57
:0305AB002980C1E3
:0605AE00200103020668B3
:0905B400C3EB9536400302066812
:0705BD00E536C39BF536ACE7
:0105C4003600
:0B05C5008C051C8C36ED7003020666EE
:0C05D000758220C00412031CD00480E9D6
:0A05DC00E53424FDF8883486050894
:0A05E600860608860718188D278E78
:0405F000288F29AD7A
:0405F40029BD80009D
:0605F80040047A43801468
:0305FE00BD6000DD
:0606010040047A50800B5A
:03060700BD4000F3
:06060A0040047A49800261
:020610007A5816
:0E0612008A82C00212031C75823A12031C7504
:0E062000823012031C75827812031CD002BABD
:04062E004902800BF2
:05063200BA5002800631
:0606370085288212035B1E
:08063D0085278212035B802374
:07064500D20575350A801C87
:05064C00753508801760
:0506510075350A80125E
:05065600753510800D58
:04065B00D208800938
:07065F008A8212031C8002D5
:020666008C36D0
:0906680030085AE53424FCF8883E
:0C06710034860408860508860608860703
:08067D001818188C278D288E37
:04068500298F2A751A
:0306890027C3750F
:03068C00280975C5
:02068F002980C0
:0406910085273885FC
:030695002839857C
:05069800293A74012560
:07069D0038FFE43539FCAD24
:0406A4003A8F278CD6
:0406A800288D2985EB
:0606AC00388285398385C8
:0A06B2003AF01208BAFCFA700302D5
:0206BC0003C871
:0706BE008A8212031C80CCAC
:0706C500E53570030203C8D4
:0406CC00753711303D
:0706D000062BE53414F88845
:0A06D70034E6FD3395E0FEFFFC8DD4
:0406E100278E288FA9
:0406E500298C2A2012
:0A06E900055EAC277D007E007F0057
:0506F3008C278D288E0C
:0506F800298F2A804C4F
:0906FD0030071FE53424FCF888E5
:0C0706003486040886050886060886076D
:080712001818188C278D288EA1
:05071A00298F2A802A4E
:0A071F00E53424FEF888348604084F
:0C072900860518ED3395E0FEFF8C278D4F
:04073500288E298F52
:050739002A20050CACB4
:08073E0027AD287E007F008E2C
:03074600298F2ACE
:0A074900300522E52A30E71BC3E467
:090753009527FCE49528FDE495CE
:07075C0029FEE4952AFF8C41
:04076300278D288E28
:05076700298F2A800229
:02076C00C205C4
:06076E00D209A8377C004F
:0A077400752B00853582C004C0001B
:0B077E00120372D000D00420090DE52A
:0A0789002BC4FDE6FE4DF61888377C
:020793008002E2
:02079500A62B91
:080797000C8C03B209E52745B3
:04079F00284529457B
:0807A3002A70CE88378C03E5B3
:0607AB00367003753601F3
:0A07B100200224200121EB04FCAD1E
:0107BB003607
:0E07BC00C3EC9D5015758220C003C004C0051B
:0C07CA0012031CD005D004D0031D80E6F3
:0207D6008D365E
:0C07D80030050E75822DC00312031CD0EA
:0507E40003153680231F
:0C07E900EB602030030E75822BC0031261
:0807F500031CD0031536800F30
:0C07FD0030040C758220C00312031CD0D5
:030809000315369E
:05080C00200124AC36C0
:0B0811008C051C8C36C3EB9D502B3077
:06081C0002047D308002A1
:020822007D2037
:0E0824008D82C003C00412031CD004D00380D8
:01083200DEE7
:0A083300C3EB95365008E536C39B71
:04083D00F536800705
:05084100753600800285
:020846008C36EE
:02084800A837CF
:0A084A008B041BEC6026B2092009A4
:0B0854000A08E6C4540FFC8C2B800740
:07085F008604740F5CF52B09
:0C086600852B82C003C000120342D000AA
:04087200D00380D45B
:060876002001030203C88B
:02087C00AB3699
:09087E008B041BEC70030203C89B
:0C088700758220C00312031CD00380EB1C
:080893008A8212031C0203C853
:07089B00852C82852D8322CC
:0B09C3003C4E4F20464C4F41543E007C
:0408A200AA82AB83F8
:0808A6001208BA6003A380F8F8
:0C08AE00C3E5829AF582E5839BF5832266
:0300080075813AC5
:0A000B001208D6E58260030200032C
:0E08BA0020F71430F6148883A88220F507E694
:0608C800A88375830022E5
:0308CE00E280F7CE
:0308D100E493228B
:0208D400E02220
:0408D6007582002205
:00000001FF
