:040000000200333295
:01000B0032C2
:0100130032BA
:01001B0032B2
:0100230032AA
:03002B000203AF1E
:07008C00E4F508F509E4F5B5
:040093000AF50B75EA
:050097000C0DE4F50D65
:03009C0002002E31
:05002E001200B280FE8B
:02009F00AA8233
:0500A10010990280FB34
:0300A6008A992212
:0500A90010980280FB2D
:0400AE00859982228C
:0E00B200E58475FFDE75FFAD12033A12038878
:0700C00012037812035D1228
:0A00C700039E75840074CFC0E0743E
:0C00D10009C0E07480C0E01203E9158152
:0A00DD001581158174CFC0E074098D
:0E00E700C0E07480C0E01203E9158115811598
:0A00F5008174D4C0E07409C0E07407
:0D00FF0080C0E01203E915811581158174A0
:0A010C00DCC0E07409C0E07480C09C
:0A011600E01203E91581158115813F
:0501200010980280FBB5
:0A012500AA99BA7F051201DA80F1F1
:0A012F00BA613EC002742DC0E074F6
:0C0139000AC0E07480C0E01203E91581E8
:0E014500158115817405259DF59DAB9D7C00EF
:0A015300C003C0047436C0E0740A53
:0E015D00C0E07480C0E01203E9E58124FBF5E8
:05016B0081D002802A92
:0E017000BA7A27E59D24FBF59DAB9D7C00C06F
:0A017E0002C003C0047436C0E07430
:0C0188000AC0E07480C0E01203E9E581C9
:0601940024FBF581D002FE
:06019A00C2FAC2FF8A9BBD
:0E01A00030FFFDD2FA8A82C002120222D00283
:0701AE00C298E4F508F50911
:0A01B500C3E5089430E50964809466
:0501BF00F540F3C2FA57
:0501C40010FF0280FBAA
:0201C9008A9B0F
:0D01CB0030FFFDD2FAAA9B8A821202C40204
:0201D800012004
:0201DA00C2FA67
:0501DC0010FF0280FB92
:0301E100759B7F8C
:0501E40010FF0280FB8A
:0401E900D2FAE59BC6
:0501ED00E4F508F5092E
:0A01F200C3E5089430E50964809429
:0A01FC00F540F3C2FAC2FF759B6ED6
:0E02060030FFFDD2FAAA9B8A82C0021202C407
:0E021400D002EA3395E0FBBAFFCFBBFFCC224D
:0C022200AA82AB84758400C3E50A940C2A
:0A022E00E50B64809480502B050A54
:06023800E4B50A02050B0B
:09023E00C002C003C00AC00B7429
:0A02470042C0E0740AC0E07480C0F9
:0E025100E01203E9E58124FBF581D003D00221
:02025F00801D00
:0A026100C002C003744AC0E0740A32
:0E026B00C0E07480C0E01203E9158115811512
:0502790081D003D0025A
:09027E00C002C003C00AC00B74E9
:0A02870042C0E0740AC0E07480C0B9
:0E029100E01203E9E58124FBF581D003D002E1
:0C029F00EA3395E0FCC003C002C0047408
:0A02AB0052C0E0740AC0E07480C085
:0E02B500E01203E9E58124FBF581D0038B8480
:0102C3002218
:0C02C400AA82E584758400C3E50C94193F
:0A02D000E50D64809480500A050CCF
:0802DA00E4B50C1D050D8019AF
:0A02E200C0027457C0E0740AC0E0C7
:0E02EC007480C0E01203E9158115811581D0E0
:0102FA000201
:0702FB00C002C00CC00D742D
:0A03020042C0E0740AC0E07480C03D
:0E030C00E01203E9E58124FBF581D002EA331B
:0C031A0095E0FBC002C0037452C0E07408
:0C0326000AC0E07480C0E01203E9E58129
:0803320024FBF581858484227F
:0C033A00AA8475840F758C677BB87C0B5F
:050346001BBBFF011CC0
:04034B00EB4C70F710
:0E034F00E58C30E7FB759701758A008A8422E1
:0E035D00AA8475840FD2AFD2AD43A43553A449
:0D036B00F54380CA75E10675E3408A8422DF
:0E037800AA84758400759850759105D2998AF3
:020386008422CF
:0E038800AA8475840075C80475C90875CAF486
:0803960075CBFFD2CA8A842254
:0E039E00AA84758400759A4075F809759D153E
:0303AC008A84221E
:0C03AF00C0E0C0D075D000C2CF0508E44B
:0503BB00B50802050970
:0503C000D0D0D0E032B6
:0509CF001B5B324A0031
:0809D4001B5B31333B3048008E
:0E09DC002D2D2D2D2D2D2D2D2D2D2D2D2D2D97
:0E09EA002D2D2D2D2D2D2D2D2D2D2D2D2D2D89
:0E09F8002D2D2D2D2D2D2D2D2D2D2D2D2D2D7B
:0E0A06002D2D2D2D2D2D2D2D2D2D2D2D2D2D6C
:0E0A14002D2D2D2D2D2D2D2D2D2D2D2D2D2D5E
:0B0A22002D2D2D2D2D2D2D2D2D2D0007
:090A2D006920616D20610A0D00D1
:0C0A3600636C6F636B3A2025640A0D00AE
:080A42001B5B25643B304800FA
:080A4A001B5B313B31327200ED
:050A520025630A0D0000
:090A57001B5B31343B32357200A7
:06006200E478FFF6D8FD72
:080040007900E94400601B7A1D
:0500480000900A6B7836
:03004D000075A299
:0A00500000E493F2A308B8000205D3
:08005A00A2D9F4DAF275A2FF4D
:080068007800E84400600A7909
:030070000075A276
:0600730000E4F309D8FCD3
:080079007800E84400600C79F6
:0B00810000900000E4F0A3D8FCD9FAC6
:0603C500C00F85810F123C
:0503CB00009FD00F228D
:0803D00085823185833285F03E
:0503D80033E4F52EF5F1
:0403DD002FF5308543
:0303E1000E349047
:0503E40003C50204A99D
:0603E900C00F85810FE545
:0703EF000F24FBF534E4F5D7
:0403F6002EF52FF5BC
:0703FA0030E50F24FBF8863B
:0604010031088632088676
:05040700339003C51253
:05040C0004A9D00F223D
:07041100AA82C024C025C02F
:06041800267428C0E07408
:06041E0004C0E0C022C092
:04042400238A822283
:0A042800158115811581052CE4B53E
:040432002C02052D66
:0104360022A3
:0E043700AA8274302AFA24C6500A74072AFAE0
:0604450030000343022019
:05044B008A8202041189
:0E045000E582FAC4540FF582C002120437D0C0
:09045E0002740F5AF58202043702
:06046700858210AB27ACFA
:04046D0028AD29AEDF
:040471002AAF2B750E
:02047500112054
:0E047700EF2FFFEE235401FA4207EB2BFBECB4
:0C04850033FCED33FDEE33FEC3EF9510A9
:0A0491004008EFC39510FF4303017C
:06049B00D511D98B278C5E
:0404A100288D298EEB
:0404A5002A8F2B224D
:0704A9008582228583238573
:0304B0002E248572
:0304B3002F25856D
:0404B6003026E4F513
:0304BA002CF52DF1
:0504BD00AA31AB32ACD6
:0C04C200338A828B838CF01209AFFD742A
:0904CE00012AF531E43BF5328C02
:0804D70033EDFA7003020990F5
:0504DF00BA25028003B4
:0304E40002098882
:0504E700C201C202C2C7
:0404EC0003C204C281
:0404F00005C206C279
:0404F40007C20875BE
:0804F80035007536007DFFAEF2
:0405000031AF32AB3A
:0105040033C3
:0E0505008E828F838BF01209AFFAA3AE82AF05
:06051300838E318F328B54
:0B05190033BA25078A82120411809972
:050524008A04BC300058
:0D052900402A8A04EC24C64023BDFF13E5E0
:0B0536003675F00AA4FCEA24D02CF576
:070541003670C1D20280BD3B
:0D054800ED75F00AA4FCEA24D02CFD80B073
:0A055500BA2E07BDFFAA7D0080A6A4
:05055F008A04BC6100EC
:0D056400400E8A04EC248540075302DFD2CC
:0305710000800205
:02057400C200C3
:05057600BA20028055CF
:05057B00BA2B02804BC9
:05058000BA2D028041CC
:05058500BA4202804BA8
:05058A00BA430280509D
:06058F00BA440302073A22
:06059500BA460302075004
:06059B00BA490302073A11
:0505A100BA4C02803499
:0605A600BA4F03020741F9
:0605AC00BA50030206D163
:0505B200BA5302804C69
:0605B700BA5503020746DD
:0605BD00BA580302074BCF
:0305C300020754D8
:0505C600D20102050551
:0505CB00D2030205054A
:0505D000D20402050544
:0505D500D2060205053D
:0505DA00D20702050537
:0805DF0030060AE53414F88827
:0505E700348602800FC4
:0A05EC00E53424FEF8883486030885
:0505F6008604188B02D1
:0805FB008A8212041102075D5F
:0A060300E53424FDF888348603086E
:0A060D00860408860618188B278C57
:04061700288E29857B
:06061B002782852883857B
:0C06210029F0C005120997AB82AC83D011
:06062D0005BDFF028B0574
:0A06330020012CC3EB95365026E59C
:06063D0036C39BF536AC4C
:010643003680
:0C0644008C061C8C36EE6014758220C001
:0E06500003C004C005120411D005D004D0036D
:02065E0080E436
:020660008C36D6
:020662008D0405
:0706640085278285288385AC
:0C066B0029F01209AFFDFA602F8C051C6D
:0E067700C374808DF063F08095F050208A826D
:0C068500C003C004120411D004D003AD67
:0406910027AE28AFB9
:06069500290DBD00010E5D
:05069B008D278E288F61
:0306A0002980C1ED
:0606A30020010302075DC7
:0906A900C3EB9536400302075D26
:0706B200E536C39BF536ACF1
:0106B900360A
:0B06BA008C051C8C36ED700302075B02
:0C06C500758220C004120411D00480E9EA
:0A06D100E53424FDF888348605089E
:0A06DB00860608860718188D278E82
:0406E500288F29AD84
:0406E90029BD8000A7
:0606ED0040047A43801472
:0306F300BD6000E7
:0606F60040047A50800B65
:0306FC00BD4000FE
:0606FF0040047A4980026C
:020705007A5820
:0E0707008A82C00212041175823A1204117522
:0E0715008230120411758278120411D002BADB
:040723004902800BFC
:05072700BA500280063B
:06072C0085288212045032
:08073200852782120450802388
:07073A00D20575350A801C91
:0507410075350880176A
:0507460075350A801268
:05074B00753510800D62
:04075000D208800942
:070754008A821204118002E9
:02075B008C36DA
:09075D0030085AE53424FCF88848
:0C0766003486040886050886060886070D
:080772001818188C278D288E41
:04077A00298F2A7524
:03077E002760757C
:03078100280A75CE
:020784002980CA
:040786008527388506
:03078A0028398586
:05078D00293A7401256A
:0707920038FFE43539FCAD2E
:040799003A8F278CE0
:04079D00288D2985F5
:0607A100388285398385D2
:0A07A7003AF01209AFFCFA700302E9
:0207B10004BD85
:0707B3008A8212041180CCC0
:0707BA00E53570030204BDE8
:0407C1007537173041
:0707C500062BE53414F8884F
:0A07CC0034E6FD3395E0FEFFFC8DDE
:0407D600278E288FB3
:0407DA00298C2A201C
:0A07DE00055EAC277D007E007F0061
:0507E8008C278D288E16
:0507ED00298F2A804C59
:0907F20030071FE53424FCF888EF
:0C07FB0034860408860508860608860778
:080807001818188C278D288EAB
:05080F00298F2A802A58
:0A081400E53424FEF8883486040859
:0C081E00860518ED3395E0FEFF8C278D59
:04082A00288E298F5C
:05082E002A20050CACBE
:0808330027AD287E007F008E36
:03083B00298F2AD8
:0A083E00300522E52A30E71BC3E471
:090848009527FCE49528FDE495D8
:0708510029FEE4952AFF8C4B
:04085800278D288E32
:05085C00298F2A800233
:02086100C205CE
:06086300D209A8377C0059
:0A086900752B00853582C004C00025
:0B087300120467D000D00420090DE53E
:0A087E002BC4FDE6FE4DF618883786
:020888008002EC
:02088A00A62B9B
:08088C000C8C03B209E52745BD
:040894002845294585
:080898002A70CE88378C03E5BD
:0608A000367003753601FD
:0A08A600200224200121EB04FCAD28
:0108B0003611
:0E08B100C3EC9D5015758220C003C004C00525
:0C08BF00120411D005D004D0031D80E607
:0208CB008D3668
:0C08CD0030050E75822DC003120411D0FE
:0508D900031536802329
:0C08DE00EB602030030E75822BC003126B
:0808EA000411D0031536800F44
:0C08F20030040C758220C003120411D0E9
:0308FE00031536A9
:05090100200124AC36CA
:0B0906008C051C8C36C3EB9D502B3081
:0609110002047D308002AB
:020917007D2041
:0E0919008D82C003C004120411D004D00380EC
:01092700DEF1
:0A092800C3EB95365008E536C39B7B
:04093200F53680070F
:0509360075360080028F
:02093B008C36F8
:02093D00A837D9
:0A093F008B041BEC6026B2092009AE
:0B0949000A08E6C4540FFC8C2B80074A
:070954008604740F5CF52B13
:0C095B00852B82C003C000120437D000BE
:04096700D00380D465
:06096B002001030204BD9F
:02097100AB36A3
:090973008B041BEC70030204BDAF
:0C097C00758220C003120411D00380EB30
:080988008A821204110204BD71
:07099000852C82852D8322D6
:0B0A60003C4E4F20464C4F41543E00DE
:04099700AA82AB8302
:08099B001209AF6003A380F80C
:0C09A300C3E5829AF582E5839BF5832270
:0300330075813A9A
:0A0036001209CBE582600302002EE0
:0E09AF0020F71430F6148883A88220F507E69E
:0609BD00A88375830022EF
:0309C300E280F7D8
:0309C600E4932295
:0209C900E0222A
:0409CB00758200220F
:00000001FF
