:040000000200AB321D
:01000B0032C2
:0100130032BA
:01001B0032B2
:030023000202AC2A
:01002B0032A2
:01003300329A
:01003B003292
:01004300328A
:01004B003282
:01005300327A
:01005B003272
:01006300326A
:01006B003262
:01007300325A
:01007B003252
:01008300324A
:01008B003242
:01009300323A
:01009B003232
:0300A3000202B79F
:05010400C200C201C2AF
:0101090002F3
:03010A000200A64A
:0500A60012012080FEA4
:02010D00AA82C4
:05010F0010990280FBC5
:030114008A9922A3
:0501170010980280FBBE
:04011C00859982221D
:0D01200075FFDE75FFAD120228120282127B
:09012D00026512024B7584007496
:0A013600CCC0E07408C0E07480C083
:0C014000E01202E615811581158174D1D2
:0B014C00C0E07408C0E07480C0E01246
:0C01570002E61581158115817584017484
:0A016300CCC0E07408C0E07480C056
:0C016D00E01202E615811581158174E294
:0B017900C0E07408C0E07480C0E01219
:0B01840002E6158115811581758400CD
:0C018F00300141758401E599FB3395E0D7
:0C019B00FCC003C004C003C00474F1C029
:0C01A700E07408C0E07480C0E01202E6C2
:0C01B300E58124FBF58175840074F1C027
:0C01BF00E07408C0E07480C0E01202E6AA
:0801CB00E58124FBF581C2016E
:0C01D300300041758400E599FA3395E096
:0C01DF00FBC002C003C002C00374F1C0EA
:0C01EB00E07408C0E07480C0E01202E67E
:0C01F700E58124FBF58175840174F1C0E2
:0C020300E07408C0E07480C0E01202E665
:08020F00E58124FBF581C2002A
:0B0217007440B5F70653F7BF02018FDB
:0602220043F74002018FCA
:0C022800AA8475840F758C677BB87C0B72
:050234001BBBFF011CD3
:04023900EB4C70F723
:0E023D00E58C30E7FB759701758A008A8422F4
:0E024B00AA8475840FD2AFD2ADD2AB75A405D4
:0C02590053800575E10475E3448A84229B
:0E026500AA84758400759850759105D299D2BF
:0E027300AC758401759810D29943E7408A84D7
:01028100225A
:0E028200AA8475840075884053890F43892033
:0E029000438E10758DA0D28E75840075C80443
:0E029E0075C90875CA7075CBFFD2CA8A842252
:0802AC00758400309802D200B5
:0302B400C29832BB
:0802B700758401309802D201A8
:0302BF00C29832B0
:0508CC001B5B324A0035
:0E08D1004920616D205541525430203D5B0A94
:0308DF000A0D00FF
:0E08E2004920616D2055415254312E0A0A0DF5
:0108F0000007
:0308F1002563007C
:0600DA00E478FFF6D8FDFA
:0800B8007900E94400601B7AA5
:0500C000009008FF782C
:0300C5000075A221
:0A00C80000E493F2A308B80002055B
:0800D200A2D9F4DAF275A2FFD5
:0800E0007800E84400600A7991
:0300E8000075A2FE
:0600EB0000E4F309D8FC5B
:0800F1007800E84400600C797E
:0B00F90000900000E4F0A3D8FCD9FA4E
:0602C200C00A85810A124A
:0502C800010DD00A2227
:0802CD0085823185833285F042
:0502D50033E4F52EF5F5
:0402DA002FF5308547
:0302DE0009349050
:0502E10002C20203A6A9
:0602E600C00A85810AE553
:0702EC000A24FBF534E4F5E0
:0402F3002EF52FF5C0
:0702F70030E50A24FBF88644
:0602FE003108863208867B
:05030400339002C2125B
:0503090003A6D00A224A
:07030E00AA82C024C025C033
:06031500267425C0E0740F
:06031B0003C0E0C022C097
:04032100238A822287
:0A032500158115811581052CE4B542
:04032F002C02052D6A
:0103330022A7
:0E033400AA8274302AFA24C6500A74072AFAE4
:060342003003034302201A
:050348008A8202030E91
:0E034D00E582FAC4540FF582C002120334D0C8
:09035B0002740F5AF5820203340A
:0603640085820BAB27AC03
:04036A0028AD29AEE3
:04036E002AAF2B7512
:020372000C205D
:0E037400EF2FFFEE235401FA4207EB2BFBECB8
:0C03820033FCED33FDEE33FEC3EF950BB2
:0A038E004008EFC3950BFF43030185
:06039800D50CD98B278C67
:04039E00288D298EEF
:0403A2002A8F2B2251
:0703A6008582228583238577
:0303AD002E248576
:0303B0002F258571
:0403B3003026E4F517
:0303B7002CF52DF5
:0503BA00AA31AB32ACDA
:0C03BF00338A828B838CF01208ACFD7432
:0903CB00012AF531E43BF5328C06
:0803D40033EDFA700302088DFD
:0503DC00BA25028003B8
:0303E1000208858A
:0503E400C204C205C2C5
:0403E90006C207C27F
:0403ED0008C209C277
:0403F1000AC20B75BC
:0803F50035007536007DFFAEF6
:0403FD0031AF32AB3F
:0104010033C7
:0E0402008E828F838BF01208ACFAA3AE82AF0D
:06041000838E318F328B58
:0B04160033BA25078A8212030E80997A
:050421008A04BC30005C
:0D042600402A8A04EC24C64023BDFF13E5E4
:0B0433003675F00AA4FCEA24D02CF57A
:07043E003670C1D20580BD3C
:0D044500ED75F00AA4FCEA24D02CFD80B077
:0A045200BA2E07BDFFAA7D0080A6A8
:05045C008A04BC6100F0
:0D046100400E8A04EC248540075302DFD2D0
:03046E0003800206
:02047100C203C4
:05047300BA20028055D3
:05047800BA2B02804BCD
:05047D00BA2D028041D0
:05048200BA4202804BAC
:05048700BA43028050A1
:06048C00BA44030206372A
:06049200BA460302064D0C
:06049800BA490302063719
:05049E00BA4C0280349D
:0604A300BA4F0302063E01
:0604A900BA50030205CE6B
:0504AF00BA5302804C6D
:0604B400BA5503020643E5
:0604BA00BA5803020648D7
:0304C000020651E0
:0504C300D20402040256
:0504C800D2060204024F
:0504CD00D20702040249
:0504D200D20902040242
:0504D700D20A0204023C
:0804DC0030090AE53414F88828
:0504E400348602800FC8
:0A04E900E53424FEF8883486030889
:0504F3008604188B02D5
:0804F8008A8212030E02065A6B
:0A050000E53424FDF8883486030872
:0A050A00860408860618188B278C5B
:04051400288E29857F
:060518002782852883857F
:0C051E0029F0C005120894AB82AC83D019
:06052A0005BDFF028B0578
:0A05300020042CC3EB95365026E59D
:06053A0036C39BF536AC50
:010540003684
:0C0541008C061C8C36EE6014758220C005
:0E054D0003C004C00512030ED005D004D00375
:02055B0080E43A
:02055D008C36DA
:02055F008D0409
:0705610085278285288385B0
:0C05680029F01208ACFDFA602F8C051C75
:0E057400C374808DF063F08095F050208A8271
:0C058200C003C00412030ED004D003AD6F
:04058E0027AE28AFBD
:06059200290DBD00010E61
:050598008D278E288F65
:03059D002980C1F1
:0605A00020040302065ACC
:0905A600C3EB9536400302065A2E
:0705AF00E536C39BF536ACF5
:0105B600360E
:0B05B7008C051C8C36ED70030206580A
:0C05C200758220C00412030ED00480E9F2
:0A05CE00E53424FDF88834860508A2
:0A05D800860608860718188D278E86
:0405E200288F29AD88
:0405E60029BD8000AB
:0605EA0040047A43801476
:0305F000BD6000EB
:0605F30040047A50800B69
:0305F900BD400002
:0605FC0040047A49800270
:020602007A5824
:0E0604008A82C00212030E75823A12030E752E
:0E061200823012030E75827812030ED002BAE7
:040620004902800B00
:05062400BA500280063F
:0606290085288212034D3A
:08062F0085278212034D802390
:07063700D20875350A801C92
:05063E0075350880176E
:0506430075350A80126C
:05064800753510800D66
:04064D00D20B800943
:070651008A8212030E8002F1
:020658008C36DE
:09065A00300B5AE53424FCF88849
:0C06630034860408860508860608860711
:08066F001818188C278D288E45
:04067700298F2A7528
:03067B0027F475EC
:03067E00280875D4
:020681002980CE
:04068300852738850A
:030687002839858A
:05068A00293A7401256E
:07068F0038FFE43539FCAD32
:040696003A8F278CE4
:04069A00288D2985F9
:06069E00388285398385D6
:0A06A4003AF01208ACFCFA700302F1
:0206AE0003BA8D
:0706B0008A8212030E80CCC8
:0706B700E53570030203BAF0
:0406BE00753712304A
:0706C200092BE53414F88850
:0A06C90034E6FD3395E0FEFFFC8DE2
:0406D300278E288FB7
:0406D700298C2A2020
:0A06DB00085EAC277D007E007F0062
:0506E5008C278D288E1A
:0506EA00298F2A804C5D
:0906EF00300A1FE53424FCF888F0
:0C06F8003486040886050886060886077C
:080704001818188C278D288EAF
:05070C00298F2A802A5C
:0A071100E53424FEF888348604085D
:0C071B00860518ED3395E0FEFF8C278D5D
:04072700288E298F60
:05072B002A20080CACBF
:0807300027AD287E007F008E3A
:03073800298F2ADC
:0A073B00300822E52A30E71BC3E472
:090745009527FCE49528FDE495DC
:07074E0029FEE4952AFF8C4F
:04075500278D288E36
:05075900298F2A800237
:02075E00C208CF
:06076000D20CA8377C005A
:0A076600752B00853582C004C00029
:0B077000120364D000D004200C0DE543
:0A077B002BC4FDE6FE4DF61888378A
:020785008002F0
:02078700A62B9F
:080789000C8C03B20CE52745BE
:040791002845294589
:080795002A70CE88378C03E5C1
:06079D0036700375360101
:0A07A300200524200421EB04FCAD26
:0107AD003615
:0E07AE00C3EC9D5015758220C003C004C00529
:0C07BC0012030ED005D004D0031D80E60F
:0207C8008D366C
:0C07CA0030080E75822DC00312030ED003
:0507D60003153680232D
:0C07DB00EB602030060E75822BC003126C
:0807E700030ED0031536800F4C
:0C07EF0030070C758220C00312030ED0EE
:0307FB00031536AD
:0507FE00200424AC36CC
:0B0803008C051C8C36C3EB9D502B3085
:06080E0005047D308002AC
:020814007D2045
:0E0816008D82C003C00412030ED004D00380F4
:01082400DEF5
:0A082500C3EB95365008E536C39B7F
:04082F00F536800713
:05083300753600800293
:020838008C36FC
:02083A00A837DD
:0A083C008B041BEC6026B20C200CAC
:0B0846000A08E6C4540FFC8C2B80074E
:070851008604740F5CF52B17
:0C085800852B82C003C000120334D000C6
:04086400D00380D469
:060868002004030203BAA4
:02086E00AB36A7
:090870008B041BEC70030203BAB7
:0C087900758220C00312030ED00380EB38
:080885008A8212030E0203BA7D
:07088D00852C82852D8322DA
:0B08F4003C4E4F20464C4F41543E004C
:04089400AA82AB8306
:080898001208AC6003A380F814
:0C08A000C3E5829AF582E5839BF5832274
:0300AB0075813A22
:0A00AE001208C8E58260030200A6F4
:0E08AC0020F71430F6148883A88220F507E6A2
:0608BA00A88375830022F3
:0308C000E280F7DC
:0308C300E4932299
:0208C600E0222E
:0408C8007582002213
:00000001FF
