:040000000200333295
:01000B0032C2
:0100130032BA
:01001B0032B2
:0100230032AA
:03002B000202DFEF
:06008C00E4F508F509751A
:070092000A0DE4F50BE4F593
:030099000CF50D56
:03009C0002002E31
:05002E001200B280FE8B
:02009F00AA8233
:0500A10010990280FB34
:0300A6008A992212
:0500A90010980280FB2D
:0400AE00859982228C
:0E00B200E58475FFDE75FFAD12026A1202B81A
:0700C0001202A812028D12CA
:0A00C70002CE75840074FFC0E074DF
:0C00D10008C0E07480C0E0120319158123
:0A00DD001581158174FFC0E074085E
:0E00E700C0E07480C0E0120319158115811568
:0A00F500817404C0E07409C0E074D7
:0D00FF0080C0E01203191581158115817470
:0A010C000CC0E07409C0E07480C06C
:0A011600E01203191581158115810F
:0E0120003098FDAA99AB84758400C2FAC2FF24
:02012E008A9BAA
:0E01300030FFFDD2FA8A82C002C003120173B2
:0A013E00D003D002C298E4F50CF5DE
:010148000DA9
:0A014900C3E50C9430E50D648094CA
:05015300F540F3C2FAC3
:0501580010FF0280FB16
:02015D008A9B7B
:0E015F0030FFFDD2FAAA9B8A82C0031201F47F
:06016D00D0038B8480AD7D
:0C017300AA82AB84758400C3E508940CDC
:0A017F00E50964809480500A050829
:08018900E4B508210509801D01
:0A019100C002C003745DC0E07409F1
:0E019B00C0E07480C0E01203191581158115B3
:0501A90081D003D0022B
:0901AE00C002C003C008C00974BE
:0A01B70065C0E07409C0E07480C068
:0E01C100E0120319E58124FBF581D003D00282
:0C01CF00EA3395E0FCC003C002C00474D9
:0A01DB006DC0E07409C0E07480C03C
:0E01E500E0120319E58124FBF581D0038B8421
:0101F30022E9
:0C01F400AA82E584758400C3E50A941912
:0A020000E50B64809480500A050AA3
:08020A00E4B50A1D050B801983
:0A021200C0027470C0E07409C0E07F
:0E021C007480C0E0120319158115811581D080
:01022A0002D1
:07022B00C002C00AC00B7401
:0A02320065C0E07409C0E07480C0EC
:0E023C00E0120319E58124FBF581D002EA33BC
:0C024A0095E0FBC002C003746DC0E074BE
:0C02560009C0E07480C0E0120319E581CB
:0802620024FBF5818584842250
:0C026A00AA8475840F758C677BB87C0B30
:050276001BBBFF011C91
:04027B00EB4C70F7E1
:0E027F00E58C30E7FB759701758A008A8422B2
:0E028D00AA8475840FD2AFD2AD43A43553A41A
:0D029B00F54380CA75E10675E3408A8422B0
:0E02A800AA84758400759850759105D2998AC4
:0202B6008422A0
:0E02B800AA8475840075C80475C90875CA70DB
:0802C60075CBFFD2CA8A842225
:0E02CE00AA84758400759A4075F809759D150F
:0302DC008A8422EF
:0C02DF00C0E0C0D075D000C2CF050CE418
:0502EB00B50C02050D39
:0502F000D0D0D0E03287
:0508FF001B5B324A0002
:080904001B5B31333B3048005E
:0E090C002D2D2D2D2D2D2D2D2D2D2D2D2D2D67
:0E091A002D2D2D2D2D2D2D2D2D2D2D2D2D2D59
:0E0928002D2D2D2D2D2D2D2D2D2D2D2D2D2D4B
:0E0936002D2D2D2D2D2D2D2D2D2D2D2D2D2D3D
:0E0944002D2D2D2D2D2D2D2D2D2D2D2D2D2D2F
:0B0952002D2D2D2D2D2D2D2D2D2D00D8
:08095D001B5B313B31327200DB
:080965001B5B25643B304800D8
:03096D00256300FF
:090970001B5B31343B323572008F
:06006200E478FFF6D8FD72
:080040007900E94400601B7A1D
:0500480000900984781E
:03004D000075A299
:0A00500000E493F2A308B8000205D3
:08005A00A2D9F4DAF275A2FF4D
:080068007800E84400600A7909
:030070000075A276
:0600730000E4F309D8FCD3
:080079007800E84400600C79F6
:0B00810000900000E4F0A3D8FCD9FAC6
:0602F500C00F85810F120D
:0502FB00009FD00F225E
:0803000085823185833285F00E
:0503080033E4F52EF5C1
:04030D002FF5308513
:030311000E349017
:0503140002F50203D90F
:06031900C00F85810FE515
:07031F000F24FBF534E4F5A7
:040326002EF52FF58C
:07032A0030E50F24FBF8860B
:0603310031088632088647
:05033700339002F512F5
:05033C0003D9D00F22DF
:07034100AA82C024C025C000
:06034800267458C0E074A9
:06034E0003C0E0C022C064
:04035400238A822254
:0A035800158115811581052CE4B50F
:040362002C02052D37
:010366002274
:0E036700AA8274302AFA24C6500A74072AFAB1
:06037500300003430220EA
:05037B008A820203412B
:0E038000E582FAC4540FF582C002120367D062
:09038E0002740F5AF582020367A4
:06039700858210AB27ACCB
:04039D0028AD29AEB0
:0403A1002AAF2B75DF
:0203A500112025
:0E03A700EF2FFFEE235401FA4207EB2BFBEC85
:0C03B50033FCED33FDEE33FEC3EF95107A
:0A03C1004008EFC39510FF4303014D
:0603CB00D511D98B278C2F
:0403D100288D298EBC
:0403D5002A8F2B221E
:0703D9008582228583238544
:0303E0002E248543
:0303E3002F25853E
:0403E6003026E4F5E4
:0303EA002CF52DC2
:0503ED00AA31AB32ACA7
:0C03F200338A828B838CF01208DFFD74CC
:0903FE00012AF531E43BF5328CD3
:0804070033EDFA70030208C096
:05040F00BA2502800384
:030414000208B823
:05041700C201C202C297
:04041C0003C204C251
:0404200005C206C249
:0404240007C208758E
:0804280035007536007DFFAEC2
:0404300031AF32AB0B
:010434003394
:0E0435008E828F838BF01208DFFAA3AE82AFA7
:06044300838E318F328B25
:0B04490033BA25078A82120341809914
:050454008A04BC300029
:0D045900402A8A04EC24C64023BDFF13E5B1
:0B0466003675F00AA4FCEA24D02CF547
:070471003670C1D20280BD0C
:0D047800ED75F00AA4FCEA24D02CFD80B044
:0A048500BA2E07BDFFAA7D0080A675
:05048F008A04BC6100BD
:0D049400400E8A04EC248540075302DFD29D
:0304A100008002D6
:0204A400C20094
:0504A600BA20028055A0
:0504AB00BA2B02804B9A
:0504B000BA2D0280419D
:0504B500BA4202804B79
:0504BA00BA430280506E
:0604BF00BA440302066AC4
:0604C500BA4603020680A6
:0604CB00BA490302066AB3
:0504D100BA4C0280346A
:0604D600BA4F030206719B
:0604DC00BA500302060104
:0504E200BA5302804C3A
:0604E700BA55030206767F
:0604ED00BA580302067B71
:0304F3000206847A
:0504F600D201020435F3
:0504FB00D203020435EC
:05050000D204020435E5
:05050500D206020435DE
:05050A00D207020435D8
:08050F0030060AE53414F888F7
:05051700348602800F94
:0A051C00E53424FEF8883486030855
:050526008604188B02A1
:08052B008A8212034102068DD1
:0A053300E53424FDF888348603083F
:0A053D00860408860618188B278C28
:04054700288E29854C
:06054B002782852883854C
:0C05510029F0C0051208C7AB82AC83D0B3
:06055D0005BDFF028B0545
:0A05630020012CC3EB95365026E56D
:06056D0036C39BF536AC1D
:010573003651
:0C0574008C061C8C36EE6014758220C0D2
:0E05800003C004C005120341D005D004D0030F
:02058E0080E407
:020590008C36A7
:020592008D04D6
:07059400852782852883857D
:0C059B0029F01208DFFDFA602F8C051C0F
:0E05A700C374808DF063F08095F050208A823E
:0C05B500C003C004120341D004D003AD09
:0405C10027AE28AF8A
:0605C500290DBD00010E2E
:0505CB008D278E288F32
:0305D0002980C1BE
:0605D30020010302068D69
:0905D900C3EB9536400302068DC8
:0705E200E536C39BF536ACC2
:0105E90036DB
:0B05EA008C051C8C36ED700302068BA4
:0C05F500758220C004120341D00480E98C
:0A060100E53424FDF888348605086E
:0A060B00860608860718188D278E52
:04061500288F29AD54
:0406190029BD800077
:06061D0040047A43801442
:03062300BD6000B7
:0606260040047A50800B35
:03062C00BD4000CE
:06062F0040047A4980023C
:020635007A58F1
:0E0637008A82C00212034175823A1203417595
:0E0645008230120341758278120341D002BA4E
:040653004902800BCD
:05065700BA500280060C
:06065C00852882120380D4
:0806620085278212038080232A
:07066A00D20575350A801C62
:0506710075350880173B
:0506760075350A801239
:05067B00753510800D33
:04068000D208800913
:070684008A8212034180028B
:02068B008C36AB
:09068D0030085AE53424FCF88819
:0C069600348604088605088606088607DE
:0806A2001818188C278D288E12
:0406AA00298F2A75F5
:0306AE0027797534
:0306B100280975A0
:0206B40029809B
:0406B60085273885D7
:0306BA0028398557
:0506BD00293A7401253B
:0706C20038FFE43539FCADFF
:0406C9003A8F278CB1
:0406CD00288D2985C6
:0606D100388285398385A3
:0A06D7003AF01208DFFCFA7003028B
:0206E10003ED27
:0706E3008A8212034180CC62
:0706EA00E53570030203ED8A
:0406F1007537173012
:0706F500062BE53414F88820
:0A06FC0034E6FD3395E0FEFFFC8DAF
:04070600278E288F83
:04070A00298C2A20EC
:0A070E00055EAC277D007E007F0031
:050718008C278D288EE6
:05071D00298F2A804C29
:0907220030071FE53424FCF888BF
:0C072B0034860408860508860608860748
:080737001818188C278D288E7C
:05073F00298F2A802A29
:0A074400E53424FEF888348604082A
:0C074E00860518ED3395E0FEFF8C278D2A
:04075A00288E298F2D
:05075E002A20050CAC8F
:0807630027AD287E007F008E07
:03076B00298F2AA9
:0A076E00300522E52A30E71BC3E442
:090778009527FCE49528FDE495A9
:0707810029FEE4952AFF8C1C
:04078800278D288E03
:05078C00298F2A800204
:02079100C2059F
:06079300D209A8377C002A
:0A079900752B00853582C004C000F6
:0B07A300120397D000D00420090DE5E0
:0A07AE002BC4FDE6FE4DF618883757
:0207B8008002BD
:0207BA00A62B6C
:0807BC000C8C03B209E527458E
:0407C4002845294556
:0807C8002A70CE88378C03E58E
:0607D000367003753601CE
:0A07D600200224200121EB04FCADF9
:0107E00036E2
:0E07E100C3EC9D5015758220C003C004C005F6
:0C07EF00120341D005D004D0031D80E6A9
:0207FB008D3639
:0C07FD0030050E75822DC003120341D0A0
:050809000315368023F9
:0C080E00EB602030030E75822BC003123B
:08081A000341D0031536800FE5
:0C08220030040C758220C003120341D08A
:03082E0003153679
:05083100200124AC369B
:0B0836008C051C8C36C3EB9D502B3052
:0608410002047D3080027C
:020847007D2012
:0E0849008D82C003C004120341D004D003808E
:01085700DEC2
:0A085800C3EB95365008E536C39B4C
:04086200F5368007E0
:05086600753600800260
:02086B008C36C9
:02086D00A837AA
:0A086F008B041BEC6026B20920097F
:0B0879000A08E6C4540FFC8C2B80071B
:070884008604740F5CF52BE4
:0C088B00852B82C003C000120367D00060
:04089700D00380D436
:06089B002001030203ED41
:0208A100AB3674
:0908A3008B041BEC70030203ED51
:0C08AC00758220C003120341D00380EBD2
:0808B8008A821203410203EDE4
:0708C000852C82852D8322A7
:0B0979003C4E4F20464C4F41543E00C6
:0408C700AA82AB83D3
:0808CB001208DF6003A380F8AE
:0C08D300C3E5829AF582E5839BF5832241
:0300330075813A9A
:0A0036001208FBE582600302002EB1
:0E08DF0020F71430F6148883A88220F507E66F
:0608ED00A88375830022C0
:0308F300E280F7A9
:0308F600E4932266
:0208F900E022FB
:0408FB0075820022E0
:00000001FF
