:040000000200AB321D
:01000B0032C2
:0100130032BA
:01001B0032B2
:030023000202AF27
:01002B0032A2
:01003300329A
:01003B003292
:01004300328A
:01004B003282
:01005300327A
:01005B003272
:01006300326A
:01006B003262
:01007300325A
:01007B003252
:01008300324A
:01008B003242
:01009300323A
:01009B003232
:0300A3000202BA9C
:04010400C200C20172
:030108000200A64C
:0500A60012011E80FEA6
:02010B00AA82C6
:05010D0010990280FBC7
:030112008A9922A5
:0501150010980280FBC0
:04011A00859982221F
:0D011E0075FFDE75FFAD12022D1202851275
:09012B00026A120250758400748E
:0A013400CFC0E07408C0E07480C082
:0C013E00E01202E915811581158174D4CE
:0B014A00C0E07408C0E07480C0E01248
:0C01550002E91581158115817584017483
:0A016100CFC0E07408C0E07480C055
:0C016B00E01202E915811581158174E590
:0B017700C0E07408C0E07480C0E0121B
:0B01820002E9158115811581758400CC
:0A018D0030015675840174F4C0E0DF
:0C0197007408C0E07480C0E01202E9159A
:0E01A3008115811581E599FB3395E0FCC003C1
:0B01B100C004C003C00474F7C0E07479
:0C01BC0008C0E07480C0E01202E9E58198
:0C01C80024FBF58175840074F7C0E0741E
:0C01D40008C0E07480C0E01202E9E58180
:0601E00024FBF581C201C1
:0C01E6003000A4758400E599FA3395E020
:0C01F200FBC002C003C002C00374F7C0D1
:0C01FE00E07408C0E07480C0E01202E968
:0C020A00E58124FBF58175840174F7C0C8
:0C021600E07408C0E07480C0E01202E94F
:0B022200E58124FBF581C20002018D84
:0C022D00AA8475840F758C677BB87C0B6D
:050239001BBBFF011CCE
:04023E00EB4C70F71E
:0E024200E58C30E7FB759701758A008A8422EF
:0E025000AA8475840FD2AFD2ADD2AB75A405CF
:0C025E0053800575E10475E3448A842296
:0E026A00AA84758400759850759105D2997517
:0D0278008401759810D29943E7408A8422D2
:0E028500AA8475840075884053890F43892030
:0E029300438E10758DA0D28E75840075C80440
:0E02A10075C90875CA7075CBFFD2CA8A84224F
:0A02AF00758400309804D200C29854
:0102B9003212
:0A02BA00758401309804D201C29847
:0102C4003207
:0508CF001B5B324A0032
:0E08D4004920616D205541525430203D5B0A91
:0308E2000A0D00FC
:0E08E5004920616D2055415254312E0A0A0DF2
:0108F3000004
:0308F40068690030
:0308F70025630076
:0600DA00E478FFF6D8FDFA
:0800B8007900E94400601B7AA5
:0500C000009009057825
:0300C5000075A221
:0A00C80000E493F2A308B80002055B
:0800D200A2D9F4DAF275A2FFD5
:0800E0007800E84400600A7991
:0300E8000075A2FE
:0600EB0000E4F309D8FC5B
:0800F1007800E84400600C797E
:0B00F90000900000E4F0A3D8FCD9FA4E
:0602C500C00A85810A1247
:0502CB00010BD00A2226
:0802D00085823185833285F03F
:0502D80033E4F52EF5F2
:0402DD002FF5308544
:0302E1000934904D
:0502E40002C50203A9A0
:0602E900C00A85810AE550
:0702EF000A24FBF534E4F5DD
:0402F6002EF52FF5BD
:0702FA0030E50A24FBF88641
:0603010031088632088677
:05030700339002C51255
:05030C0003A9D00A2244
:07031100AA82C024C025C030
:06031800267428C0E07409
:06031E0003C0E0C022C094
:04032400238A822284
:0A032800158115811581052CE4B53F
:040332002C02052D67
:0103360022A4
:0E033700AA8274302AFA24C6500A74072AFAE1
:0603450030020343022018
:05034B008A820203118B
:0E035000E582FAC4540FF582C002120337D0C2
:09035E0002740F5AF58202033704
:0603670085820BAB27AC00
:04036D0028AD29AEE0
:040371002AAF2B750F
:020375000C205A
:0E037700EF2FFFEE235401FA4207EB2BFBECB5
:0C03850033FCED33FDEE33FEC3EF950BAF
:0A0391004008EFC3950BFF43030182
:06039B00D50CD98B278C64
:0403A100288D298EEC
:0403A5002A8F2B224E
:0703A9008582228583238574
:0303B0002E248573
:0303B3002F25856E
:0403B6003026E4F514
:0303BA002CF52DF2
:0503BD00AA31AB32ACD7
:0C03C200338A828B838CF01208AFFD742C
:0903CE00012AF531E43BF5328C03
:0803D70033EDFA7003020890F7
:0503DF00BA25028003B5
:0303E40002088884
:0503E700C203C204C2C4
:0403EC0005C206C27E
:0403F00007C208C276
:0403F40009C20A75BB
:0803F80035007536007DFFAEF3
:0404000031AF32AB3B
:0104040033C4
:0E0405008E828F838BF01208AFFAA3AE82AF07
:06041300838E318F328B55
:0B04190033BA25078A82120311809974
:050424008A04BC300059
:0D042900402A8A04EC24C64023BDFF13E5E1
:0B0436003675F00AA4FCEA24D02CF577
:070441003670C1D20480BD3A
:0D044800ED75F00AA4FCEA24D02CFD80B074
:0A045500BA2E07BDFFAA7D0080A6A5
:05045F008A04BC6100ED
:0D046400400E8A04EC248540075302DFD2CD
:0304710002800204
:02047400C202C2
:05047600BA20028055D0
:05047B00BA2B02804BCA
:05048000BA2D028041CD
:05048500BA4202804BA9
:05048A00BA430280509E
:06048F00BA440302063A24
:06049500BA460302065006
:06049B00BA490302063A13
:0504A100BA4C0280349A
:0604A600BA4F03020641FB
:0604AC00BA50030205D165
:0504B200BA5302804C6A
:0604B700BA5503020646DF
:0604BD00BA580302064BD1
:0304C300020654DA
:0504C600D20302040551
:0504CB00D2050204054A
:0504D000D20602040544
:0504D500D2080204053D
:0504DA00D20902040537
:0804DF0030080AE53414F88826
:0504E700348602800FC5
:0A04EC00E53424FEF8883486030886
:0504F6008604188B02D2
:0804FB008A8212031102065D62
:0A050300E53424FDF888348603086F
:0A050D00860408860618188B278C58
:04051700288E29857C
:06051B002782852883857C
:0C05210029F0C005120897AB82AC83D013
:06052D0005BDFF028B0575
:0A05330020032CC3EB95365026E59B
:06053D0036C39BF536AC4D
:010543003681
:0C0544008C061C8C36EE6014758220C002
:0E05500003C004C005120311D005D004D0036F
:02055E0080E437
:020560008C36D7
:020562008D0406
:0705640085278285288385AD
:0C056B0029F01208AFFDFA602F8C051C6F
:0E057700C374808DF063F08095F050208A826E
:0C058500C003C004120311D004D003AD69
:0405910027AE28AFBA
:06059500290DBD00010E5E
:05059B008D278E288F62
:0305A0002980C1EE
:0605A30020030302065DC7
:0905A900C3EB9536400302065D28
:0705B200E536C39BF536ACF2
:0105B900360B
:0B05BA008C051C8C36ED700302065B04
:0C05C500758220C004120311D00480E9EC
:0A05D100E53424FDF888348605089F
:0A05DB00860608860718188D278E83
:0405E500288F29AD85
:0405E90029BD8000A8
:0605ED0040047A43801473
:0305F300BD6000E8
:0605F60040047A50800B66
:0305FC00BD4000FF
:0605FF0040047A4980026D
:020605007A5821
:0E0607008A82C00212031175823A1203117525
:0E0615008230120311758278120311D002BADE
:040623004902800BFD
:05062700BA500280063C
:06062C0085288212035034
:0806320085278212035080238A
:07063A00D20775350A801C90
:0506410075350880176B
:0506460075350A801269
:05064B00753510800D63
:04065000D20A800941
:070654008A821203118002EB
:02065B008C36DB
:09065D00300A5AE53424FCF88847
:0C0666003486040886050886060886070E
:080672001818188C278D288E42
:04067A00298F2A7525
:03067E0027FA75E3
:03068100280875D1
:020684002980CB
:040686008527388507
:03068A0028398587
:05068D00293A7401256B
:0706920038FFE43539FCAD2F
:040699003A8F278CE1
:04069D00288D2985F6
:0606A100388285398385D3
:0A06A7003AF01208AFFCFA700302EB
:0206B10003BD87
:0706B3008A8212031180CCC2
:0706BA00E53570030203BDEA
:0406C1007537123047
:0706C500082BE53414F8884E
:0A06CC0034E6FD3395E0FEFFFC8DDF
:0406D600278E288FB4
:0406DA00298C2A201D
:0A06DE00075EAC277D007E007F0060
:0506E8008C278D288E17
:0506ED00298F2A804C5A
:0906F20030091FE53424FCF888EE
:0C06FB0034860408860508860608860779
:080707001818188C278D288EAC
:05070F00298F2A802A59
:0A071400E53424FEF888348604085A
:0C071E00860518ED3395E0FEFF8C278D5A
:04072A00288E298F5D
:05072E002A20070CACBD
:0807330027AD287E007F008E37
:03073B00298F2AD9
:0A073E00300722E52A30E71BC3E470
:090748009527FCE49528FDE495D9
:0707510029FEE4952AFF8C4C
:04075800278D288E33
:05075C00298F2A800234
:02076100C207CD
:06076300D20BA8377C0058
:0A076900752B00853582C004C00026
:0B077300120367D000D004200B0DE53E
:0A077E002BC4FDE6FE4DF618883787
:020788008002ED
:02078A00A62B9C
:08078C000C8C03B20BE52745BC
:040794002845294586
:080798002A70CE88378C03E5BE
:0607A000367003753601FE
:0A07A600200424200321EB04FCAD25
:0107B0003612
:0E07B100C3EC9D5015758220C003C004C00526
:0C07BF00120311D005D004D0031D80E609
:0207CB008D3669
:0C07CD0030070E75822DC003120311D0FE
:0507D90003153680232A
:0C07DE00EB602030050E75822BC003126A
:0807EA000311D0031536800F46
:0C07F20030060C758220C003120311D0E9
:0307FE00031536AA
:05080100200324AC36C9
:0B0806008C051C8C36C3EB9D502B3082
:0608110004047D308002AA
:020817007D2042
:0E0819008D82C003C004120311D004D00380EE
:01082700DEF2
:0A082800C3EB95365008E536C39B7C
:04083200F536800710
:05083600753600800290
:02083B008C36F9
:02083D00A837DA
:0A083F008B041BEC6026B20B200BAB
:0B0849000A08E6C4540FFC8C2B80074B
:070854008604740F5CF52B14
:0C085B00852B82C003C000120337D000C0
:04086700D00380D466
:06086B002003030203BD9F
:02087100AB36A4
:090873008B041BEC70030203BDB1
:0C087C00758220C003120311D00380EB32
:080888008A821203110203BD74
:07089000852C82852D8322D7
:0B08FA003C4E4F20464C4F41543E0046
:04089700AA82AB8303
:08089B001208AF6003A380F80E
:0C08A300C3E5829AF582E5839BF5832271
:0300AB0075813A22
:0A00AE001208CBE58260030200A6F1
:0E08AF0020F71430F6148883A88220F507E69F
:0608BD00A88375830022F0
:0308C300E280F7D9
:0308C600E4932296
:0208C900E0222B
:0408CB007582002210
:00000001FF
