:040000000200333295
:01000B0032C2
:0100130032BA
:01001B0032B2
:0100230032AA
:03002B000201AA25
:05008C00E4F508F50990
:0300910002002E3C
:05002E001200A780FE96
:02009400AA823E
:0500960010990280FB3F
:03009B008A99221D
:05009E0010980280FB38
:0400A3008599822297
:0D00A70075FFDE75FFAD12011712017D120D
:0600B400015212013A1294
:0A00BA0001737584007413C0E07434
:0C00C40008C0E07480C0E012022D15811D
:0A00D000158115817418C0E0740852
:0E00DA00C0E07480C0E012022D158115811562
:0A00E800817584017413C0E07408F0
:0E00F200C0E07480C0E012022D15811581154A
:0A010000817429C0E07408C0E074A7
:0D010A0080C0E012022D15811581158122A3
:0C011700AA8475840F758C677BB87C0B84
:050123001BBBFF011CE5
:04012800EB4C70F735
:0E012C00E58C30E7FB759701758A008A842206
:0E013A00AA8475840FD2AFD2AD75A441538054
:0A014800BE75E10475E3408A8422CD
:0E015200AA84758400759850759105D2997530
:0801600084017598508A842285
:0B016800AA8475840075F8058A8422C3
:0A01730075A8B075E60875E7402294
:0E017D00AA8475840075884053890F43892039
:0E018B00758920438E10758DFA75840075C835
:0E0199000475C90875CA7075CBFFD28ED2CA24
:0301A7008A842225
:0C01AA00C022C0E0C0F0C082C083C002D0
:0E01B600C003C004C005C006C007C000C001E1
:0A01C400C0D075D0000508E4B508AE
:0301CE000205091E
:0501D100C008C0097424
:0A01D60038C0E07408C0E07480C077
:0E01E000E012022DE58124FBF581C2CFD0D0C4
:0E01EE00D001D000D007D006D005D004D00339
:0C01FC00D002D083D082D0F0D0E0D0221E
:0102080032C3
:050813001B5B324A00EE
:0E0818004920616D205541525430203A440A67
:030826000A0D00B8
:0E0829004920616D2055415254312E0A0A0DAE
:0108370000C0
:0508380025640A0D001B
:06006200E478FFF6D8FD72
:080040007900E94400601B7A1D
:0500480000900848785B
:03004D000075A299
:0A00500000E493F2A308B8000205D3
:08005A00A2D9F4DAF275A2FF4D
:080068007800E84400600A7909
:030070000075A276
:0600730000E4F309D8FCD3
:080079007800E84400600C79F6
:0B00810000900000E4F0A3D8FCD9FAC6
:06020900C00B85810B1201
:05020F000094D00B2259
:0802140085823285833385F0F9
:05021C0034E4F52FF5AC
:0402210030F53185FE
:030225000A359007
:0502280002090202EDD5
:06022D00C00B85810BE50A
:070233000B24FBF535E4F597
:04023A002FF530F577
:07023E0031E50B24FBF886FB
:0602450032088633088632
:05024B003490020912CD
:0502500002EDD00B22BD
:07025500AA82C025C026C0EB
:06025C0027746CC0E07481
:0602620002C0E0C023C051
:04026800248A822240
:0A026C00158115811581052DE4B5FB
:040276002D02052E22
:01027A002261
:0E027B00AA8274302AFA24C6500A74072AFA9E
:06028900300003430220D7
:05028F008A8202025505
:0E029400E582FAC4540FF582C00212027BD03C
:0902A20002740F5AF58202027B7E
:0602AB0085820CAB28ACBB
:0402B10029AD2AAE9B
:0402B5002BAF2C75CA
:0202B9000D2016
:0E02BB00EF2FFFEE235401FA4207EB2BFBEC72
:0C02C90033FCED33FDEE33FEC3EF950C6B
:0A02D5004008EFC3950CFF4303013E
:0602DF00D50DD98B288C1F
:0402E500298D2A8EA7
:0402E9002B8F2C2209
:0702ED00858223858324852F
:0302F4002F25852E
:0302F70030268529
:0402FA003127E4F5CF
:0302FE002DF52EAD
:05030100AA32AB33AC91
:0C030600348A828B838CF01207F3FD74A4
:09031200012AF532E43BF5338CBD
:08031B0034EDFA70030207D46F
:05032300BA2502800371
:030328000207CCFD
:05032B00C201C202C284
:0403300003C204C23E
:0403340005C206C236
:0403380007C208757B
:08033C0036007537007DFFAEAD
:0403440032AF33ABF6
:010348003480
:0E0349008E828F838BF01207F3FAA3AE82AF81
:06035700838E328F338B10
:0B035D0034BA25078A821202558099ED
:050368008A04BC300016
:0D036D00402A8A04EC24C64023BDFF13E59E
:0B037A003775F00AA4FCEA24D02CF533
:070385003770C1D20280BDF8
:0D038C00ED75F00AA4FCEA24D02CFD80B031
:0A039900BA2E07BDFFAA7D0080A662
:0503A3008A04BC6100AA
:0D03A800400E8A04EC248540075302DFD28A
:0303B500008002C3
:0203B800C20081
:0503BA00BA200280558D
:0503BF00BA2B02804B87
:0503C400BA2D0280418A
:0503C900BA4202804B66
:0503CE00BA430280505B
:0603D300BA440302057E9E
:0603D900BA460302059480
:0603DF00BA490302057E8D
:0503E500BA4C02803457
:0603EA00BA4F0302058575
:0603F000BA5003020515DE
:0503F600BA5302804C27
:0603FB00BA550302058A59
:06040100BA580302058F4A
:0304070002059853
:05040A00D201020349CC
:05040F00D203020349C5
:05041400D204020349BF
:05041900D206020349B8
:05041E00D207020349B2
:0804230030060AE53514F888E3
:05042B00358602800F80
:0A043000E53524FEF8883586030840
:05043A008604188B028E
:08043F008A821202550205A198
:0A044700E53524FDF888358603082A
:0A045100860408860618188B288C14
:04045B00298E2A8537
:06045F0028828529838537
:0C0465002AF0C0051207DBAB82AC83D08C
:0604710005BDFF028B0532
:0A04770020012CC3EB95375026E559
:0604810037C39BF537AC08
:01048700373D
:0C0488008C061C8C37EE6014758220C0BE
:0E04940003C004C005120255D005D004D003E9
:0204A20080E4F4
:0204A4008C3793
:0204A6008D04C3
:0704A8008528828529838568
:0C04AF002AF01207F3FDFA602F8C051CE8
:0E04BB00C374808DF063F08095F050208A822B
:0C04C900C003C004120255D004D003ADE3
:0404D50028AE29AF75
:0604D9002A0DBD00010E1A
:0504DF008D288E298F1D
:0304E4002A80C1AA
:0604E7002001030205A143
:0904ED00C3EB953740030205A1A1
:0704F600E537C39BF537ACAD
:0104FD0037C7
:0B04FE008C051C8C37ED700302059F7D
:0C050900758220C004120255D00480E965
:0A051500E53524FDF8883586050859
:0A051F00860608860718188D288E3E
:04052900298F2AAD3F
:04052D002ABD800063
:0605310040047A4380142F
:03053700BD6000A4
:06053A0040047A50800B22
:03054000BD4000BB
:0605430040047A49800229
:020549007A58DE
:0E054B008A82C00212025575823A120255755C
:0E0559008230120255758278120255D002BA15
:040567004902800BBA
:05056B00BA50028006F9
:06057000852982120294AD
:08057600852882120294802303
:07057E00D20575360A801C4E
:05058500753608801727
:05058A0075360A801225
:05058F00753610800D1F
:04059400D208800900
:070598008A82120255800265
:02059F008C3797
:0905A10030085AE53524FCF88805
:0C05AA00358604088605088606088607CA
:0805B6001818188C288D298EFD
:0405BE002A8F2B75E0
:0305C200283D755C
:0305C5002908758D
:0205C8002A8087
:0405CA0085283985C2
:0305CE00293A8542
:0505D1002A3B74012526
:0705D60039FFE4353AFCADEA
:0405DD003B8F288C9C
:0405E100298D2A85B1
:0605E5003982853A83858E
:0A05EB003BF01207F3FCFA70030264
:0205F500030100
:0705F7008A8212025580CC3C
:0705FE00E536700302030162
:040605007538133001
:07060900062BE53514F8880B
:0A06100035E6FD3395E0FEFFFC8D9A
:04061A00288E298F6E
:04061E002A8C2B20D7
:0A062200055EAC287D007E007F001D
:05062C008C288D298ED1
:050631002A8F2B804C14
:0906360030071FE53524FCF888AB
:0C063F0035860408860508860608860734
:08064B001818188C288D298E67
:050653002A8F2B802A14
:0A065800E53524FEF8883586040815
:0C066200860518ED3395E0FEFF8C288D16
:04066E00298E2A8F18
:050672002B20050CAC7B
:0806770028AD297E007F008EF2
:03067F002A8F2B94
:0A068200300522E52B30E71BC3E42E
:09068C009528FCE49529FDE49594
:070695002AFEE4952BFF8C07
:04069C00288D298EEE
:0506A0002A8F2B8002EF
:0206A500C2058C
:0606A700D209A8387C0016
:0A06AD00752C00853682C004C000E1
:0B06B7001202ABD000D00420090DE5BA
:0A06C2002CC4FDE6FE4DF618883842
:0206CC008002AA
:0206CE00A62C58
:0806D0000C8C03B209E528457A
:0406D80029452A4541
:0806DC002B70CE88388C03E579
:0606E400377003753701B9
:0A06EA00200224200121EB04FCADE6
:0106F40037CE
:0E06F500C3EC9D5015758220C003C004C005E3
:0C070300120255D005D004D0031D80E682
:02070F008D3724
:0C07110030050E75822DC003120255D079
:05071D000315378023E5
:0C072200EB602030030E75822BC0031228
:08072E000255D0031537800FBE
:0C07360030040C758220C003120255D064
:0307420003153765
:05074500200124AC3787
:0B074A008C051C8C37C3EB9D502B303E
:0607550002047D30800269
:02075B007D20FF
:0E075D008D82C003C004120255D004D0038068
:01076B00DEAF
:0A076C00C3EB95375008E537C39B37
:04077600F5378007CC
:05077A0075370080024C
:02077F008C37B5
:02078100A83896
:0A0783008B041BEC6026B20920096C
:0B078D000A08E6C4540FFC8C2C800707
:070798008604740F5CF52CD0
:0C079F00852C82C003C00012027BD00039
:0407AB00D00380D423
:0607AF002001030203011A
:0207B500AB3760
:0907B7008B041BEC70030203012A
:0C07C000758220C003120255D00380EBAC
:0807CC008A82120255020301AA
:0707D400852D82852E832292
:0B083D003C4E4F20464C4F41543E0003
:0407DB00AA82AB83C0
:0807DF001207F36003A380F888
:0C07E700C3E5829AF582E5839BF583222E
:0300330075813B99
:0A00360012080FE582600302002E9D
:0E07F30020F71430F6148883A88220F507E65C
:06080100A88375830022AC
:03080700E280F795
:03080A00E4932252
:02080D00E022E7
:04080F0075820022CC
:00000001FF
