:0400000002001332B5
:03000B0002010BE4
:07006C00E4F508F509E4F5D5
:040073000AF50BC2BD
:010077000088
:0300780002000E75
:05000E0012008E80FECF
:02007B00AA8257
:05007D0010990280FB58
:030082008A992236
:0500850010980280FB51
:04008A0085998222B0
:0D008E0075FFDE75FFAD1201411201BE12BB
:0E009B0001D3758400D28875840FD2A87584B5
:0A00A900007401C0E07408C0E074A8
:0D00B30080C0E012021B158115811581121D
:0900C00000F9D28C7406C0E07452
:0C00C90008C0E07480C0E012021B15812A
:0400D50015811581FB
:0600D9003000FDC00AC06A
:0600DF000B7419C0E0746F
:0C00E50008C0E07480C0E012021BE5813E
:0800F10024FBF581C20080E050
:0E00F900538EF65389F0438901C28C758A003C
:04010700758C0022D1
:0E010B00C0E0C0D075D000758CEA758A6674AD
:0A01190064B50806E4B5090280028F
:02012300800F4B
:07012500050AE4B50A02051A
:01012C000BC7
:06012D00D200E4F508F524
:0101330009C2
:070134000508E4B50802050F
:01013B0009BA
:05013C00D0D0D0E0323C
:0C014100AA8475840F758C677BB87C0B5A
:05014D001BBBFF011CBB
:04015200EB4C70F70B
:0E015600E58C30E7FB759701758A008A8422DC
:0E016400AA8475840F758C677BB87C0B8B05A5
:020172008C06F9
:050174001DBDFF011E8E
:04017900ED4E70F7E0
:0E017D00E58C30E7FB759701758A0075840FDD
:0E018B0075890475840075B71075840F43895B
:0E01990001758D04758F01758E097B007C0148
:0501A7001BBBFF011C61
:0701AC00EB4C70F7438902E0
:0B01B300E58930E4FB7597028A842286
:0E01BE00AA8475840FD2AFD2A975E10475E250
:0701CC000475E3408A842260
:0E01D300AA8475840075884053890F438920E3
:0E01E100438E10758DE8D28E7584007598508F
:0801EF00759100D2998A842267
:050801001B5B324A0000
:0E0806004920616D2072756E6E696E67203A32
:0508140044200A0D0064
:0C08190054696D65203D2025640A0D0027
:06004200E478FFF6D8FD92
:080020007900E94400601B7A3D
:05002800009008307893
:03002D000075A2B9
:0A00300000E493F2A308B8000205F3
:08003A00A2D9F4DAF275A2FF6D
:080048007800E84400600A7929
:030050000075A296
:0600530000E4F309D8FCF3
:080059007800E84400600C7916
:0B00610000900000E4F0A3D8FCD9FAE6
:0601F700C00D85810D1210
:0501FD00007BD00D2283
:0802020085823185833285F00D
:05020A0033E4F52EF5C0
:04020F002FF5308512
:030213000C349018
:0502160001F70202DB0C
:06021B00C00D85810DE518
:070221000D24FBF534E4F5A8
:040228002EF52FF58B
:07022C0030E50D24FBF8860C
:0602330031088632088646
:05023900339001F712F3
:05023E0002DBD00D22DF
:07024300AA82C024C025C0FF
:06024A0026745AC0E074A6
:0602500002C0E0C022C064
:04025600238A822253
:0A025A00158115811581052CE4B50E
:040264002C02052D36
:010268002273
:0E026900AA8274302AFA24C6500A74072AFAB0
:06027700300103430220E8
:05027D008A8202024329
:0E028200E582FAC4540FF582C002120269D060
:0902900002740F5AF582020269A2
:0602990085820EAB27ACCC
:04029F0028AD29AEAF
:0402A3002AAF2B75DE
:0202A7000F2026
:0E02A900EF2FFFEE235401FA4207EB2BFBEC84
:0C02B70033FCED33FDEE33FEC3EF950E7B
:0A02C3004008EFC3950EFF4303014E
:0602CD00D50FD98B278C30
:0402D300288D298EBB
:0402D7002A8F2B221D
:0702DB008582228583238543
:0302E2002E248542
:0302E5002F25853D
:0402E8003026E4F5E3
:0302EC002CF52DC1
:0502EF00AA31AB32ACA6
:0C02F400338A828B838CF01207E1FD74CA
:09030000012AF531E43BF5328CD1
:0803090033EDFA70030207C294
:05031100BA2502800383
:030316000207BA21
:05031900C202C203C294
:04031E0004C205C24E
:0403220006C207C246
:0403260008C209758B
:08032A0035007536007DFFAEC1
:0403320031AF32AB0A
:010336003393
:0E0337008E828F838BF01207E1FAA3AE82AFA5
:06034500838E318F328B24
:0B034B0033BA25078A82120243809912
:050356008A04BC300028
:0D035B00402A8A04EC24C64023BDFF13E5B0
:0B0368003675F00AA4FCEA24D02CF546
:070373003670C1D20380BD0A
:0D037A00ED75F00AA4FCEA24D02CFD80B043
:0A038700BA2E07BDFFAA7D0080A674
:050391008A04BC6100BC
:0D039600400E8A04EC248540075302DFD29C
:0303A300018002D4
:0203A600C20192
:0503A800BA200280559F
:0503AD00BA2B02804B99
:0503B200BA2D0280419C
:0503B700BA4202804B78
:0503BC00BA430280506D
:0603C100BA440302056CC2
:0603C700BA4603020582A4
:0603CD00BA490302056CB1
:0503D300BA4C02803469
:0603D800BA4F0302057399
:0603DE00BA500302050302
:0503E400BA5302804C39
:0603E900BA55030205787D
:0603EF00BA580302057D6F
:0303F50002058678
:0503F800D202020337F0
:0503FD00D204020337E9
:05040200D205020337E2
:05040700D207020337DB
:05040C00D208020337D5
:0804110030070AE53414F888F5
:05041900348602800F93
:0A041E00E53424FEF8883486030854
:050428008604188B02A0
:08042D008A8212024302058FCE
:0A043500E53424FDF888348603083E
:0A043F00860408860618188B278C27
:04044900288E29854B
:06044D002782852883854B
:0C04530029F0C0051207C9AB82AC83D0B1
:06045F0005BDFF028B0544
:0A04650020022CC3EB95365026E56B
:06046F0036C39BF536AC1C
:010475003650
:0C0476008C061C8C36EE6014758220C0D1
:0E04820003C004C005120243D005D004D0030D
:0204900080E406
:020492008C36A6
:020494008D04D5
:07049600852782852883857C
:0C049D0029F01207E1FDFA602F8C051C0D
:0E04A900C374808DF063F08095F050208A823D
:0C04B700C003C004120243D004D003AD07
:0404C30027AE28AF89
:0604C700290DBD00010E2D
:0504CD008D278E288F31
:0304D2002980C1BD
:0604D50020020302058F66
:0904DB00C3EB9536400302058FC6
:0704E400E536C39BF536ACC1
:0104EB0036DA
:0B04EC008C051C8C36ED700302058DA2
:0C04F700758220C004120243D00480E98A
:0A050300E53424FDF888348605086D
:0A050D00860608860718188D278E51
:04051700288F29AD53
:04051B0029BD800076
:06051F0040047A43801441
:03052500BD6000B6
:0605280040047A50800B34
:03052E00BD4000CD
:0605310040047A4980023B
:020537007A58F0
:0E0539008A82C00212024375823A1202437592
:0E0547008230120243758278120243D002BA4B
:040555004902800BCC
:05055900BA500280060B
:06055E00852882120282D2
:08056400852782120282802328
:07056C00D20675350A801C60
:0505730075350880173A
:0505780075350A801238
:05057D00753510800D32
:04058200D209800911
:070586008A82120243800289
:02058D008C36AA
:09058F0030095AE53424FCF88817
:0C059800348604088605088606088607DD
:0805A4001818188C278D288E11
:0405AC00298F2A75F4
:0305B00027257587
:0305B300280875A0
:0205B60029809A
:0405B80085273885D6
:0305BC0028398556
:0505BF00293A7401253A
:0705C40038FFE43539FCADFE
:0405CB003A8F278CB0
:0405CF00288D2985C5
:0605D300388285398385A2
:0A05D9003AF01207E1FCFA70030289
:0205E30002EF25
:0705E5008A8212024380CC60
:0705EC00E53570030202EF88
:0405F3007537153013
:0705F700072BE53414F8881E
:0A05FE0034E6FD3395E0FEFFFC8DAE
:04060800278E288F82
:04060C00298C2A20EB
:0A061000065EAC277D007E007F002F
:05061A008C278D288EE5
:05061F00298F2A804C28
:0906240030081FE53424FCF888BD
:0C062D0034860408860508860608860747
:080639001818188C278D288E7B
:05064100298F2A802A28
:0A064600E53424FEF8883486040829
:0C065000860518ED3395E0FEFF8C278D29
:04065C00288E298F2C
:050660002A20060CAC8D
:0806650027AD287E007F008E06
:03066D00298F2AA8
:0A067000300622E52A30E71BC3E440
:09067A009527FCE49528FDE495A8
:0706830029FEE4952AFF8C1B
:04068A00278D288E02
:05068E00298F2A800203
:02069300C2069D
:06069500D20AA8377C0028
:0A069B00752B00853582C004C000F5
:0B06A500120299D000D004200A0DE5DD
:0A06B0002BC4FDE6FE4DF618883756
:0206BA008002BC
:0206BC00A62B6B
:0806BE000C8C03B20AE527458C
:0406C6002845294555
:0806CA002A70CE88378C03E58D
:0606D200367003753601CD
:0A06D800200324200221EB04FCADF6
:0106E20036E1
:0E06E300C3EC9D5015758220C003C004C005F5
:0C06F100120243D005D004D0031D80E6A7
:0206FD008D3638
:0C06FF0030060E75822DC003120243D09D
:05070B000315368023F8
:0C071000EB602030040E75822BC0031239
:08071C000243D0031536800FE3
:0C07240030050C758220C003120243D087
:0307300003153678
:05073300200224AC3699
:0B0738008C051C8C36C3EB9D502B3051
:0607430003047D3080027A
:020749007D2011
:0E074B008D82C003C004120243D004D003808C
:01075900DEC1
:0A075A00C3EB95365008E536C39B4B
:04076400F5368007DF
:0507680075360080025F
:02076D008C36C8
:02076F00A837A9
:0A0771008B041BEC6026B20A200A7C
:0B077B000A08E6C4540FFC8C2B80071A
:070786008604740F5CF52BE3
:0C078D00852B82C003C000120269D0005E
:04079900D00380D435
:06079D002002030202EF3E
:0207A300AB3673
:0907A5008B041BEC70030202EF4F
:0C07AE00758220C003120243D00380EBD0
:0807BA008A821202430202EFE1
:0707C200852C82852D8322A6
:0B0825003C4E4F20464C4F41543E001B
:0407C900AA82AB83D2
:0807CD001207E16003A380F8AC
:0C07D500C3E5829AF582E5839BF5832240
:0300130075813ABA
:0A0016001207FDE582600302000EF0
:0E07E10020F71430F6148883A88220F507E66E
:0607EF00A88375830022BF
:0307F500E280F7A8
:0307F800E4932265
:0207FB00E022FA
:0407FD0075820022DF
:00000001FF
