:06000000020033020308B8
:03000B0002032DC0
:0100130032BA
:01001B0032B2
:0100230032AA
:03002B0002037558
:06008C00E4F508F509751A
:070092000A05E4F50BE4F59B
:050099000CF50DE4F57B
:05009E000EF50FE4F572
:0400A30010F511D271
:0100A7000058
:0300B20002002E1B
:05002E001200C880FE75
:0200B500AA821D
:0500B70010990280FB1E
:0300BC008A9922FC
:0500BF0010980280FB17
:0400C4008599822276
:0D00C80075FFDE75FFAD12039112040E12DC
:0E00D500042B758400D28875840FD2A8758420
:0A00E3000074F6C0E0740BC0E07476
:0D00ED0080C0E01205A21581158115811259
:0900FA00031BD28C12035CD2CA74
:0501030012010880FB61
:070108000510E4B51002052B
:01010F0011DE
:0A01100074F6C0E0740BC0E07480C8
:0C011A00C0E01205A21581158115818539
:0301260010188529
:0301290011198524
:06012C000E82850F831214
:0C0132000BBAAA82AB83C002C00374FBAE
:0B013E00C0E0740BC0E07480C0E01251
:0C01490005A2E58124FBF581741FC0E0D5
:0C015500740CC0E07480C0E01205A2151C
:0E0161008115811581AA8B7B008A828B831207
:06016F00048B12044F7521
:060175001864E4F5191204
:0A017B000B84AA82AB83E4F508F5BB
:010185000970
:0A018600C3E5089AE50964808BF0D8
:0C01900063F08095F040EF74F6C0E0745E
:0C019C000BC0E07480C0E01205A21581C9
:0A01A800158115817428C0E0740C65
:0E01B200C0E07480C0E01205A2158115811511
:0A01C0008174F6C0E0740BC0E07417
:0E01CA0080C0E01205A2158115811581E4F5B3
:0301D80008F5091E
:0A01DB00C3E5089405E5096480946B
:0A01E5008040F374F6C0E0740BC014
:0E01EF00E07480C0E01205A215811581158113
:0A01FD007430C0E0740CC0E07480A0
:0C020700C0E01205A2158115811581745C
:0A021300F6C0E0740BC0E07480C078
:0C021D00E01205A21581158115817435D1
:0B022900C0E0740CC0E07480C0E01264
:0C02340005A215811581158174F6C0E04B
:0C024000740BC0E07480C0E01205A21531
:09024C00811581158185101885CA
:03025500111985F7
:060258000E82850F8312E7
:0C025E000BBAAA82AB83C002C00374FB81
:0B026A00C0E0740BC0E07480C0E01224
:0C02750005A2E58124FBF581743BC0E08C
:0C028100740CC0E07480C0E01205A215EF
:0A028D008115811581C200E4F50817
:02029700F50967
:060299003000FDC008C0AA
:06029F00097442C0E07486
:0C02A5000CC0E07480C0E01205A2E581EE
:0902B10024FBF581E508250EF59A
:0402BA000EE509350F
:0402BE000FF50F85A4
:0302C2001018858C
:0302C50011198587
:0602C8000E82850F831277
:0C02CE000BBAAA82AB83C002C003745AB2
:0B02DA00C0E0740CC0E07480C0E012B3
:0C02E50005A2E58124FBF5817485C0E0D2
:0C02F100740CC0E07480C0E01205A2157F
:0702FD008115811581C2008B
:040304003000FD22A6
:09030800C0E0E50A450B7008D2C3
:0603110000750A0AE4F584
:010317000BDA
:03031800D0E03200
:0E031B00538EF75389F0438901C28C758A0016
:04032900758C0022AD
:0E032D00C0E0C0F0C0D075D000758C5E758A3F
:0A033B0005C3E4950A7480850BF0F9
:0C03450063F08095F05009150A74FFB5B4
:040351000A02150B7C
:07035500D0D0D0F0D0E0325F
:0E035C00AA8475840F53C8FB43C91853C9FE09
:0B036A00C2CA75CC0075CD008A842249
:0E037500C0E0C0D075D000C2CF75CCD075CD21
:080383009E0508E4B50802051F
:01038B000968
:05038C00D0D0D0E032EA
:0C039100AA8475840F758C677BB87C0B08
:05039D001BBBFF011C69
:0403A200EB4C70F7B9
:0E03A600E58C30E7FB759701758A008A84228A
:0E03B400AA8475840F758C677BB87C0B8B0553
:0203C2008C06A7
:0503C4001DBDFF011E3C
:0403C900ED4E70F78E
:0E03CD00E58C30E7FB759701758A0075840F8B
:0E03DB0075890475840075B71075840F438909
:0E03E90001758D04758F01758E097B007C01F6
:0503F7001BBBFF011C0F
:0703FC00EB4C70F74389028E
:0B040300E58930E4FB7597028A842233
:0E040E00AA8475840FD2AFD2A9D2AD75E104D5
:0E041C0075E20475E34075A4017580068A84BC
:01042A0022AF
:0E042B00AA8475840075884053890F43892088
:0E043900438E10758DE8D28E75840075985034
:08044700759100D2998A84220C
:050BF6001B5B324A0008
:0E0BFB00596F757220417665726167652052F0
:0E0C09006573706F6E73652054696D652069A8
:080C1700733A2025640A0D0068
:090C1F0052656164793F0D0A0081
:080C28001B5B313B34366D000B
:050C30001B5B306D00AC
:060C35001B5B34346D006E
:070C3B00474F21210A0D00C3
:0E0C420054696D6520696E206F766572666C70
:0A0C50006F77733A2025640A0D0047
:0E0C5A001B5B303B3048596F75722041766548
:0E0C68007261676520526573706F6E73652050
:0E0C760054696D65206973203A2025640A0DCB
:010C8400006F
:0E0C85001B5B343B3048507573682074686503
:0E0C930020627574746F6E20746F207265732A
:090CA1007461727421210D0A0036
:0700A800751201E4F513F5E8
:0300AF0014F51530
:04044F008512188575
:03045300131985F5
:03045600141A85F0
:0A045900151B904E6D75F0C674413E
:0E04630012049AAA82AB83ACF0FD74392AF51C
:090471001274303BF513E43CF574
:06047A0014E43DF515AA93
:0A04800014AB158A82747F5BF583CC
:01048A00224F
:09048B00AA82AB838A128B13755F
:06049400140075150022A2
:06006200E478FFF6D8FD72
:080040007900E94400601B7A1D
:0500480000900CB578EA
:03004D000075A299
:0A00500000E493F2A308B8000205D3
:08005A00A2D9F4DAF275A2FF4D
:0C049A00AAF0FBE5828518F0A4FCADF090
:0C04A600E5838518F0A42DFDE435F0FE80
:0C04B200E5828519F0A42DFDE5F03EFE6A
:0C04BE00E433FFEA8518F0A42EFEE5F000
:0C04CA003FFFE5838519F0A42EFEE5F04D
:0C04D6003FFFE582851AF0A42EFEE5F041
:0B04E2003FFFEB8518F0A42FFFEA8518
:0A04ED0019F0A42FFFE583851AF033
:0C04F700A42FFFE582851BF0A42F8EF0DF
:050503008D838C8222B3
:08050800E518451960467A016F
:07051000E51825E0F518E5F0
:0905170019334012F519E5829533
:0A05200018E583951940030A80E6F0
:03052A00C3E5190D
:07052D0013F519E51813F5A1
:0105340018AE
:0A053500C3E5829518F5F0E5839503
:08053F00194005F58385F082E7
:07054700C3E51913F519E5E6
:06054E001813F518DAE1B4
:010554002284
:080068007800E84400600A7909
:030070000075A276
:0600730000E4F309D8FCD3
:080079007800E84400600C79F6
:0B00810000900000E4F0A3D8FCD9FAC6
:050555007A10E4FBFC3C
:0E055A00E58225E0F582E58333F583EB33FB84
:0A056800EC33FCEB9518F5F0EC9570
:09057200194006FCABF0438201C4
:03057B00DADD22A4
:06057E00C0178581171271
:0505840000B5D01722B4
:0805890085823185833285F083
:0505910033E4F52EF536
:040596002FF5308588
:03059A0016349084
:05059D00057E0206626C
:0605A200C017858117E57A
:0705A8001724FBF534E4F514
:0405AF002EF52FF501
:0705B30030E51724FBF88678
:0605BA00310886320886BC
:0505C0003390057E12DE
:0505C5000662D01722C0
:0705CA00AA82C024C025C075
:0605D1002674E1C0E07495
:0605D70005C0E0C022C0D7
:0405DD00238A8222C9
:0A05E100158115811581052CE4B584
:0405EB002C02052DAC
:0105EF0022E9
:0E05F000AA8274302AFA24C6500A74072AFA26
:0605FE003001034302205E
:050604008A820205CA14
:0E060900E582FAC4540FF582C0021205F0D04B
:0906170002740F5AF5820205F08D
:06062000858218AB27AC37
:0406260028AD29AE24
:04062A002AAF2B7553
:02062E00192091
:0E063000EF2FFFEE235401FA4207EB2BFBECF9
:0C063E0033FCED33FDEE33FEC3EF9518E6
:0A064A004008EFC39518FF430301B9
:06065400D519D98B278C9B
:04065A00288D298E30
:04065E002A8F2B2292
:0706620085822285832385B8
:030669002E2485B7
:03066C002F2585B2
:04066F003026E4F558
:030673002CF52D36
:05067600AA31AB32AC1B
:0C067B00338A828B838CF0120B68FD74B4
:09068700012AF531E43BF5328C47
:0806900033EDFA7003020B497F
:05069800BA25028003F9
:03069D00020B410C
:0506A000C202C203C20A
:0406A50004C205C2C4
:0406A90006C207C2BC
:0406AD0008C2097501
:0806B10035007536007DFFAE37
:0406B90031AF32AB80
:0106BD003309
:0E06BE008E828F838BF0120B68FAA3AE82AF90
:0606CC00838E318F328B9A
:0B06D20033BA25078A821205CA8099FE
:0506DD008A04BC30009E
:0D06E200402A8A04EC24C64023BDFF13E526
:0B06EF003675F00AA4FCEA24D02CF5BC
:0706FA003670C1D20380BD80
:0D070100ED75F00AA4FCEA24D02CFD80B0B8
:0A070E00BA2E07BDFFAA7D0080A6E9
:050718008A04BC610031
:0D071D00400E8A04EC248540075302DFD211
:03072A0001800249
:02072D00C20107
:05072F00BA2002805514
:05073400BA2B02804B0E
:05073900BA2D02804111
:05073E00BA4202804BED
:05074300BA43028050E2
:06074800BA44030208F3AD
:06074E00BA46030209098E
:06075400BA49030208F39C
:05075A00BA4C028034DE
:06075F00BA4F030208FA84
:06076500BA500302088AED
:05076B00BA5302804CAE
:06077000BA55030208FF68
:06077600BA580302090459
:03077C0002090D62
:05077F00D2020206BEDB
:05078400D2040206BED4
:05078900D2050206BECE
:05078E00D2070206BEC7
:05079300D2080206BEC1
:0807980030070AE53414F8886B
:0507A000348602800F09
:0A07A500E53424FEF88834860308CA
:0507AF008604188B0216
:0807B4008A821205CA0209162F
:0A07BC00E53424FDF88834860308B4
:0A07C600860408860618188B278C9D
:0407D000288E2985C1
:0607D400278285288385C1
:0C07DA0029F0C005120B50AB82AC83D09C
:0607E60005BDFF028B05BA
:0A07EC0020022CC3EB95365026E5E1
:0607F60036C39BF536AC92
:0107FC0036C6
:0C07FD008C061C8C36EE6014758220C047
:0E08090003C004C0051205CAD005D004D003F8
:0208170080E47B
:020819008C361B
:02081B008D044A
:07081D0085278285288385F1
:0C08240029F0120B68FDFA602F8C051CF7
:0E083000C374808DF063F08095F050208A82B2
:0C083E00C003C0041205CAD004D003ADF2
:04084A0027AE28AFFE
:06084E00290DBD00010EA2
:050854008D278E288FA6
:030859002980C132
:06085C0020020302091650
:09086200C3EB95364003020916B0
:07086B00E536C39BF536AC36
:01087200364F
:0B0873008C051C8C36ED70030209148C
:0C087E00758220C0041205CAD00480E975
:0A088A00E53424FDF88834860508E3
:0A089400860608860718188D278EC7
:04089E00288F29ADC9
:0408A20029BD8000EC
:0608A60040047A438014B7
:0308AC00BD60002C
:0608AF0040047A50800BAA
:0308B500BD400043
:0608B80040047A498002B1
:0208BE007A5866
:0E08C0008A82C0021205CA75823A1205CA75F4
:0E08CE0082301205CA7582781205CAD002BAAD
:0408DC004902800B42
:0508E000BA5002800681
:0608E500852882120609BD
:0808EB00852782120609802313
:0708F300D20675350A801CD6
:0508FA007535088017B0
:0508FF0075350A8012AE
:05090400753510800DA7
:04090900D209800986
:07090D008A821205CA800274
:020914008C361F
:0909160030095AE53424FCF8888C
:0C091F0034860408860508860608860752
:08092B001818188C278D288E86
:04093300298F2A7569
:0309370027AA7577
:03093A00280C7511
:02093D0029800F
:04093F00852738854B
:03094300283985CB
:05094600293A740125AF
:07094B0038FFE43539FCAD73
:040952003A8F278C25
:04095600288D29853A
:06095A0038828539838517
:0A0960003AF0120B68FCFA70030273
:02096A0006760F
:07096C008A821205CA80CC4B
:07097300E535700302067672
:04097A00753740305D
:07097E00072BE53414F88893
:0A09850034E6FD3395E0FEFFFC8D23
:04098F00278E288FF8
:04099300298C2A2061
:0A099700065EAC277D007E007F00A5
:0509A1008C278D288E5B
:0509A600298F2A804C9E
:0909AB0030081FE53424FCF88833
:0C09B400348604088605088606088607BD
:0809C0001818188C278D288EF1
:0509C800298F2A802A9E
:0A09CD00E53424FEF888348604089F
:0C09D700860518ED3395E0FEFF8C278D9F
:0409E300288E298FA2
:0509E7002A20060CAC03
:0809EC0027AD287E007F008E7C
:0309F400298F2A1E
:0A09F700300622E52A30E71BC3E4B6
:090A01009527FCE49528FDE4951D
:070A0A0029FEE4952AFF8C90
:040A1100278D288E77
:050A1500298F2A800278
:020A1A00C20612
:060A1C00D20AA8377C009D
:0A0A2200752B00853582C004C0006A
:0B0A2C00120620D000D004200A0DE5C7
:0A0A37002BC4FDE6FE4DF6188837CB
:020A4100800231
:020A4300A62BE0
:080A45000C8C03B20AE5274501
:040A4D0028452945CA
:080A51002A70CE88378C03E502
:060A590036700375360142
:0A0A5F00200324200221EB04FCAD6B
:010A69003656
:0E0A6A00C3EC9D5015758220C003C004C0056A
:0C0A78001205CAD005D004D0031D80E692
:020A84008D36AD
:0C0A860030060E75822DC0031205CAD088
:050A920003153680236E
:0C0A9700EB602030040E75822BC00312AF
:080AA30005CAD0031536800FCF
:0C0AAB0030050C758220C0031205CAD073
:030AB700031536EE
:050ABA00200224AC360F
:0B0ABF008C051C8C36C3EB9D502B30C7
:060ACA0003047D308002F0
:020AD0007D2087
:0E0AD2008D82C003C0041205CAD004D0038078
:010AE000DE37
:0A0AE100C3EB95365008E536C39BC1
:040AEB00F536800755
:050AEF007536008002D5
:020AF4008C363E
:020AF600A8371F
:0A0AF8008B041BEC6026B20A200AF2
:0B0B02000A08E6C4540FFC8C2B80078F
:070B0D008604740F5CF52B58
:0C0B1400852B82C003C0001205F0D00049
:040B2000D00380D4AA
:060B240020020302067628
:020B2A00AB36E8
:090B2C008B041BEC700302067639
:0C0B3500758220C0031205CAD00380EBBB
:080B41008A821205CA02067641
:070B4900852C82852D83221B
:0B0CAA003C4E4F20464C4F41543E0092
:040B5000AA82AB8347
:080B5400120B686003A380F896
:0C0B5C00C3E5829AF582E5839BF58322B5
:0300330075814094
:0A003600120BF2E582600302002EB7
:0E0B680020F71430F6148883A88220F507E6E3
:060B7600A8837583002234
:030B7C00E280F71D
:030B7F00E49322DA
:020B8200E0226F
:0E0B8400C2D5E58330E70DD2D5E4C39582F5E6
:060B920082E49583F58367
:0A0B9800E51930E70BE4C39518F5EA
:050BA20018E49519F5AF
:010BA7001934
:0E0BA80012050830D50BE4C39582F582E49562
:030BB60083F58341
:010BB9002219
:0E0BBA00C2D5E58330E70DD2D5E4C39582F5B0
:060BC80082E49583F58331
:0A0BCE00E51930E70DB2D5E4C39538
:050BD80018F518E4957A
:030BDD0019F519EE
:0E0BE00012055530D50BE4C39582F582E495DD
:030BEE0083F58309
:010BF10022E1
:040BF20075820022E6
:00000001FF
