:040000000200333295
:01000B0032C2
:0100130032BA
:01001B0032B2
:0100230032AA
:03002B0002013897
:07008C00E4F508F509E4F5B5
:040093000AF50BC29D
:010097000068
:0300980002002E35
:05002E001200AE80FE8F
:02009B00AA8237
:05009D0010990280FB38
:0300A2008A992216
:0500A50010980280FB31
:0400AA008599822290
:0D00AE0075FFDE75FFAD1201701201ED123D
:0E00BB000202758400D28875840FD2A8758465
:0A00C900007430C0E07408C0E07459
:0D00D30080C0E012024A15811581158112CE
:0900E0000119D2CA7435C0E074A4
:0C00E90008C0E07480C0E012024A1581DB
:0400F50015811581DB
:0600F9003000FDC00AC04A
:0600FF000B7448C0E07420
:0C01050008C0E07480C0E012024AE581EE
:0801110024FBF581C20080E02F
:0E011900AA8475840F53C8FB43C91853C9FE4E
:0E012700C2CA75CC0075CD0075CAD075CB9ECE
:030135008A842297
:0E013800C0E0C0D075D000C2CF75CCD075CD60
:0A0146009E7464B50806E4B50902D2
:0201500080022B
:02015200800F1C
:07015400050AE4B50A0205EB
:01015B000B98
:06015C00D200E4F508F5F5
:010162000993
:070163000508E4B5080205E0
:01016A00098B
:05016B00D0D0D0E0320D
:0C017000AA8475840F758C677BB87C0B2B
:05017C001BBBFF011C8C
:04018100EB4C70F7DC
:0E018500E58C30E7FB759701758A008A8422AD
:0E019300AA8475840F758C677BB87C0B8B0576
:0201A1008C06CA
:0501A3001DBDFF011E5F
:0401A800ED4E70F7B1
:0E01AC00E58C30E7FB759701758A0075840FAE
:0E01BA0075890475840075B71075840F43892C
:0E01C80001758D04758F01758E097B007C0119
:0501D6001BBBFF011C32
:0701DB00EB4C70F7438902B1
:0B01E200E58930E4FB7597028A842257
:0E01ED00AA8475840FD2AFD2AD75E10475E21D
:0701FB000475E3408A842231
:0E020200AA8475840075884053890F438920B3
:0E021000438E10758DE8D28E7584007598505F
:08021E00759100D2998A842237
:050830001B5B324A00D1
:0E0835004920616D2072756E6E696E67203A03
:0508430044200A0D0035
:0C08480054696D65203D2025640A0D00F8
:06006200E478FFF6D8FD72
:080040007900E94400601B7A1D
:050048000090085F7844
:03004D000075A299
:0A00500000E493F2A308B8000205D3
:08005A00A2D9F4DAF275A2FF4D
:080068007800E84400600A7909
:030070000075A276
:0600730000E4F309D8FCD3
:080079007800E84400600C79F6
:0B00810000900000E4F0A3D8FCD9FAC6
:06022600C00D85810D12E0
:05022C00009BD00D2233
:0802310085823185833285F0DE
:0502390033E4F52EF591
:04023E002FF53085E3
:030242000C3490E9
:05024500022602030A7D
:06024A00C00D85810DE5E9
:070250000D24FBF534E4F579
:040257002EF52FF55C
:07025B0030E50D24FBF886DD
:0602620031088632088617
:05026800339002261294
:05026D00030AD00D2280
:07027200AA82C024C025C0D0
:06027900267489C0E07448
:06027F0002C0E0C022C035
:04028500238A822224
:0A028900158115811581052CE4B5DF
:040293002C02052D07
:010297002244
:0E029800AA8274302AFA24C6500A74072AFA81
:0602A600300103430220B9
:0502AC008A82020272CB
:0E02B100E582FAC4540FF582C002120298D002
:0902BF0002740F5AF58202029844
:0602C80085820EAB27AC9D
:0402CE0028AD29AE80
:0402D2002AAF2B75AF
:0202D6000F20F7
:0E02D800EF2FFFEE235401FA4207EB2BFBEC55
:0C02E60033FCED33FDEE33FEC3EF950E4C
:0A02F2004008EFC3950EFF4303011F
:0602FC00D50FD98B278C01
:04030200288D298E8B
:040306002A8F2B22ED
:07030A008582228583238513
:030311002E248512
:030314002F25850D
:040317003026E4F5B3
:03031B002CF52D91
:05031E00AA31AB32AC76
:0C032300338A828B838CF0120810FD746A
:09032F00012AF531E43BF5328CA2
:0803380033EDFA70030207F136
:05034000BA2502800354
:030345000207E9C3
:05034800C202C203C265
:04034D0004C205C21F
:0403510006C207C217
:0403550008C209755C
:0803590035007536007DFFAE92
:0403610031AF32ABDB
:010365003364
:0E0366008E828F838BF0120810FAA3AE82AF46
:06037400838E318F328BF5
:0B037A0033BA25078A821202728099B4
:050385008A04BC3000F9
:0D038A00402A8A04EC24C64023BDFF13E581
:0B0397003675F00AA4FCEA24D02CF517
:0703A2003670C1D20380BDDB
:0D03A900ED75F00AA4FCEA24D02CFD80B014
:0A03B600BA2E07BDFFAA7D0080A645
:0503C0008A04BC61008D
:0D03C500400E8A04EC248540075302DFD26D
:0303D200018002A5
:0203D500C20163
:0503D700BA2002805570
:0503DC00BA2B02804B6A
:0503E100BA2D0280416D
:0503E600BA4202804B49
:0503EB00BA430280503E
:0603F000BA440302059B64
:0603F600BA46030205B146
:0603FC00BA490302059B53
:05040200BA4C02803439
:06040700BA4F030205A23A
:06040D00BA5003020532A3
:05041300BA5302804C09
:06041800BA55030205A71E
:06041E00BA58030205AC10
:030424000205B519
:05042700D20202036691
:05042C00D2040203668A
:05043100D20502036684
:05043600D2070203667D
:05043B00D20802036677
:0804400030070AE53414F888C6
:05044800348602800F64
:0A044D00E53424FEF8883486030825
:050457008604188B0271
:08045C008A821202720205BE41
:0A046400E53424FDF888348603080F
:0A046E00860408860618188B278CF8
:04047800288E29851C
:06047C002782852883851C
:0C04820029F0C0051207F8AB82AC83D053
:06048E0005BDFF028B0515
:0A04940020022CC3EB95365026E53C
:06049E0036C39BF536ACED
:0104A4003621
:0C04A5008C061C8C36EE6014758220C0A2
:0E04B10003C004C005120272D005D004D003AF
:0204BF0080E4D7
:0204C1008C3677
:0204C3008D04A6
:0704C500852782852883854D
:0C04CC0029F0120810FDFA602F8C051CAE
:0E04D800C374808DF063F08095F050208A820E
:0C04E600C003C004120272D004D003ADA9
:0404F20027AE28AF5A
:0604F600290DBD00010EFE
:0504FC008D278E288F02
:030501002980C18D
:060504002002030205BE07
:09050A00C3EB953640030205BE67
:07051300E536C39BF536AC91
:01051A0036AA
:0B051B008C051C8C36ED70030205BC43
:0C052600758220C004120272D00480E92B
:0A053200E53424FDF888348605083E
:0A053C00860608860718188D278E22
:04054600288F29AD24
:04054A0029BD800047
:06054E0040047A43801412
:03055400BD600087
:0605570040047A50800B05
:03055D00BD40009E
:0605600040047A4980020C
:020566007A58C1
:0E0568008A82C00212027275823A1202727505
:0E0576008230120272758278120272D002BABE
:040584004902800B9D
:05058800BA50028006DC
:06058D008528821202B174
:080593008527821202B18023CA
:07059B00D20675350A801C31
:0505A20075350880170B
:0505A70075350A801209
:0505AC00753510800D03
:0405B100D2098009E2
:0705B5008A8212027280022B
:0205BC008C367B
:0905BE0030095AE53424FCF888E8
:0C05C700348604088605088606088607AE
:0805D3001818188C278D288EE2
:0405DB00298F2A75C5
:0305DF0027547529
:0305E20028087571
:0205E50029806B
:0405E70085273885A7
:0305EB0028398527
:0505EE00293A7401250B
:0705F30038FFE43539FCADCF
:0405FA003A8F278C81
:0405FE00288D298596
:0606020038828539838572
:0A0608003AF0120810FCFA70030229
:02061200031EC5
:070614008A8212027280CC01
:07061B00E535700302031E28
:0406220075371530E3
:07062600072BE53414F888EE
:0A062D0034E6FD3395E0FEFFFC8D7E
:04063700278E288F53
:04063B00298C2A20BC
:0A063F00065EAC277D007E007F0000
:050649008C278D288EB6
:05064E00298F2A804CF9
:0906530030081FE53424FCF8888E
:0C065C0034860408860508860608860718
:080668001818188C278D288E4C
:05067000298F2A802AF9
:0A067500E53424FEF88834860408FA
:0C067F00860518ED3395E0FEFF8C278DFA
:04068B00288E298FFD
:05068F002A20060CAC5E
:0806940027AD287E007F008ED7
:03069C00298F2A79
:0A069F00300622E52A30E71BC3E411
:0906A9009527FCE49528FDE49579
:0706B20029FEE4952AFF8CEC
:0406B900278D288ED3
:0506BD00298F2A8002D4
:0206C200C2066E
:0606C400D20AA8377C00F9
:0A06CA00752B00853582C004C000C6
:0B06D4001202C8D000D004200A0DE57F
:0A06DF002BC4FDE6FE4DF618883727
:0206E90080028D
:0206EB00A62B3C
:0806ED000C8C03B20AE527455D
:0406F5002845294526
:0806F9002A70CE88378C03E55E
:060701003670037536019D
:0A070700200324200221EB04FCADC6
:0107110036B1
:0E071200C3EC9D5015758220C003C004C005C5
:0C072000120272D005D004D0031D80E648
:02072C008D3608
:0C072E0030060E75822DC003120272D03E
:05073A000315368023C9
:0C073F00EB602030040E75822BC003120A
:08074B000272D0031536800F85
:0C07530030050C758220C003120272D029
:03075F0003153649
:05076200200224AC366A
:0B0767008C051C8C36C3EB9D502B3022
:0607720003047D3080024B
:020778007D20E2
:0E077A008D82C003C004120272D004D003802E
:01078800DE92
:0A078900C3EB95365008E536C39B1C
:04079300F5368007B0
:05079700753600800230
:02079C008C3699
:02079E00A8377A
:0A07A0008B041BEC6026B20A200A4D
:0B07AA000A08E6C4540FFC8C2B8007EB
:0707B5008604740F5CF52BB4
:0C07BC00852B82C003C000120298D00000
:0407C800D00380D406
:0607CC0020020302031EDF
:0207D200AB3644
:0907D4008B041BEC700302031EF0
:0C07DD00758220C003120272D00380EB72
:0807E9008A8212027202031E53
:0707F100852C82852D832277
:0B0854003C4E4F20464C4F41543E00EC
:0407F800AA82AB83A3
:0807FC001208106003A380F84D
:0C080400C3E5829AF582E5839BF5832210
:0300330075813A9A
:0A00360012082CE582600302002E80
:0E08100020F71430F6148883A88220F507E63E
:06081E00A883758300228F
:03082400E280F778
:03082700E4932235
:02082A00E022CA
:04082C0075820022AF
:00000001FF
