:060000000200130200BF24
:03000B000207E306
:07006C0075234EE4F524F5B5
:010073002567
:03007E0002000E6F
:05000E001201EC80FE70
:02008100AA8251
:0500830010990280FB52
:030088008A992230
:05008B0010980280FB4B
:0400900085998222AA
:07009400744EB5230280F950
:07009B0085238275234E222C
:0E00A200AA8475840F75E2045388FC43A8817C
:0E00B00075A7F075B00F53A4FB4380048A843B
:0100BE00221F
:0C00BF00C022C0E0C0F0C082C083C002BC
:0E00CB00C003C004C005C006C007C000C001CD
:0C00D900C0D075D000120118858223C22F
:0100E5008991
:0900E600740FB5B0FB7A107B2702
:0500EF001ABAFF011B1D
:0E00F400EA4B70F743A881D0D0D001D000D0E5
:0E01020007D006D005D004D003D002D083D0A1
:0801100082D0F0D0E0D02232D1
:0E011800E5B0AAB07B7875B08F7C2C7D018C91
:03012600068D073C
:050129001EBEFF011FD6
:0E012E00EE4F70F7740F55B0FEBE0F17BA07F4
:05013C00047B3180107E
:07014100BA0B047B328009B8
:07014800BA0D047B338002B5
:02014F007B41F2
:0B01510075B04F7C2C7D018C078D00E9
:05015C001FBFFF0118A8
:0E016100EF4870F7740F55B0FEBE0F17BA07C7
:05016F00047B34801048
:07017400BA0B047B35800982
:07017B00BA0D047B3680027F
:020182007B42BE
:0B01840075B02F7C2C7D018C078D00D6
:05018F001FBFFF011875
:0E019400EF4870F7740F55B0FEBE0F17BA0794
:0501A200047B37801012
:0701A700BA0B047B3880094C
:0701AE00BA0D047B39800249
:0201B5007B438A
:0701B70075B01F7C2C7D01D7
:0501BE001CBCFF011D47
:0E01C300EC4D70F7740F55B0FEBE0F17BA0763
:0501D100047B2A8010F0
:0701D600BA0B047B30800925
:0701DD00BA0D047B23800230
:0201E4007B445A
:0601E60075B00F8B8222B0
:0D01EC0075FFDE75FFAD1207FD1208201231
:0601F900083B1207D112C1
:0B01FF00085F1200A2D28C758400740F
:0A020A00E0C0E07412C0E07480C090
:0C021400E0120CAB15811581158174E51A
:0B022000C0E07412C0E07480C0E01267
:0E022B000CAB15811581158175823012099E6C
:0A0239001209D490131F75F0801213
:02024300094F61
:08024500120296120094AA8235
:0A024D00BA4E07120094AA8280F650
:05025700BA4102800F16
:05025C00BA4202800F10
:05026100BA4302800F0A
:05026600BA4416800FF0
:05026B001202AC80D579
:0502700012033B80D0E9
:050275001203CA80CB5A
:05027A0012049480C68F
:0A027F007428C0E07413C0E074801E
:0D028900C0E0120CAB15811581158180AF0E
:0A0296007442C0E07413C0E07480ED
:0C02A000C0E0120CAB1581158115812205
:0702AC0085248285258312E1
:0602B3000A6E120A32750A
:0602B9001502E4F5161227
:0E02BF00128DAA82AB83BA0005BB0002800834
:0802CD00BA0155BB0052802963
:0A02D50074AFC0E07413C0E0748041
:0E02DF00C0E0120CAB1581158115811208E6E6
:0702ED001209D41208E6908B
:0A02F40013C075F08012094F802737
:0A02FE0074CEC0E07413C0E07480F9
:0E030800C0E0120CAB1581158115811208E6BC
:070316001209D41208E69061
:08031D0013E075F08012094F96
:0A03250074EFC0E07413C0E07480B0
:0C032F00C0E0120CAB1581158115812275
:07033B008524828525831251
:060342000A6E120A32757A
:060348001502E4F5161297
:0E034E00128DAA82AB83BA0005BB00028008A4
:08035C00BA0155BB00528029D3
:0A03640074F2C0E07413C0E074806E
:0E036E00C0E0120CAB1581158115811208E656
:07037C001209D41208E690FB
:0A038300140575F08012094F802761
:0A038D007415C0E07414C0E0748021
:0E039700C0E0120CAB1581158115811208E62D
:0703A5001209D41208E690D2
:0803AC00142B75F08012094FBB
:0A03B40074EFC0E07413C0E0748021
:0C03BE00C0E0120CAB15811581158122E6
:0403CA0075263C75E3
:0303CE002714757C
:0403D10028807529E2
:0303D50045752A41
:0503D80014752B807577
:0303DD002C4E752E
:0303E0002D147564
:0403E3002E80752FC4
:0303E70058753016
:0503EA0014753180755F
:0303EF0032617503
:0303F2003314754C
:0403F50034807535A6
:0303F900697536ED
:0503FC00147537807547
:03040100387475D7
:0304040039147533
:060407003A808524828585
:06040D002583120A6E12A5
:070413000A32751507E4F53C
:0C041A001612128DAA82AB83C002C00330
:0A042600747DC0E07414C0E074801F
:0E043000C0E0120CAB158115811581D003D0F0
:09043E00028A158B1690000312CE
:0C0447000A7DE5822426F8860208860360
:0E04530008860418188A828B838CF0C0001271
:070461000C3874EFC0E074D9
:0C04680013C0E07480C0E0120CAB1581E2
:0B047400158115811208E61209D41250
:0E047F0008E6D00086020886030886048A82FA
:07048D008B838CF002094F84
:0A049400E4FAFBF53BF53C7E097F1E
:0C049E0000C002C003C006C0077493C079
:0C04AA00E07414C0E07480C0E0120CABE1
:0E04B600158115811581D007D006D003D00224
:0904C400BE2306BF00030205A7D8
:0E04CD00C002C003120094A882D003D002E83F
:0D04DB00FE3395E0FFBE4105BF000280DC4E
:0804E800BE4205BF000280D4F2
:0804F000BE4305BF000280CCF1
:0804F800BE4405BF000280C4F0
:08050000BE2A05BF000280BC09
:08050800BE2305BF000280B410
:0D051000C002C003C006C007C006C00774CB
:0A051D00A8C0E07414C0E07480C0B0
:0E052700E0120CABE58124FBF581D007D00675
:09053500D003D0028A158B169048
:0E053E00000AC006C007120A7DA882A983D059
:0E054C0007D006EE24D0FCEF34FFFDEC28FAB9
:0E055A00ED39FBC002C003C006C007C002C0DE
:0A0568000374ABC0E07414C0E0742B
:0A05720080C0E0743DC0E07400C0DA
:0E057C00E07440C0E0120BEBE58124F8F5813D
:07058A001208E61209D41269
:0905910008E690003D75F04012EF
:0D059A00094FD007D006D003D0020204C4E0
:0D05A7007E097F00C002C003C006C00774BB
:0A05B400AEC0E07414C0E07480C013
:0E05BE00E0120CAB158115811581D007D00617
:0405CC00D003D00286
:0905D000BE2306BF00030206A7CA
:0E05D900C002C003120094AC82D003D002EC2A
:0D05E700FE3395E0FFBE4105BF000280DC41
:0805F400BE4205BF000280D4E5
:0805FC00BE4305BF000280CCE4
:08060400BE4405BF000280C4E2
:08060C00BE2A05BF000280BCFC
:08061400BE2305BF000280B403
:0D061C00C002C003C006C007C006C00774BE
:0A062900A8C0E07414C0E07480C0A3
:0C063300E0120CABE58124FBF581853B57
:03063F0015853CE2
:0C0642001690000A120A7DAC82AD83D035
:0E064E0007D006EE24D0F8EF34FFF9E82CF5C3
:0A065C003BE93DF53CC006C007C0B5
:040666003BC03C74E5
:0A066A00ABC0E07414C0E07480C05F
:0A067400E0743DC0E07400C0E074C3
:0D067E0040C0E0120BEBE58124F8F581127D
:06068B0008E61209D4127A
:0906910008E690003D75F04012EE
:0D069A00094FD007D006D003D0020205D0D2
:0A06A700C002C00374EFC0E074133A
:0E06B100C0E07480C0E0120CAB1581158115FD
:0C06BF0081D003D002C3EA953BEB6480BD
:0C06CB00853CF063F08095F0500F8A042D
:0A06D7008B05E53BC39AFEE53C9B52
:0306E100FF807027
:0A06E400C3E53B9AE53C64808BF00F
:0A06EE0063F08095F0500FAC3BADB7
:0806F8003CEAC3953BFEEB95C3
:040700003CFF8050EA
:0C070400C002C003C002C00374C6C0E005
:0C0710007414C0E07480C0E0120CABE573
:0A071C008124FBF58174E0C0E07455
:0A07260014C0E07480C0E0743DC010
:0C073000E07400C0E07440C0E0120BEB6D
:0D073C00E58124F8F5811208E61209D412B7
:0907490008E690003D75F0400245
:02075200094F4D
:0A075400852482852583C004C005BA
:0E075E00C006C007120A6E120A32D007D0067B
:05076C008E158F16122E
:0E077100128DAA82AB83D005D004EC2AFAEDDB
:0C077F003BFBC002C003C002C00374EFCB
:0B078B00C0E07414C0E07480C0E012F5
:0C0796000CABE58124FBF58174FEC0E093
:0A07A2007414C0E07480C0E0743DE0
:0B07AC00C0E07400C0E07440C0E01228
:0C07B7000BEBE58124F8F5811208E61236
:0607C30009D41208E690C3
:0807C900003D75F04002094FEC
:0E07D100538EF75389F0438901C28C758A005C
:0407DF00758C0022F3
:0E07E300C0E0C0D075D000758C5E758A05052B
:0607F10024E4B52402051A
:0107F70025DC
:0507F800D0D0D0E0327A
:0C07FD00AA8475840F758C677BB87C0B98
:050809001BBBFF011CF8
:04080E00EB4C70F748
:0E081200E58C30E7FB759701758A008A842219
:0E082000AA8475840FD2AFD2A975E10475E2E7
:0D082E000075E34043A40143A5408A8422E5
:0E083B00AA8475840075884053890F43892074
:0E084900438E10758DE8D28E75840075985020
:08085700759100D2998A8422F8
:0512E0001B5B324A0017
:0E12E50041736B206D6520796F7572207175F5
:0E12F300657374696F6E732C204272696467B4
:0E13010065204B65657065722E204920616D78
:0E130F00206E6F74206166726169642E0A0A96
:02131D000D00C1
:09131F004920616D204C4344009B
:0E132800696E76616C69642063686F69636545
:0C1336002E20676F206469652E0A0D00F0
:0E1342000A0D43686F6F7365206F6E65206F34
:0E135000662074686520666F6C6C6F77696E3E
:0E135E00673A0D0A202020313A205965732F7E
:0E136C004E6F0D0A202020323A205472756513
:0E137A002F46616C73650D0A202020333A2047
:0E138800446179206F66205765656B0D0A2061
:0E1396002020343A2052616E646F6D204E7537
:0B13A4006D6265720A2020200A0D0017
:0E13AF004E6F2E204675636B20796F752E20D1
:0313BD000A0D0016
:0E13C0004E6F2E204675636B20796F752E00E0
:0E13CE005965732E204675636B207965612E7C
:0413DC00200A0D00D6
:0E13E0005965732E204675636B207965612E6A
:0113EE0000FE
:0313EF000A0D00E4
:0E13F20046414C53452E20594F55204C49453D
:051400002E200A0D0082
:0E14050046414C53452E20594F55204C494529
:021413002E00A9
:0E141500545255452C204D4F544845524655D3
:08142300434B4552200A0D0065
:0E142B00545255452E2054455354414D454EC4
:03143900542E002E
:09143C004D45524E444559210072
:0914450054574F5344455921004E
:0A144E005745524E53444559210002
:091458005455525344455921003A
:08146100465252444559210096
:0B1469005345525445524445592100A0
:091474005355524E444559210024
:0E147D0045524D4552474552442120474552A5
:08148B0044204445524D2000AD
:0E149300456E746572206669727374206E7502
:0714A1006D6265723A200044
:0314A800256300B9
:0314AB00256400B5
:0E14AE000A0D456E746572207365636F6E647F
:0A14BC00206E756D6265723A200023
:0E14C60053616D65206675636B696E27206E3D
:0C14D400756D6265723A2025640A0D00F7
:0E14E0004675636B696E2073616D652025642F
:0114EE0000FD
:0E14EF004675636B696E272025640A0D0A0D91
:0114FD0000EE
:0A14FE004675636B696E20256400DB
:0E085F00AA8475840F53F8F87582C8C002127F
:0E086D000A0875E8387582011209FF758205C8
:0E087B001209FF43F8047582051209FF53F8B5
:0E088900FB758232120A0875E838758201127A
:0E08970009FF7582051209FF43F804758205FA
:0E08A5001209FF53F8FB758203120A0875E86A
:0E08B300387582011209FF7582051209FF4394
:0E08C100F8047582051209FF53F8FB758203D7
:0A08CF00120A0875820612099E1233
:0D08D90009D475820E12099ED0028A842275
:0E08E600AA8475840F75E8FF53F8FE43F802EC
:0D08F400758203C0021209FFD00243F80410
:0E090100758202C0021209FFD002E5E820E76D
:04090F00F18A8422C3
:0E091300AA82AB8475840FC002C0031208E6EE
:0E092100D003D00243F80153F8FD8AE8758236
:0E092F0001C0031209FF7582051209FF43F88B
:0E093D00047582051209FFD00353F8FB8B846A
:04094B00758201228E
:0A094F00AA82AB83ACF07D007E00AD
:0E095900ED2AFFEE3BF88C018F82888389F037
:0E0967001212716031ED2AFFEE3BF88C018F09
:0E09750082888389F0121271F582C002C003DD
:0E098300C004C005C006120913D006D005D06E
:0C09910004D003D0020DBD00BF0E80BCDE
:01099D002237
:0E099E00AA82AB8475840FC002C0031208E663
:0E09AC00D003D00253F8FC8AE8758201C00324
:0E09BA001209FF7582051209FF43F8047582C9
:0C09C800051209FFD00353F8FB8B8422BA
:0C09D40075820112099E75828002099E46
:0A09E000AA8274804AF58202099E83
:0609EA0075828002099EE7
:0909F00030000675820E02099E1A
:0609F90075820C02099E4C
:0209FF00AA82CA
:070A01008A031AEB70FA22D0
:020A0800AA82C0
:0E0A0A008A031AEB600C7582FFC0021209FF0E
:040A1800D00280EE9A
:010A1C0022B7
:020A1D00AA82AB
:0E0A1F008A031AEB600C7582FFC002120A08EF
:040A2D00D00280EE85
:010A310022A2
:07007400750801E4F509F530
:03007B000AF50B78
:040A32008508158599
:030A360009168519
:030A39000A178514
:0A0A3C000B18904E6D75F0C6744162
:0E0A4600120A9AAA82AB83ACF0FD74392AF52D
:090A54000874303BF509E43CF59F
:060A5D000AE43DF50BAABE
:0A0A63000AAB0B8A82747F5BF583F7
:010A6D002266
:090A6E00AA82AB838A088B09758A
:060A77000A00750B0022CD
:06004200E478FFF6D8FD92
:080020007900E94400601B7A3D
:050028000090151378A3
:03002D000075A2B9
:0A00300000E493F2A308B8000205F3
:08003A00A2D9F4DAF275A2FF6D
:0B0A7D00E5828515F0A4C582C0F0855D
:0A0A880016F0A4D0F025F0C5838518
:080A920015F0A42583F5832271
:0C0A9A00AAF0FBE5828515F0A4FCADF08D
:0C0AA600E5838515F0A42DFDE435F0FE7D
:0C0AB200E5828516F0A42DFDE5F03EFE67
:0C0ABE00E433FFEA8515F0A42EFEE5F0FD
:0C0ACA003FFFE5838516F0A42EFEE5F04A
:0C0AD6003FFFE5828517F0A42EFEE5F03E
:0B0AE2003FFFEB8515F0A42FFFEA8515
:0A0AED0016F0A42FFFE5838517F033
:0C0AF700A42FFFE5828518F0A42F8EF0DC
:050B03008D838C8222AD
:080B0800E515451660467A016F
:070B1000E51525E0F515E5F0
:090B170016334012F516E5829533
:0A0B200015E583951640030A80E6F0
:030B2A00C3E5160A
:070B2D0013F516E51513F5A1
:010B340015AB
:0A0B3500C3E5829515F5F0E5839500
:080B3F00164005F58385F082E4
:070B4700C3E51613F516E5E6
:060B4E001513F515DAE1B4
:010B5400227E
:080048007800E84400600A7929
:030050000075A296
:0600530000E4F309D8FCF3
:080059007800E84400600C7916
:0B00610000900000E4F0A3D8FCD9FAE6
:080B5500C013858113C082E585
:0C0B5D001324FBF886820886830886F0CB
:0B0B6900121271FEA3121271FFA31202
:0D0B74001271FA74012EFBE43FFC8A05E5C6
:0C0B81001324FBF886820886830886F0A7
:0C0B8D00EB1212C7A3EC1212C7A3ED126A
:0C0B990012C78E828F838AF0A81308E632
:070BA5001212C7851381D075
:020BAC00132212
:080BAE0085821085831185F09A
:030BB6001275595C
:050BB90010755A0075E3
:040BBE005B40850C07
:030BC2005C850D42
:030BC5005D850E3D
:030BC8005E850F38
:050BCB005F900B5512C4
:090BD0000D6BAA82AB83AC10ADE1
:0A0BD90011AE128C828D838EF0E4C1
:080BE3001212C78A828B8322E3
:060BEB00C013858113E533
:060BF1001324F8F55FE596
:070BF7001324FBFA8A597573
:060BFE005A00755B40E5A2
:080C04001324F8F8865C088651
:050C0C005D08865E900A
:0A0C11000B55120D6BAA82AB83E5B0
:0C0C1B001324FBF88604088605088606F2
:0E0C27008C828D838EF0E41212C78A828B833A
:030C3500D01322B7
:0A0C3800AA82AB83ACF07D007E00C1
:0E0C42008A828B838CF0121271FF60258F82E4
:050C50000ABA00010BCF
:0E0C5500C002C003C004C005C006120081D05A
:0E0C630006D005D004D003D0020DBD00D20E85
:020C710080CF32
:0E0C730075820AC005C006120081D006D005A9
:060C81008D828E83A32288
:060C8700C0138581131269
:050C8D000081D01322DC
:080C920085825C85835D85F01D
:050C9A005EE4F559F5D0
:040C9F005AF55B8522
:030CA300145F904B
:050CA6000C87020D6B3C
:060CAB00C013858113E572
:070CB1001324FBF55FE4F5DD
:040CB80059F55AF59B
:070CBC005BE51324FBF88641
:060CC3005C08865D088656
:050CC9005E900C871293
:050CCE000D6BD01322A4
:070CD300AA82C04FC050C00F
:060CDA005174EAC0E07451
:060CE0000CC0E0C04DC095
:040CE6004E8A82228E
:0A0CEA001581158115810557E4B549
:040CF4005702055846
:010CF80022D9
:0E0CF900AA8274302AFA24C6500A74072AFA16
:060D07003001034302204D
:050D0D008A82020CD3F4
:0E0D1200E582FAC4540FF582C002120CF9D02B
:090D200002740F5AF582020CF96D
:060D2900858215AB52ACFF
:040D2F0053AD54AEBE
:040D330055AF5675ED
:020D3700162084
:0E0D3900EF2FFFEE235401FA4207EB2BFBECE9
:0C0D470033FCED33FDEE33FEC3EF9515D9
:0A0D53004008EFC39515FF430301AC
:060D5D00D516D98B528C63
:040D6300538D548ECA
:040D6700558F56222C
:070D6B0085824D85834E8552
:030D7200594F8551
:030D75005A50854C
:040D78005B51E4F5F2
:030D7C0057F558D0
:050D7F00AA5CAB5DACB5
:0C0D84005E8A828B838CF0121271FD7469
:090D9000012AF55CE43BF55D8CE1
:080D99005EEDFA700302125234
:050DA100BA25028003E9
:030DA60002124AEC
:050DA900C202C203C2FA
:040DAE0004C205C2B4
:040DB20006C207C2AC
:040DB60008C20975F1
:080DBA0060007561007DFFAED1
:040DC2005CAF5DAB1A
:010DC6005ECE
:0E0DC7008E828F838BF0121271FAA3AE82AF70
:060DD500838E5C8F5D8B34
:0B0DDB005EBA25078A82120CD38099B3
:050DE6008A04BC30008E
:0D0DEB00402A8A04EC24C64023BDFF13E516
:0B0DF8006175F00AA4FCEA24D02CF581
:070E03006170C1D20380BD44
:0D0E0A00ED75F00AA4FCEA24D02CFD80B0A8
:0A0E1700BA2E07BDFFAA7D0080A6D9
:050E21008A04BC610021
:0D0E2600400E8A04EC248540075302DFD201
:030E330001800239
:020E3600C201F7
:050E3800BA2002805504
:050E3D00BA2B02804BFE
:050E4200BA2D02804101
:050E4700BA4202804BDD
:050E4C00BA43028050D2
:060E5100BA4403020FFC8D
:060E5700BA46030210126E
:060E5D00BA4903020FFC7C
:050E6300BA4C028034CE
:060E6800BA4F0302100363
:060E6E00BA5003020F93CD
:050E7400BA5302804C9E
:060E7900BA550302100847
:060E7F00BA580302100D39
:030E850002101642
:050E8800D202020DC7BB
:050E8D00D204020DC7B4
:050E9200D205020DC7AE
:050E9700D207020DC7A7
:050E9C00D208020DC7A1
:080EA10030070AE55F14F88830
:050EA9005F8602800FCE
:0A0EAE00E55F24FEF8885F86030864
:050EB8008604188B0206
:080EBD008A82120CD302101FFF
:0A0EC500E55F24FDF8885F8603084E
:0A0ECF00860408860618188B528C62
:040ED900538E54855B
:060EDD005282855383855B
:0C0EE30054F0C005121259AB82AC83D051
:060EEF0005BDFF028B05AA
:0A0EF50020022CC3EB95615026E5A6
:060EFF0061C39BF561AC2C
:010F0500618A
:0C0F06008C061C8C61EE6014758220C00B
:0E0F120003C004C005120CD3D005D004D003D8
:020F200080E46B
:020F22008C61E0
:020F24008D043A
:070F2600855282855383858B
:0C0F2D0054F0121271FDFA602F8C051CAC
:0E0F3900C374808DF063F08095F050208A82A2
:0C0F4700C003C004120CD3D004D003ADD2
:040F530052AE53AF98
:060F5700540DBD00010E67
:050F5D008D528E538F40
:030F62005480C1F7
:060F650020020302101F30
:090F6B00C3EB9561400302101F65
:070F7400E561C39BF561ACD0
:010F7B006114
:0B0F7C008C051C8C61ED700302101D41
:0C0F8700758220C004120CD3D00480E955
:0A0F9300E55F24FDF8885F8605087D
:0A0F9D00860608860718188D528E8C
:040FA700538F54AD63
:040FAB0054BD8000B1
:060FAF0040047A438014A7
:030FB500BD60001C
:060FB80040047A50800B9A
:030FBE00BD400033
:060FC10040047A498002A1
:020FC7007A5856
:0E0FC9008A82C002120CD375823A120CD375C4
:0E0FD7008230120CD3758278120CD3D002BA7D
:040FE5004902800B32
:050FE900BA5002800671
:060FEE00855382120D1272
:080FF400855282120D128023C8
:070FFC00D20675600A801C9B
:05100300756008801774
:0510080075600A801272
:05100D00756010800D6C
:04101200D209800976
:071016008A82120CD3800254
:02101D008C61E4
:09101F0030095AE55F24FCF88851
:0C1028005F860408860508860608860717
:081034001818188C528D538E20
:04103C00548F557503
:03104000520875DE
:03104300531575CD
:021046005480D4
:0410480085526385E5
:03104C0053648565
:05104F00546574012549
:0710540063FFE43564FCAD0D
:04105B00658F528CBF
:04105F00538D5485D4
:06106300638285648385B1
:0A10690065F0121271FCFA70030228
:021073000D7FEF
:071075008A82120CD380CC2B
:07107C00E5607003020D7F27
:0410830075621E3044
:07108700072BE55F14F88858
:0A108E005FE6FD3395E0FEFFFC8DE8
:04109800528E538F92
:04109C00548C5520FB
:0A10A000065EAC527D007E007F006A
:0510AA008C528D538EF5
:0510AF00548F55804C38
:0910B40030081FE55F24FCF888F8
:0C10BD005F860408860508860608860782
:0810C9001818188C528D538E8B
:0510D100548F55802A38
:0A10D600E55F24FEF8885F86040839
:0C10E000860518ED3395E0FEFF8C528D64
:0410EC00538E548F3C
:0510F0005520060CACC8
:0810F50052AD537E007F008E16
:0310FD00548F55B8
:0A110000300622E55530E71BC3E47A
:09110A009552FCE49553FDE495B7
:0711130054FEE49555FF8C2A
:04111A00528D538E11
:05111E00548F55800212
:02112300C20602
:06112500D20AA8627C0062
:0A112B00755600856082C004C00004
:0B113500120D29D000D004200A0DE5A7
:0A11400056C4FDE6FE4DF618886265
:02114A00800221
:02114C00A656A5
:08114E000C8C03B20AE55245C6
:041156005345544564
:08115A005570CE88628C03E59C
:06116200617003756101DC
:0A116800200324200221EB04FCAD5B
:01117200611B
:0E117300C3EC9D5015758220C003C004C0055A
:0C118100120CD3D005D004D0031D80E672
:02118D008D6172
:0C118F0030060E75822DC003120CD3D068
:05119B00031561802333
:0C11A000EB602030040E75822BC003129F
:0811AC000CD3D0031561800F84
:0C11B40030050C758220C003120CD3D053
:0311C000031561B3
:0511C300200224AC61D4
:0B11C8008C051C8C61C3EB9D502B308C
:0611D30003047D308002E0
:0211D9007D2077
:0E11DB008D82C003C004120CD3D004D0038058
:0111E900DE27
:0A11EA00C3EB95615008E561C39B5B
:0411F400F56180071A
:0511F80075610080029A
:0211FD008C6103
:0211FF00A862E4
:0A1201008B041BEC6026B20A200AE1
:0B120B000A08E6C4540FFC8C56800754
:071216008604740F5CF5561D
:0C121D00855682C003C000120CF9D000FE
:04122900D00380D49A
:06122D00200203020D7F08
:02123300AB61AD
:091235008B041BEC7003020D7F19
:0C123E00758220C003120CD3D00380EB9B
:08124A008A82120CD3020D7F11
:0712520085578285588322B5
:0B1508003C4E4F20464C4F41543E002B
:04125900AA82AB8337
:08125D001212716003A380F876
:0C126500C3E5829AF582E5839BF58322A5
:030013007581658F
:0A0016001212C3E582600302000E1F
:0E12710020F71430F6148883A88220F507E6D3
:06127F00A8837583002224
:03128500E280F70D
:03128800E49322CA
:02128B00E0225F
:0E128D00C2D5E58330E70DD2D5E4C39582F5D6
:06129B0082E49583F58357
:0A12A100E51630E70BE4C39515F5E0
:0512AB0015E49516F5A5
:0112B0001627
:0E12B100120B0830D50BE4C39582F582E4954C
:0312BF0083F58331
:0112C2002209
:0412C300758200220E
:0E12C70020F71030F6118883A88220F507F674
:0512D500A883758300F1
:0112DA0022F1
:0312DB00F280F7A7
:0212DE00F022FC
:00000001FF
