:03000000020008F3
:07006100E4F508F509E4F5E0
:050068000AF50BE4F5B0
:05006D000CF50DE4F5A7
:050072000EF50FE4F59E
:0300770010F51170
:03007A000200037E
:0500030012009080FED8
:02007D00AA8255
:05007F0010990280FB56
:030084008A992234
:0500870010980280FB4F
:04008C0085998222AE
:0D00900075FFDE75FFAD12021712023A1265
:06009D00025712027B1263
:0E00A300028F12029D75840053E8F3C2EDD265
:0100B100EC62
:0A00B20020EDFD747FC0E0740AC069
:0E00BC00E07480C0E012039915811581158152
:0A00CA007484C0E0740AC0E0748082
:0B00D400C0E012039915811581158111
:0400DF00850A0C85FD
:0300E3000B0D857D
:0300E600100A8578
:0300E900110B12E6
:0700EC0001088582108583E5
:0300F30011850E66
:0300F60008850F6B
:0600F9000912019E858240
:0500FF000E85830F12C5
:04010400019780D708
:04010800C2EDD2EC86
:0E010C0030EDFDC2ECABBF7A00ACBE7D00EC66
:0E011A002AFAED3BFB8A828B8312030FAC8224
:0E012800AD83AEF0FFE4C0E074F0C0E074FF01
:0E013600C0E07444C0E08C828D838EF0EF1226
:0E01440002ABAC82AD83AEF0FFE58124FCF58A
:0E015200818C828D838EF0EF12031BAA82AB8C
:0E01600083ACBE7D00AEBF7F00C002C003C0F6
:0C016E0004C005C006C007C002C0037436
:0A017A0098C0E0740AC0E07480C071
:0E018400E0120399E58124F7F581D003D00243
:050192008A828B83222C
:07019700850ED2850FD32273
:0C019E0043C30875C20275C18085119230
:0701AA00851091850D92AA5A
:0A01B1000A8A9175C20175C1ECAB1A
:0C01BB000B8B928A9175C20275C1608B9B
:0E01C700928A91AB967A00AC957D00EC2AFAF4
:0E01D500ED3BFB8A828B8312030FAC82AD835D
:0E01E300AEF0FF7401C0E0740CC0E074C0C048
:0D01F100E07439C0E08C828D838EF0EF1237
:0E01FE0002B6AC82AD83AEF0FFE58124FCF5C5
:0B020C00818C828D838EF0EF02031BBB
:0C021700AA8475840F758C677BB87C0B83
:050223001BBBFF011CE4
:04022800EB4C70F734
:0E022C00E58C30E7FB759701758A008A842205
:0E023A00AA8475840F75E10475E20075E34037
:0E02480053A4FE43800153A5FC4390038A8417
:010256002285
:0E025700AA8475840075884053890F4389205E
:0E026500438E10758DE8D28E7584007598500A
:08027300759100D2998A8422E2
:0E027B00AA8475840075E88075D10275BB00F9
:0602890075BA008A842210
:0E028F00AA8475840043D48053D4E08A84226C
:0E029D00AA8475840343C30A53C3FE8A8422D5
:050A7F001B5B324A0080
:0E0A840057652077696C6C206E6F7420736F5D
:060A9200772E200A0D0082
:0E0A9800257520483A202578204C3A202578F4
:030AA6000A0D0036
:0B02AB00A8811818C6B2E7C60202B610
:06003700E478FFF6D8FD9D
:080015007900E94400601B7A48
:05001D0000900AB47818
:030022000075A2C4
:0A00250000E493F2A308B8000205FE
:08002F00A2D9F4DAF275A2FF78
:08003D007800E84400600A7934
:030045000075A2A1
:0600480000E4F309D8FCFE
:08004E007800E84400600C7921
:0B00560000900000E4F0A3D8FCD9FAF1
:0302B6001209A882
:0902B9007900E583B58202800D95
:0502C200500312094782
:0802C700E583C395821209D6FC
:0802CF00E5D0C465D020E11761
:0E02D700EA2DFAEB3EFBEC3FFC5009740112DD
:0602E50009D6EC4480FC88
:0302EB00020326E5
:0E02EE00C3EA9DFAEB9EFBEC9FFC500FC3E4AD
:0D02FC0099F9E49AFAE49BFBE49CFCB2D172
:06030900120A190203268E
:0C030F00E4AC83AB82FAF9748E02099E04
:0B031B007F8E120A48F58385F08222D5
:06032600B98003EA13B3E5
:0E032C004010EA2401FAE43BFBE43CFC5004E0
:04033A007C8005823C
:09033E00BC000EBB000BBA000864
:08034700E4F5F0F583F58222D4
:0E034F00A2D1E582138CF092F78B838A822272
:0D035D00E4F583F58275F080F4A2D113223F
:0B036A00E4F583F58275F0C0747F227B
:06037500C0138581131284
:05037B00007DD01322FB
:0803800085823185833285F08E
:0503880033E4F52EF541
:04038D002FF5308593
:0303910012349093
:0503940003750204598D
:06039900C013858113E58D
:07039F001324FBF534E4F523
:0403A6002EF52FF50C
:0703AA0030E51324FBF88687
:0603B100310886320886C7
:0503B7003390037512F4
:0503BC000459D01322DA
:0703C100AA82C024C025C080
:0603C8002674D8C0E074A9
:0603CE0003C0E0C022C0E4
:0403D400238A8222D4
:0A03D800158115811581052CE4B58F
:0403E2002C02052DB7
:0103E60022F4
:0E03E700AA8274302AFA24C6500A74072AFA31
:0603F5003000034302206A
:0503FB008A820203C12B
:0E040000E582FAC4540FF582C0021203E7D061
:09040E0002740F5AF5820203E7A3
:06041700858214AB27AC46
:04041D0028AD29AE2F
:040421002AAF2B755E
:020425001520A0
:0E042700EF2FFFEE235401FA4207EB2BFBEC04
:0C04350033FCED33FDEE33FEC3EF9514F5
:0A0441004008EFC39514FF430301C8
:06044B00D515D98B278CAA
:04045100288D298E3B
:040455002A8F2B229D
:0704590085822285832385C3
:030460002E2485C2
:030463002F2585BD
:040466003026E4F563
:03046A002CF52D41
:05046D00AA31AB32AC26
:0C047200338A828B838CF0120979FD74B0
:09047E00012AF531E43BF5328C52
:0804870033EDFA700302094095
:05048F00BA2502800304
:0304940002093822
:05049700C201C202C217
:04049C0003C204C2D1
:0404A00005C206C2C9
:0404A40007C208750E
:0804A80035007536007DFFAE42
:0404B00031AF32AB8B
:0104B4003314
:0E04B5008E828F838BF0120979FAA3AE82AF8C
:0604C300838E318F328BA5
:0B04C90033BA25078A821203C1809914
:0504D4008A04BC3000A9
:0D04D900402A8A04EC24C64023BDFF13E531
:0B04E6003675F00AA4FCEA24D02CF5C7
:0704F1003670C1D20280BD8C
:0D04F800ED75F00AA4FCEA24D02CFD80B0C4
:0A050500BA2E07BDFFAA7D0080A6F4
:05050F008A04BC61003C
:0D051400400E8A04EC248540075302DFD21C
:0305210000800255
:02052400C20013
:05052600BA200280551F
:05052B00BA2B02804B19
:05053000BA2D0280411C
:05053500BA4202804BF8
:05053A00BA43028050ED
:06053F00BA44030206EAC3
:06054500BA4603020700A4
:06054B00BA49030206EAB2
:05055100BA4C028034E9
:06055600BA4F030206F19A
:06055C00BA500302068103
:05056200BA5302804CB9
:06056700BA55030206F67E
:06056D00BA58030206FB70
:0305730002070478
:05057600D2010204B5F2
:05057B00D2030204B5EB
:05058000D2040204B5E5
:05058500D2060204B5DE
:05058A00D2070204B5D8
:08058F0030060AE53414F88877
:05059700348602800F14
:0A059C00E53424FEF88834860308D5
:0505A6008604188B0221
:0805AB008A821203C102070D50
:0A05B300E53424FDF88834860308BF
:0A05BD00860408860618188B278CA8
:0405C700288E2985CC
:0605CB00278285288385CC
:0C05D10029F0C005120961AB82AC83D098
:0605DD0005BDFF028B05C5
:0A05E30020012CC3EB95365026E5ED
:0605ED0036C39BF536AC9D
:0105F30036D1
:0C05F4008C061C8C36EE6014758220C052
:0E06000003C004C0051203C1D005D004D0030E
:02060E0080E486
:020610008C3626
:020612008D0455
:0706140085278285288385FC
:0C061B0029F0120979FDFA602F8C051CF3
:0E062700C374808DF063F08095F050208A82BD
:0C063500C003C0041203C1D004D003AD08
:0406410027AE28AF09
:06064500290DBD00010EAD
:05064B008D278E288FB1
:030650002980C13D
:0606530020010302070D67
:09065900C3EB9536400302070DC6
:07066200E536C39BF536AC41
:01066900365A
:0B066A008C051C8C36ED700302070BA2
:0C067500758220C0041203C1D00480E98B
:0A068100E53424FDF88834860508EE
:0A068B00860608860718188D278ED2
:04069500288F29ADD4
:0406990029BD8000F7
:06069D0040047A438014C2
:0306A300BD600037
:0606A60040047A50800BB5
:0306AC00BD40004E
:0606AF0040047A498002BC
:0206B5007A5871
:0E06B7008A82C0021203C175823A1203C17515
:0E06C50082301203C17582781203C1D002BACE
:0406D3004902800B4D
:0506D700BA500280068C
:0606DC00852882120400D3
:0806E200852782120400802329
:0706EA00D20575350A801CE2
:0506F1007535088017BB
:0506F60075350A8012B9
:0506FB00753510800DB3
:04070000D208800992
:070704008A821203C180028A
:02070B008C362A
:09070D0030085AE53424FCF88898
:0C0716003486040886050886060886075D
:080722001818188C278D288E91
:04072A00298F2A7574
:03072E0027A97583
:03073100280A751E
:0207340029801A
:040736008527388556
:03073A00283985D6
:05073D00293A740125BA
:0707420038FFE43539FCAD7E
:040749003A8F278C30
:04074D00288D298545
:0607510038828539838522
:0A0757003AF0120979FCFA7003026F
:02076100046D25
:070763008A821203C180CC61
:07076A00E535700302046D88
:0407710075371B308D
:07077500062BE53414F8889F
:0A077C0034E6FD3395E0FEFFFC8D2E
:04078600278E288F03
:04078A00298C2A206C
:0A078E00055EAC277D007E007F00B1
:050798008C278D288E66
:05079D00298F2A804CA9
:0907A20030071FE53424FCF8883F
:0C07AB00348604088605088606088607C8
:0807B7001818188C278D288EFC
:0507BF00298F2A802AA9
:0A07C400E53424FEF88834860408AA
:0C07CE00860518ED3395E0FEFF8C278DAA
:0407DA00288E298FAD
:0507DE002A20050CAC0F
:0807E30027AD287E007F008E87
:0307EB00298F2A29
:0A07EE00300522E52A30E71BC3E4C2
:0907F8009527FCE49528FDE49529
:0708010029FEE4952AFF8C9B
:04080800278D288E82
:05080C00298F2A800283
:02081100C2051E
:06081300D209A8377C00A9
:0A081900752B00853582C004C00075
:0B082300120417D000D00420090DE5DE
:0A082E002BC4FDE6FE4DF6188837D6
:0208380080023C
:02083A00A62BEB
:08083C000C8C03B209E527450D
:0408440028452945D5
:080848002A70CE88378C03E50D
:060850003670037536014D
:0A085600200224200121EB04FCAD78
:010860003661
:0E086100C3EC9D5015758220C003C004C00575
:0C086F001203C1D005D004D0031D80E6A8
:02087B008D36B8
:0C087D0030050E75822DC0031203C1D09F
:05088900031536802379
:0C088E00EB602030030E75822BC00312BB
:08089A0003C1D0031536800FE5
:0C08A20030040C758220C0031203C1D08A
:0308AE00031536F9
:0508B100200124AC361B
:0B08B6008C051C8C36C3EB9D502B30D2
:0608C10002047D308002FC
:0208C7007D2092
:0E08C9008D82C003C0041203C1D004D003808E
:0108D700DE42
:0A08D800C3EB95365008E536C39BCC
:0408E200F536800760
:0508E6007536008002E0
:0208EB008C3649
:0208ED00A8372A
:0A08EF008B041BEC6026B2092009FF
:0B08F9000A08E6C4540FFC8C2B80079B
:070904008604740F5CF52B63
:0C090B00852B82C003C0001203E7D0005F
:04091700D00380D4B5
:06091B0020010302046D3F
:02092100AB36F3
:090923008B041BEC700302046D4F
:0C092C00758220C0031203C1D00380EBD1
:080938008A821203C102046D62
:07094000852C82852D832226
:0B0AA9003C4E4F20464C4F41543E0095
:0E094700E582C583F582A2D133A2D592D113E9
:0C09550092D5ECCFFCEBCEFBEACDFA22F1
:04096100AA82AB8338
:080965001209796003A380F878
:0C096D00C3E5829AF582E5839BF58322A6
:0300080075813AC5
:0A000B00120A42E5826003020003BE
:0E09790020F71430F6148883A88220F507E6D4
:06098700A8837583002225
:03098D00E280F70E
:03099000E49322CB
:02099300E02260
:09099500FCABF0AA83A982749E58
:02099E00C2D1C4
:0809A000F582120A1902032678
:0D09A800AA82AB83A2F73392D16002D2F78E
:0E09B500F582ACF0E58124F9F8E6FD08E6FED7
:0E09C3000886F008E6A2F73392D56002D2F75C
:0509D100F583AFF022E8
:0909D6006040F82582500274FF14
:0E09DF00F582E824F8501ECCCBCAF9E4CC24F3
:0E09ED00F85014CBCAF9E4CB24F8500BCAF929
:0909FB00E4CA24F850037900223B
:050A040024086010F859
:0E0A0900C3EC13FCEB13FBEA13FAE913F9D864
:010A1700F1ED
:010A180022BB
:020A190078045F
:0E0A1B00EC700DC9CACBFCE58224F8F582D838
:020A2900F122B8
:020A2B00782031
:0E0A2D0020E7111582C3E933F9EA33FAEB33FF
:060A3B00FBEC33FCD8ECDB
:010A41002292
:040A42007582002297
:020A46007F9E91
:090A4800120A6D30D103020347CC
:0E0A5100C3EF9582500974FFF5F0F583F5822E
:010A5F002274
:050A600079001209D627
:080A650089828A838BF0EC22E8
:0D0A6D00AA82AB83A2F73392D16002D2F7C8
:050A7A00F582ACF02242
:00000001FF
