:03000000020008F3
:07006100E4F508F509E4F5E0
:050068000AF50BE4F5B0
:05006D000CF50DE4F5A7
:050072000EF50FE4F59E
:0300770010F51170
:03007A000200037E
:0500030012009080FED8
:02007D00AA8255
:05007F0010990280FB56
:030084008A992234
:0500870010980280FB4F
:04008C0085998222AE
:0D00900075FFDE75FFAD1201B91201DC1223
:06009D0001F912021D1220
:0E00A300023112023F75840053E8F3C2EDD221
:0100B100EC62
:0A00B20020EDFD7457C0E07408C093
:0E00BC00E07480C0E01202711581158115817B
:0A00CA00745CC0E07408C0E07480AC
:0B00D400C0E01202711581158115813A
:0400DF00850A0C85FD
:0300E3000B0D857D
:0300E600100A8578
:0300E900110B12E6
:0700EC0001088582108583E5
:0300F30011850E66
:0300F60008850F6B
:0600F9000912013B8582A3
:0500FF000E85830F12C5
:04010400012D80D772
:09010800AA84758400C2EDD2EC5A
:0E01110030EDFDC2ECABBFADBE7E008B047BBB
:0E011F0000ED2BFBEE3CFC8A848B828C83224D
:0A012D00AA84758400850ED2850FA8
:04013700D38A8422C1
:0E013B00AA8475840343C30875C20175C140D0
:0701490085119285109185DC
:0A0150000D92850C9175C20075C177
:0A015A00F6850B92850A9175C2012B
:0A01640075C1308509928508917B72
:07016E000A7C008B058C06E2
:050175001DBDFF011E8D
:09017A00ED4E70F7758403FBFCE7
:0E018300C3EB940AEC64809480500F43C320B9
:0C019100E5C320E0FB0BBB00E90C80E69E
:0E019D00AC947B00AD937E00ED2BFBEE3CFCA2
:0E01AB00E593E5947584008A848B828C832210
:0C01B900AA8475840F758C677BB87C0BE2
:0501C5001BBBFF011C43
:0401CA00EB4C70F793
:0E01CE00E58C30E7FB759701758A008A842264
:0E01DC00AA8475840F75E10475E20075E34096
:0E01EA0053A4FE43800153A5FC4390038A8476
:0101F80022E4
:0E01F900AA8475840075884053890F438920BD
:0E020700438E10758DE8D28E75840075985068
:08021500759100D2998A842240
:0E021D00AA8475840075E88075D10275BB0057
:06022B0075BA008A84226E
:0E023100AA8475840043D48053D4E08A8422CA
:0E023F00AA8475840343C31853C3FE8A842225
:050857001B5B324A00AA
:0E085C0057652077696C6C206E6F7420736F87
:06086A00772E200A0D00AC
:06003700E478FFF6D8FD9D
:080015007900E94400601B7A48
:05001D000090087B7853
:030022000075A2C4
:0A00250000E493F2A308B8000205FE
:08002F00A2D9F4DAF275A2FF78
:08003D007800E84400600A7934
:030045000075A2A1
:0600480000E4F309D8FCFE
:08004E007800E84400600C7921
:0B00560000900000E4F0A3D8FCD9FAF1
:06024D00C01385811312AD
:05025300007DD0132224
:0802580085823185833285F0B7
:0502600033E4F52EF56A
:040265002FF53085BC
:03026900123490BC
:05026C00024D02033108
:06027100C013858113E5B6
:070277001324FBF534E4F54C
:04027E002EF52FF535
:0702820030E51324FBF886B0
:06028900310886320886F0
:05028F003390024D1246
:050294000331D013222C
:07029900AA82C024C025C0A9
:0602A0002674B0C0E074FA
:0602A60002C0E0C022C00E
:0402AC00238A8222FD
:0A02B000158115811581052CE4B5B8
:0402BA002C02052DE0
:0102BE00221D
:0E02BF00AA8274302AFA24C6500A74072AFA5A
:0602CD0030000343022093
:0502D3008A820202997D
:0E02D800E582FAC4540FF582C0021202BFD0B4
:0902E60002740F5AF5820202BFF6
:0602EF00858214AB27AC70
:0402F50028AD29AE59
:0402F9002AAF2B7588
:0202FD001520CA
:0E02FF00EF2FFFEE235401FA4207EB2BFBEC2E
:0C030D0033FCED33FDEE33FEC3EF95141E
:0A0319004008EFC39514FF430301F1
:06032300D515D98B278CD3
:04032900288D298E64
:04032D002A8F2B22C6
:0703310085822285832385EC
:030338002E2485EB
:03033B002F2585E6
:04033E003026E4F58C
:030342002CF52D6A
:05034500AA31AB32AC4F
:0C034A00338A828B838CF0120837FD741C
:09035600012AF531E43BF5328C7B
:08035F0033EDFA7003020818E7
:05036700BA250280032D
:03036C0002081074
:05036F00C201C202C240
:0403740003C204C2FA
:0403780005C206C2F2
:04037C0007C2087537
:0803800035007536007DFFAE6B
:0403880031AF32ABB4
:01038C00333D
:0E038D008E828F838BF0120837FAA3AE82AFF8
:06039B00838E318F328BCE
:0B03A10033BA25078A82120299809966
:0503AC008A04BC3000D2
:0D03B100402A8A04EC24C64023BDFF13E55A
:0B03BE003675F00AA4FCEA24D02CF5F0
:0703C9003670C1D20280BDB5
:0D03D000ED75F00AA4FCEA24D02CFD80B0ED
:0A03DD00BA2E07BDFFAA7D0080A61E
:0503E7008A04BC610066
:0D03EC00400E8A04EC248540075302DFD246
:0303F9000080027F
:0203FC00C2003D
:0503FE00BA2002805549
:05040300BA2B02804B42
:05040800BA2D02804145
:05040D00BA4202804B21
:05041200BA4302805016
:06041700BA44030205C215
:06041D00BA46030205D8F7
:06042300BA49030205C204
:05042900BA4C02803412
:06042E00BA4F030205C9EC
:06043400BA500302055955
:05043A00BA5302804CE2
:06043F00BA55030205CED0
:06044500BA58030205D3C2
:03044B000205DCCB
:05044E00D20102038D44
:05045300D20302038D3D
:05045800D20402038D37
:05045D00D20602038D30
:05046200D20702038D2A
:0804670030060AE53414F888A0
:05046F00348602800F3D
:0A047400E53424FEF88834860308FE
:05047E008604188B024A
:080483008A821202990205E5CC
:0A048B00E53424FDF88834860308E8
:0A049500860408860618188B278CD1
:04049F00288E2985F5
:0604A300278285288385F5
:0C04A90029F0C00512081FAB82AC83D004
:0604B50005BDFF028B05EE
:0A04BB0020012CC3EB95365026E516
:0604C50036C39BF536ACC6
:0104CB0036FA
:0C04CC008C061C8C36EE6014758220C07B
:0E04D80003C004C005120299D005D004D00361
:0204E60080E4B0
:0204E8008C3650
:0204EA008D047F
:0704EC008527828528838526
:0C04F30029F0120837FDFA602F8C051C60
:0E04FF00C374808DF063F08095F050208A82E7
:0C050D00C003C004120299D004D003AD5A
:0405190027AE28AF32
:06051D00290DBD00010ED6
:050523008D278E288FDA
:030528002980C166
:06052B002001030205E5BA
:09053100C3EB953640030205E519
:07053A00E536C39BF536AC6A
:010541003683
:0B0542008C051C8C36ED70030205E3F5
:0C054D00758220C004120299D00480E9DD
:0A055900E53424FDF8883486050817
:0A056300860608860718188D278EFB
:04056D00288F29ADFD
:0405710029BD800020
:0605750040047A438014EB
:03057B00BD600060
:06057E0040047A50800BDE
:03058400BD400077
:0605870040047A498002E5
:02058D007A589A
:0E058F008A82C00212029975823A1202997590
:0E059D008230120299758278120299D002BA49
:0405AB004902800B76
:0505AF00BA50028006B5
:0605B4008528821202D826
:0805BA008527821202D880237C
:0705C200D20575350A801C0B
:0505C9007535088017E4
:0505CE0075350A8012E2
:0505D300753510800DDC
:0405D800D2088009BC
:0705DC008A821202998002DD
:0205E3008C3654
:0905E50030085AE53424FCF888C2
:0C05EE0034860408860508860608860787
:0805FA001818188C278D288EBB
:04060200298F2A759D
:03060600277075E5
:0306090028087549
:02060C00298043
:04060E00852738857F
:03061200283985FF
:05061500293A740125E3
:07061A0038FFE43539FCADA7
:040621003A8F278C59
:04062500288D29856E
:060629003882853983854B
:0A062F003AF0120837FCFA700302DB
:02063900034577
:07063B008A8212029980CCB3
:07064200E5357003020345DA
:0406490075371B30B6
:07064D00062BE53414F888C8
:0A06540034E6FD3395E0FEFFFC8D57
:04065E00278E288F2C
:04066200298C2A2095
:0A066600055EAC277D007E007F00DA
:050670008C278D288E8F
:05067500298F2A804CD2
:09067A0030071FE53424FCF88868
:0C068300348604088605088606088607F1
:08068F001818188C278D288E25
:05069700298F2A802AD2
:0A069C00E53424FEF88834860408D3
:0C06A600860518ED3395E0FEFF8C278DD3
:0406B200288E298FD6
:0506B6002A20050CAC38
:0806BB0027AD287E007F008EB0
:0306C300298F2A52
:0A06C600300522E52A30E71BC3E4EB
:0906D0009527FCE49528FDE49552
:0706D90029FEE4952AFF8CC5
:0406E000278D288EAC
:0506E400298F2A8002AD
:0206E900C20548
:0606EB00D209A8377C00D3
:0A06F100752B00853582C004C0009F
:0B06FB001202EFD000D00420090DE532
:0A0706002BC4FDE6FE4DF6188837FF
:02071000800265
:02071200A62B14
:080714000C8C03B209E5274536
:04071C0028452945FE
:080720002A70CE88378C03E536
:0607280036700375360176
:0A072E00200224200121EB04FCADA1
:01073800368A
:0E073900C3EC9D5015758220C003C004C0059E
:0C074700120299D005D004D0031D80E6FA
:020753008D36E1
:0C07550030050E75822DC003120299D0F1
:050761000315368023A2
:0C076600EB602030030E75822BC00312E4
:080772000299D0031536800F37
:0C077A0030040C758220C003120299D0DC
:0307860003153622
:05078900200124AC3644
:0B078E008C051C8C36C3EB9D502B30FB
:0607990002047D30800225
:02079F007D20BB
:0E07A1008D82C003C004120299D004D00380E0
:0107AF00DE6B
:0A07B000C3EB95365008E536C39BF5
:0407BA00F536800789
:0507BE00753600800209
:0207C3008C3672
:0207C500A83753
:0A07C7008B041BEC6026B209200928
:0B07D1000A08E6C4540FFC8C2B8007C4
:0707DC008604740F5CF52B8D
:0C07E300852B82C003C0001202BFD000B2
:0407EF00D00380D4DF
:0607F30020010302034592
:0207F900AB361D
:0907FB008B041BEC7003020345A2
:0C080400758220C003120299D00380EB23
:080810008A82120299020345DD
:07081800852C82852D83224F
:0B0870003C4E4F20464C4F41543E00D0
:04081F00AA82AB837B
:080823001208376003A380F8FE
:0C082B00C3E5829AF582E5839BF58322E9
:0300080075813AC5
:0A000B00120853E5826003020003AF
:0E08370020F71430F6148883A88220F507E617
:06084500A8837583002268
:03084B00E280F751
:03084E00E493220E
:02085100E022A3
:040853007582002288
:00000001FF
