:03000000020008F3
:0300610002000397
:0500030012007780FEF1
:02006400AA826E
:0500660010990280FB6F
:03006B008A99224D
:05006E0010980280FB68
:0400730085998222C7
:0D00770075FFDE75FFAD1200CB1200EE121A
:0A008400010B7584007439C0E074AC
:0C008E0007C0E07480C0E012015315812F
:04009A001581158136
:0E009E00741E5590F5A0AA907B00ACA07D00CA
:0C00AC00C002C003C004C0057450C0E0D6
:0C00B8007407C0E07480C0E0120153E542
:0700C4008124F9F58180D3CE
:0C00CB00AA8475840F758C677BB87C0BD1
:0500D7001BBBFF011C32
:0400DC00EB4C70F782
:0E00E000E58C30E7FB759701758A008A842253
:0E00EE00AA8475840F75E10475E20075E34085
:0E00FC0043A40153A5E043901F43A60F8A843E
:01010A0022D2
:0E010B00AA8475840075884053890F438920AB
:0E011900438E10758DE8D28E75840075985057
:08012700759100D2998A84222F
:0E07390052656164696E6720696E7075747335
:0907470020746F2050310A0D00EE
:0E07500050323A202578205031203A2025786A
:03075E000A0D0081
:06003700E478FFF6D8FD9D
:080015007900E94400601B7A48
:05001D000090076C7863
:030022000075A2C4
:0A00250000E493F2A308B8000205FE
:08002F00A2D9F4DAF275A2FF78
:08003D007800E84400600A7934
:030045000075A2A1
:0600480000E4F309D8FCFE
:08004E007800E84400600C7921
:0B00560000900000E4F0A3D8FCD9FAF1
:06012F00C00985810912E0
:050135000064D0092266
:08013A0085823185833285F0D6
:0501420033E4F52EF589
:040147002FF53085DB
:03014B00083490E5
:05014E00012F02021365
:06015300C009858109E5E9
:070159000924FBF534E4F575
:040160002EF52FF554
:0701640030E50924FBF886D9
:06016B003108863208860F
:050171003390012F1284
:050176000213D0092274
:07017B00AA82C024C025C0C8
:06018200267492C0E07437
:0601880001C0E0C022C02E
:04018E00238A82221C
:0A019200158115811581052CE4B5D7
:04019C002C02052DFF
:0101A000223C
:0E01A100AA8274302AFA24C6500A74072AFA79
:0601AF00300003430220B2
:0501B5008A8202017BBB
:0E01BA00E582FAC4540FF582C0021201A1D0F2
:0901C80002740F5AF5820201A134
:0601D10085820AAB27AC99
:0401D70028AD29AE78
:0401DB002AAF2B75A7
:0201DF000B20F3
:0E01E100EF2FFFEE235401FA4207EB2BFBEC4D
:0C01EF0033FCED33FDEE33FEC3EF950A48
:0A01FB004008EFC3950AFF4303011B
:06020500D50BD98B278CFC
:04020B00288D298E83
:04020F002A8F2B22E5
:07021300858222858323850B
:03021A002E24850A
:03021D002F258505
:040220003026E4F5AB
:030224002CF52D89
:05022700AA31AB32AC6E
:0C022C00338A828B838CF0120719FD745A
:09023800012AF531E43BF5328C9A
:0802410033EDFA70030206FA26
:05024900BA250280034C
:03024E000206F2B3
:05025100C201C202C25F
:0402560003C204C219
:04025A0005C206C211
:04025E0007C2087556
:0802620035007536007DFFAE8A
:04026A0031AF32ABD3
:01026E00335C
:0E026F008E828F838BF0120719FAA3AE82AF36
:06027D00838E318F328BED
:0B02830033BA25078A8212017B8099A4
:05028E008A04BC3000F1
:0D029300402A8A04EC24C64023BDFF13E579
:0B02A0003675F00AA4FCEA24D02CF50F
:0702AB003670C1D20280BDD4
:0D02B200ED75F00AA4FCEA24D02CFD80B00C
:0A02BF00BA2E07BDFFAA7D0080A63D
:0502C9008A04BC610085
:0D02CE00400E8A04EC248540075302DFD265
:0302DB000080029E
:0202DE00C2005C
:0502E000BA2002805568
:0502E500BA2B02804B62
:0502EA00BA2D02804165
:0502EF00BA4202804B41
:0502F400BA4302805036
:0602F900BA44030204A454
:0602FF00BA46030204BA36
:06030500BA49030204A442
:05030B00BA4C02803431
:06031000BA4F030204AB2A
:06031600BA500302043B93
:05031C00BA5302804C01
:06032100BA55030204B00E
:06032700BA58030204B500
:03032D000204BE09
:05033000D20102026F82
:05033500D20302026F7B
:05033A00D20402026F75
:05033F00D20602026F6E
:05034400D20702026F68
:0803490030060AE53414F888BF
:05035100348602800F5C
:0A035600E53424FEF888348603081D
:050360008604188B0269
:080365008A8212017B0204C729
:0A036D00E53424FDF8883486030807
:0A037700860408860618188B278CF0
:04038100288E298514
:0603850027828528838514
:0C038B0029F0C005120701AB82AC83D042
:0603970005BDFF028B050D
:0A039D0020012CC3EB95365026E535
:0603A70036C39BF536ACE5
:0103AD003619
:0C03AE008C061C8C36EE6014758220C09A
:0E03BA0003C004C00512017BD005D004D0039F
:0203C80080E4CF
:0203CA008C366F
:0203CC008D049E
:0703CE008527828528838545
:0C03D50029F0120719FDFA602F8C051C9E
:0E03E100C374808DF063F08095F050208A8206
:0C03EF00C003C00412017BD004D003AD99
:0403FB0027AE28AF52
:0603FF00290DBD00010EF6
:050405008D278E288FF9
:03040A002980C185
:06040D002001030204C7F8
:09041300C3EB953640030204C757
:07041C00E536C39BF536AC89
:0104230036A2
:0B0424008C051C8C36ED70030204C533
:0C042F00758220C00412017BD00480E91B
:0A043B00E53424FDF8883486050836
:0A044500860608860718188D278E1A
:04044F00288F29AD1C
:0404530029BD80003F
:0604570040047A4380140A
:03045D00BD60007F
:0604600040047A50800BFD
:03046600BD400096
:0604690040047A49800204
:02046F007A58B9
:0E0471008A82C00212017B75823A12017B75ED
:0E047F00823012017B75827812017BD002BAA6
:04048D004902800B95
:05049100BA50028006D4
:060496008528821201BA64
:08049C008527821201BA8023BA
:0704A400D20575350A801C2A
:0504AB00753508801703
:0504B00075350A801201
:0504B500753510800DFB
:0404BA00D2088009DB
:0704BE008A8212017B80021B
:0204C5008C3673
:0904C70030085AE53424FCF888E1
:0C04D000348604088605088606088607A6
:0804DC001818188C278D288EDA
:0404E400298F2A75BD
:0304E80027617514
:0304EB002807756A
:0204EE00298063
:0404F000852738859F
:0304F4002839851F
:0504F700293A74012503
:0704FC0038FFE43539FCADC7
:040503003A8F278C78
:04050700288D29858D
:06050B003882853983856A
:0A0511003AF0120719FCFA70030219
:02051B000227B5
:07051D008A8212017B80CCF1
:07052400E535700302022718
:04052B0075371130DF
:07052F00062BE53414F888E7
:0A05360034E6FD3395E0FEFFFC8D76
:04054000278E288F4B
:04054400298C2A20B4
:0A054800055EAC277D007E007F00F9
:050552008C278D288EAE
:05055700298F2A804CF1
:09055C0030071FE53424FCF88887
:0C05650034860408860508860608860710
:080571001818188C278D288E44
:05057900298F2A802AF1
:0A057E00E53424FEF88834860408F2
:0C058800860518ED3395E0FEFF8C278DF2
:04059400288E298FF5
:050598002A20050CAC57
:08059D0027AD287E007F008ECF
:0305A500298F2A71
:0A05A800300522E52A30E71BC3E40A
:0905B2009527FCE49528FDE49571
:0705BB0029FEE4952AFF8CE4
:0405C200278D288ECB
:0505C600298F2A8002CC
:0205CB00C20567
:0605CD00D209A8377C00F2
:0A05D300752B00853582C004C000BE
:0B05DD001201D1D000D00420090DE570
:0A05E8002BC4FDE6FE4DF61888371F
:0205F200800285
:0205F400A62B34
:0805F6000C8C03B209E5274556
:0405FE00284529451E
:080602002A70CE88378C03E555
:06060A0036700375360195
:0A061000200224200121EB04FCADC0
:01061A0036A9
:0E061B00C3EC9D5015758220C003C004C005BD
:0C06290012017BD005D004D0031D80E638
:020635008D3600
:0C06370030050E75822DC00312017BD02F
:050643000315368023C1
:0C064800EB602030030E75822BC0031203
:08065400017BD0031536800F75
:0C065C0030040C758220C00312017BD01A
:0306680003153641
:05066B00200124AC3663
:0B0670008C051C8C36C3EB9D502B301A
:06067B0002047D30800244
:020681007D20DA
:0E0683008D82C003C00412017BD004D003801E
:01069100DE8A
:0A069200C3EB95365008E536C39B14
:04069C00F5368007A8
:0506A000753600800228
:0206A5008C3691
:0206A700A83772
:0A06A9008B041BEC6026B209200947
:0B06B3000A08E6C4540FFC8C2B8007E3
:0706BE008604740F5CF52BAC
:0C06C500852B82C003C0001201A1D000F0
:0406D100D00380D4FE
:0606D500200103020227D0
:0206DB00AB363C
:0906DD008B041BEC7003020227E0
:0C06E600758220C00312017BD00380EB62
:0806F2008A8212017B0202273B
:0706FA00852C82852D83226F
:0B0761003C4E4F20464C4F41543E00E0
:04070100AA82AB839A
:080705001207196003A380F83C
:0C070D00C3E5829AF582E5839BF5832208
:0300080075813AC5
:0A000B00120735E5826003020003CE
:0E07190020F71430F6148883A88220F507E636
:06072700A8837583002287
:03072D00E280F770
:03073000E493222D
:02073300E022C2
:0407350075820022A7
:00000001FF
