:0600000002000B0200AD3E
:0700640075234E752400C254
:01006B000094
:03006C0002000689
:050006001201DA80FE8A
:02006F00AA8263
:0500710010990280FB64
:030076008A992242
:0500790010980280FB5D
:04007E0085998222BC
:07008200744EB5230280F962
:0700890085238275234E223E
:0E009000AA8475840F75E2045388FC43A8818E
:0E009E0075A7F075B00F53A4FB4380048A844D
:0100AC002231
:0C00AD00C022C0E0C0F0C082C083C002CE
:0E00B900C003C004C005C006C007C000C001DF
:0C00C700C0D075D000120106858223C253
:0100D30089A3
:0900D400740FB5B0FB7A107B2714
:0500DD001ABAFF011B2F
:0E00E200EA4B70F743A881D0D0D001D000D0F7
:0E00F00007D006D005D004D003D002D083D0B4
:0800FE0082D0F0D0E0D02232E4
:0E010600E5B0AAB07B7875B08F7C2C7D018CA3
:03011400068D074E
:050117001EBEFF011FE8
:0E011C00EE4F70F7740F55B0FEBE0F17BA0706
:05012A00047B31801090
:07012F00BA0B047B328009CA
:07013600BA0D047B338002C7
:02013D007B4104
:0B013F0075B04F7C2C7D018C078D00FB
:05014A001FBFFF0118BA
:0E014F00EF4870F7740F55B0FEBE0F17BA07D9
:05015D00047B3480105A
:07016200BA0B047B35800994
:07016900BA0D047B36800291
:020170007B42D0
:0B01720075B02F7C2C7D018C078D00E8
:05017D001FBFFF011887
:0E018200EF4870F7740F55B0FEBE0F17BA07A6
:05019000047B37801024
:07019500BA0B047B3880095E
:07019C00BA0D047B3980025B
:0201A3007B439C
:0701A50075B01F7C2C7D01E9
:0501AC001CBCFF011D59
:0E01B100EC4D70F7740F55B0FEBE0F17BA0775
:0501BF00047B2A801002
:0701C400BA0B047B30800937
:0701CB00BA0D047B23800242
:0201D2007B446C
:0601D40075B00F8B8222C2
:0D01DA0075FFDE75FFAD120F06120F291222
:0901E7000F6D1200907584007484
:0A01F00085C0E07416C0E07480C002
:0C01FA00E012102B158115811581748A0C
:0B020600C0E07416C0E07480C0E0127D
:08021100102B158115811581E8
:030219001202BA14
:0A021C00120900406974D4C0E074B8
:0C02260016C0E07480C0E012102B15819F
:0A0232001581158120001774DCC04F
:0C023C00E07416C0E07480C0E012102BCB
:08024800158115811581801557
:0A02500074F8C0E07416C0E074807A
:0B025A00C0E012102B158115811581EA
:08026500E524F55A3395E0F59C
:0C026D005B900009120B69AA82BA2007FE
:07027900C2011209508005CB
:05028000D2011209503B
:05028500120334809219
:0A028A007414C0E07417C0E0748023
:0C029400C0E012102B158115811581743B
:0A02A0001CC0E07417C0E07480C0B9
:0E02AA00E012102B15811581158112008202C1
:0202B800021929
:0402BA007A007B004B
:0E02BE00C3EA940AEB6480948050347C007D87
:0E02CC00008A06EBCE25E0CE33CE25E0CE3301
:0502DA00FFEE2425FEEB
:0E02DF00C3EC9404ED64809480500CEC2EF877
:0902ED0076000CBC00EC0D80E968
:0702F6000ABA00C40B80C12D
:0602FD00C200120334747C
:0A030300D4C0E07416C0E07480C09E
:0C030D00E012102B15811581158174DCA5
:0B031900C0E07416C0E07480C0E01269
:0B032400102B158115811581D20112EC
:05032F00095002033437
:0A0334007438C0E07417C0E0748054
:0E033E00C0E012102B1581158115817A007B0D
:05034C00008A048B058E
:0E035100C3EC940BED648094805051BC030506
:05035F00BD0002800654
:06036400BC0722BD001FD2
:0A036A00C004C005743FC0E0741722
:0E037400C0E07480C0E012102B1581158115B9
:0703820081D005D004801DAD
:0A038900C004C0057453C0E07417EF
:0E039300C0E07480C0E012102B15811581159A
:0503A10081D005D0042D
:0703A6000CBC00A70D80A4B0
:0C03AD00120CD3E524FC3395E0FD8C829B
:0C03B9008D83120DC3120EED7A007B0044
:0E03C500C3EA9409EB6480948050168A828B00
:0E03D30083C002C0031203E7D003D0020ABAAF
:0503E10000E20B80DFCB
:0103E60022F4
:0703E70085824D85834E75F0
:0603EE000A03E4F50B8593
:0603F4004D82854E8312CC
:0C03FA00160DAC82AD83EC2482F582ED80
:0C0406003416F583E493FC3395E0FD759B
:060412000A03E4F50B856E
:0A0418004D82854E83C004C005121A
:0C0422001643AE82AF83EE247FF582EF1C
:0C042E003416F583E493FE3395E0FFC024
:0A043A0006C0077467C0E07417C025
:0E044400E07480C0E012102BE58124F9F581F0
:04045200854D5A85F5
:060456004E5B900009124C
:09045C000B69AC82BC580280035C
:0304650002054944
:0A0468007470C0E07417C0E07480E7
:0C047200C0E012102B158115811581755A
:06047E000A03E4F50B8502
:060484004D82854E83123B
:0C048A00160DAC82AD83EC2482F582EDEF
:0A0496003416F583E493FE8E4F3315
:0904A00095E0F550750A03E4F53E
:0504A9000B854D82856A
:0C04AE004E83C004C005121643A882A9AA
:0C04BA0083D005D004E8247FF582E934EB
:0C04C60016F583E493FE3395E0FF0EBEB4
:0304D20000010F17
:0B04D500C004C005C000C001C04FC043
:0A04E00050C006C0077475C0E07438
:0C04EA0017C0E07480C0E012102BE58108
:0E04F60024F9F581D001D000D005D004EC240B
:0A05040082F582ED3416F583E493CE
:0C050E00FC3395E0FDE8247FF582E93421
:0C051A0016F583E493FE3395E0FF7402B5
:0E0526002EFEE43FFFC004C005C006C00774EF
:0A05340082C0E07417C0E07480C0BC
:0B053E00E012102BE58124F9F581226A
:04054900854D5A85FD
:06054D004E5B9000091254
:090553000B69AC82BC4F0280036D
:03055C0002064054
:0A055F00748FC0E07417C0E07480D0
:0C056900C0E012102B1581158115817562
:060575000A03E4F50B850A
:06057B004D82854E831243
:0C058100160DAC82AD83EC2482F582EDF7
:0A058D003416F583E493FE8E4F331D
:0905970095E0F550750A03E4F546
:0505A0000B854D828572
:0C05A5004E83C004C005121643A882A9B2
:0C05B10083D005D004E8247FF582E934F3
:0C05BD0016F583E493FE3395E0FF0EBEBC
:0305C90000010F1F
:0B05CC00C004C005C000C001C04FC04B
:0A05D70050C006C0077494C0E07421
:0C05E10017C0E07480C0E012102BE58110
:0E05ED0024F9F581D001D000D005D004EC2413
:0A05FB0082F582ED3416F583E493D7
:0C060500FC3395E0FDE8247FF582E93429
:0C06110016F583E493FE3395E0FF7402BD
:0E061D002EFEE43FFFC004C005C006C00774F7
:0A062B00A1C0E07417C0E07480C0A5
:0B063500E012102BE58124F9F5812272
:0A0640007C007D00750A03E4F50B51
:0A064A00854D82854E83C004C00573
:0C06540012160DAE82AF83750A03E4F5A8
:050660000B854D8285B1
:0C0665004E83C006C007121643A882A9ED
:0906710083D007D006D005D004A7
:0C067A00C3EC9409ED64809480400122E0
:0A068600750A03E4F50B8C828D83E6
:0D069000C004C005C006C007C000C00112B4
:0E069D00160DE5828583F0D001D000D007D085
:0C06AB0006D005D00445F0600302074AA9
:0A06B700EE2482F582EF3416F5837D
:0C06C100E493FA3395E0FBE8247FF58217
:0C06CD00E93416F583C000C001E493F886
:0806D900884F3395E0F55075E0
:0A06E1000A03E4F50B8C828D83C040
:0E06EB0002C003C004C005C006C007121643BB
:0E06F900A882A983D007D006D005D004D00374
:0A070700D002E8254FF8E93550F95B
:0E071100C004C005C006C007C000C001C00281
:0B071F00C003C000C0017467C0E0749C
:0C072A0017C0E07480C0E012102BE581C5
:0E07360024F9F581D001D000D007D006D005FF
:06074400D004D001D0003A
:05074A008C5A8D5B8557
:0A074F004D82854E83C004C005C032
:0E07590006C007C000C001120B69E582FA332A
:0C07670095E0FBC002C00374ADC0E0745C
:0C07730017C0E07480C0E012102BE5817C
:0E077F0024FBF581D001D000D007D006D005B4
:0A078D00D004750A03E4F50B8C821A
:0E0797008D83C004C005C006C007C000C001AD
:0E07A50012160DAA82AB83D001D000D007D06F
:0D07B30006D005D004BA0205BB0002802D5F
:0D07C000C004C005C006C007C000C0017421
:0A07CD00B0C0E07417C0E07480C0F3
:0E07D700E012102B158115811581D001D00084
:0807E500D007D006D005D004B6
:0507ED000CBC00010D31
:0307F20002067A82
:0C07F500AA82AB837C007D008C068D077F
:0D080100C3EE9409EF64809480502DEE2426
:05080E0051F88E5A8F25
:0C0813005B8A828B83C002C003C006C059
:0E081F0007C000120B69E582D000D007D0069A
:0C082D00D003D002F60EBE00CB0F80C836
:080839007C007D008C028D03A0
:0D084100C3EA9403EB64809480503CEA24E9
:0A084E0051F886068A0774032F2470
:0A08580051F88607EEB50721EA24E7
:0A08620051F886068A0774062F2459
:0A086C0051F88607EEB5070DEA24E7
:0908760051F88606BE2002800242
:02087F00D32282
:070881000ABA00BC0B80B9AC
:080888007C007D008C028D0351
:0D089000C3EA9407EB64809480503DEA2495
:0A089D0051F886048A05ED04245189
:0C08A700F88605ECB50521EA2451F8861E
:0C08B300048A0574022D2451F88605EC1F
:0C08BF00B5050DEA2451F88604BC2002A7
:0208CB008002A9
:0208CD00D32234
:0908CF0074032AFAE43BFB80B833
:0608D800E555B5510EE5E7
:0708DE0059B551097420B562
:0408E500510280023A
:0208E900D32218
:0608EB00E555B5530EE5D2
:0708F10057B553097420B54F
:0408F8005302800225
:0208FC00D32205
:0208FE00C32213
:0C0900009000091207F5504674D4C0E0C6
:0C090C007416C0E07480C0E012102B15BF
:0A091800811581158120001774B2CB
:0B092200C0E07417C0E07480C0E01259
:0A092D00102B15811581158180152E
:0A09370074D0C0E07417C0E07480B3
:0B094100C0E012102B158115811581FC
:02094C00D322B4
:02094E00C322C2
:090950007AFFE524FB3395E0FC7D
:05095900BA2A0280082B
:05095E00BA2302800332
:03096300BA304364
:0E096600C003C004120082AA82D004D003BADB
:070974002A071BBBFF011C59
:02097B008008F2
:08097D00BA23050BBB00010CBD
:0E0985008B828C83C002C003C004120DC3D04D
:0E09930004D0038B828C83C003C004120EF9C3
:0809A100D004D003D00280B0A5
:0809A90030016E7414C0E0740B
:0C09B10017C0E07480C0E012102B15810C
:0A09BD001581158174EEC0E0741777
:0E09C700C0E07480C0E012102B158115811560
:0409D500817524FF05
:0A09D900E52420E723C37488852479
:0B09E300F063F08095F04016E524F56D
:0A09EE005A3395E0F55B9000091202
:0909F8000B69AB82BB20028019DF
:0A0A0100120082E58224CFF524AB39
:0B0A0B00243395E0FC8B828C83A31247
:040A16000DC380BFCD
:0A0A1A007414C0E07417C0E074808B
:0C0A2400C0E012102B15811581158174A3
:0A0A30000DC0E07418C0E07480C02F
:0E0A3A00E012102B15811581158175F003E572
:0A0A480024C2D530E704D2D5F4042F
:080A520084E5F030D502F40444
:0E0A5A0090168293FB3395E0FCC2D575F00335
:090A6800E52430E704B2D5F404E2
:060A71008430D502F404FC
:0E0A770090167F93FD3395E0FEC003C004C0CF
:0A0A850005C0067467C0E07417C0D6
:0E0A8F00E07480C0E012102BE58124F9F5819F
:020A9D007AFFDE
:0E0A9F00EA20E72DC374888AF063F08095F09A
:0B0AAD004021E524FB3395E0FCEAF556
:0A0AB8005A3395E0F55B8B828C83C6
:0E0AC200C002120B69AB82D002BB2002800A78
:0A0AD000120082E58224CFFA80C5EF
:0A0ADA0020001FE524FB3395E0FC2B
:090AE400EAF55C3395E0F55D755F
:0C0AED005E4F8B828C83C002120C04D080
:030AF90002801D5B
:0A0AFC00E524FB3395E0FCEAF55C0D
:0A0B06003395E0F55D755E588B82B3
:090B10008C83C002120C04D00217
:0C0B1900E524FB3395E0FC8B828C83C04C
:0C0B2500021207F5D0025031200018E544
:070B310024F55C3395E0F5AB
:0A0B38005D755E4F900009C00212C7
:060B42000C04D002801635
:080B4800E524F55C3395E0F5AE
:0A0B50005D755E58900009C00212A6
:040B5A000C04D002B5
:070B5E008A2410000280014F
:010B6500226D
:030B6600D2002298
:0B0B6900AA82AB837CFF750A03E4F551
:050B74000B855A82858B
:0C0B79005B83C002C003C004121643AD31
:0E0B850082D004D003D002EBCA25E0CA33CAE6
:0C0B930025E0CA33EA2425FAED2AF88692
:080B9F0002750A03E4F50B8561
:0A0BA7005A82855B83C002C004126D
:070BB100160D85825A8583B1
:080BB8005BD004D002E55A45B0
:070BC0005B700474035AFC92
:0A0BC7007401B55A06E4B55B028024
:010BD1000221
:020BD200800998
:090BD400740C5AFB0303543FFCAE
:0A0BDD007402B55A06E4B55B02800D
:010BE700020B
:020BE800800883
:080BEA00530230EAC4540FFC71
:070BF200BC010475825822CA
:070BF900BC020475824F22CB
:040C000075822022B7
:0A0C0400AA82AB83755FFF750A0337
:070C0E00E4F50B855C828513
:0C0C15005D83C002C003121643AD82AE26
:080C210083750A03E4F50B855D
:0A0C29005C82855D83C005C00612E1
:070C3300160D85825C85832C
:0C0C3A005DD006D005D003D0027458B580
:070C46005E05755F018008E7
:080C4D00744FB55E03755F02F0
:0A0C5500E55C455D701E8A07EBCFD9
:0C0C5F0025E0CF33CF25E0CF33EF242574
:0C0C6B002DF886045304FCA604E55F4C41
:020C7700F62263
:0A0C79007401B55C06E4B55D02806D
:010C8300026E
:020C84008022CC
:0E0C86008A04EBCC25E0CC33CC25E0CC33EC5B
:0C0C940024252DF886045304F3A604E583
:080CA0005F255F25E04CF62200
:0A0CA8007402B55C06E4B55D02803D
:010CB2000140
:010CB300221E
:0D0CB400EBCA25E0CA33CA25E0CA33EA24A2
:0B0CC100252DF886025302CFA602E5A5
:070CCC005FC454F04AF62258
:090CD30075840FE4F55AF55B90FD
:0E0CDC000009120B69AA82BA4F0575D8018073
:010CEA0018F1
:090CEB00E4F55AF55B90000912D2
:0C0CF4000B69AA82BA580575D80280036B
:030D000075D800A3
:0B0D030075E8007A017B008A048B0574
:0E0D0E00C3EC9405ED64809480504AE5E8251E
:0A0D1C00E025E0F5E88C5A8D5B90AD
:0E0D26000009C004C005120B69AE82D005D0D2
:080D340004BE4F0405E8802015
:0A0D3C008C5A8D5B900009C004C0C2
:0E0D460005120B69AE82D005D004BE5806051A
:050D5400E805E8800342
:030D590085E8E842
:070D5C000CBC00AE0D80ABE2
:070D630075F8007A057B0022
:0E0D6A00C3EA9409EB64809480504AE5F825B2
:0A0D7800E025E0F5F88A5A8B5B9045
:0E0D82000009C002C003120B69AC82D003D07E
:080D900002BC4F0405F88020AD
:0A0D98008A5A8B5B900009C002C06C
:0E0DA20003120B69AC82D003D002BC580605C8
:050DB000F805F88003C6
:030DB50085F8F8C6
:070DB8000ABA00AE0B80AB8C
:040DBF007584002215
:0B0DC300AA82AB8375840FE4F55AF59B
:0C0DCE005B8A828B83C002C003120B6999
:0E0DDA00AC82D003D002BC4F05759001802181
:0A0DE800E4F55AF55B8A828B83C0A4
:0E0DF20002C003120B69AC82D003D002BC58C1
:060E00000575900280035D
:030E0600759000E4
:0B0E090075A0007C017D008C068D07A9
:0E0E1400C3EE9405EF64809480505CE5A02549
:0A0E2200E025E0F5A08E5A8F5B8AF0
:0E0E2C00828B83C002C003C006C007120B6990
:0E0E3A00A882D007D006D003D002B84F04051E
:030E4800A080295E
:0A0E4B008E5A8F5B8A828B83C002EF
:0E0E5500C003C006C007120B69A882D007D0E8
:0E0E630006D003D002B8580605A005A08003F3
:030E710085A0A0B9
:070E74000EBE009C0F8099E7
:070E7B0075C8007C057D0035
:0E0E8200C3EC9409ED64809480505CE5C825B3
:0A0E9000E025E0F5C88C5A8D5B8A5E
:0E0E9A00828B83C002C003C004C005120B6926
:0E0EA800AE82D005D004D003D002BE4F0405A8
:030EB600C88029C8
:0A0EB9008C5A8D5B8A828B83C00285
:0E0EC300C003C004C005120B69AE82D005D07A
:0E0ED10004D003D002BE580605C805C8800331
:030EDF0085C8C8FB
:070EE2000CBC009C0D80997F
:040EE90075840022EA
:0C0EED0075840FE524F4F5D8758400220C
:0D0EF900AA8275840FEAF4F590758400223A
:0C0F0600AA8475840F758C677BB87C0B87
:050F12001BBBFF011CE8
:040F1700EB4C70F738
:0E0F1B00E58C30E7FB759701758A008A842209
:0E0F2900AA8475840F75E10475E20075E3403B
:0E0F370043A401E5A575A5FF759000E5A6751C
:0E0F4500A6FF75A000E59C759CFF75C800E531
:0E0F53009D759DFF75D800E59E759EFF75E8A3
:0C0F610000E59F759FFF75F8008A842250
:0E0F6D00AA8475840075884053890F4389203B
:0E0F7B00438E10758DE8D28E758400759850E7
:080F8900759100D2998A8422BF
:03167F0003070B53
:0316820001070D50
:051685001B5B324A006E
:0E168A00576974682065616368207265766F29
:0E1698006C7574696F6E2C2077652067657421
:0E16A600206F6E65207374657020636C6F7327
:0E16B40065723B2074686174277320686F773D
:0E16C2002061206472696C6C20776F726B730C
:0416D0002E0A0D00D1
:0816D4001B5B31353B3148007E
:0E16DC0049742069732063757272656E746CB8
:0E16EA0079204F2773207475726E2E0A0D0042
:0E16F80049742069732063757272656E746C9C
:0E1706007920582773207475726E2E0A0D001C
:081714001B5B31363B3148003C
:0E171C00507265737320616E79206B657920C1
:0E172A00746F20706C617920616761696E00D8
:071738001B5B333B3148004D
:0E173F002D2D2D2D2D7C2D2D2D2D2D7C2D2D88
:06174D002D2D2D0A0D00F8
:0E17530020202020207C20202020207C202010
:061761002020200A0D000B
:091767001B5B25643B256448006E
:05177000582020580084
:0D1775001B5B25643B25644820585820006C
:0D1782001B5B25643B25644858202058005F
:05178F00204F4F200077
:0D1794001B5B25643B2564484F20204F005F
:0C17A1001B5B25643B256448204F4F0073
:0317AD00256300B1
:0217B0007C00BB
:0E17B20047616D6520686173206265656E2079
:0E17C000776F6E20627920706C6179657220FF
:0217CE005800C1
:0E17D00047616D6520686173206265656E205B
:0E17DE00776F6E20627920706C6179657220E1
:0217EC004F00AC
:0E17EE0046726565206D6F76652E2043686F2C
:0E17FC006F7365207375622D626F6172642ECB
:03180A000A0D00C4
:0E180D0020202020202020202020202020200D
:0E181B002020202020202020202020202020FF
:0518290020200A0D0063
:06003A00E478FFF6D8FD9A
:080018007900E94400601B7A45
:05002000009018397882
:030025000075A2C1
:0A00280000E493F2A308B8000205FB
:08003200A2D9F4DAF275A2FF75
:080F9100E50A450B60467A01F8
:070F9900E50A25E0F50AE579
:090FA0000B334012F50BE58295BC
:0A0FA9000AE583950B40030A80E679
:030FB300C3E50B88
:070FB60013F50BE50A13F52A
:010FBD000A29
:0A0FBE00C3E582950AF5F0E583957E
:080FC8000B4005F58385F08262
:070FD000C3E50B13F50BE56F
:060FD7000A13F50ADAE13D
:010FDD0022F1
:080040007800E84400600A7931
:030048000075A29E
:06004B0000E4F309D8FCFB
:080051007800E84400600C791E
:0B00590000900000E4F0A3D8FCD9FAEE
:050FDE007A10E4FBFCA9
:0E0FE300E58225E0F582E58333F583EB33FBF1
:0A0FF100EC33FCEB950AF5F0EC95EB
:090FFB000B4006FCABF04382013F
:03100400DADD2210
:06100700C00985810912F9
:05100D00006FD0092274
:0810120085826F85837085F073
:05101A0071E4F56CF526
:04101F006DF56E8578
:03102300087290C0
:0510260010070210EBB1
:06102B00C009858109E502
:071031000924FBF572E4F550
:041038006CF56DF5F1
:07103C006EE50924FBF886B4
:061043006F0886700886AC
:05104900719010071278
:05104E0010EBD00922A7
:07105300AA82C062C063C065
:06105A0064746AC0E0743A
:0610600010C0E0C060C0FA
:04106600618A8222F7
:0A106A00158115811581056AE4B5B2
:041074006A02056B9C
:011078002255
:0E107900AA8274302AFA24C6500A74072AFA92
:06108700300203430220C9
:05108D008A82021053ED
:0E109200E582FAC4540FF582C002121079D024
:0910A00002740F5AF58202107966
:0610A90085820AAB65AC74
:0410AF0066AD67AE15
:0410B30068AF697544
:0210B7000B200C
:0E10B900EF2FFFEE235401FA4207EB2BFBEC66
:0C10C70033FCED33FDEE33FEC3EF950A61
:0A10D3004008EFC3950AFF43030134
:0610DD00D50BD98B658CD8
:0410E300668D678E21
:0410E700688F692283
:0710EB0085826085836185A9
:0310F2006C6285A8
:0310F5006D6385A3
:0410F8006E64E4F549
:0310FC006AF56B27
:0510FF00AA6FAB70AC0C
:0C110400718A828B838CF01215F1FD744F
:09111000012AF56FE43BF5708C37
:0811190071EDFA70030215D21A
:05112100BA2502800365
:031126000215CAE5
:05112900C203C204C274
:04112E0005C206C22E
:0411320007C208C226
:0411360009C20A756B
:08113A0073007574007DFFAE27
:041142006FAF70AB70
:011146007137
:0E1147008E828F838BF01215F1FAA3AE82AF69
:06115500838E6F8F708B8A
:0B115B0071BA25078A82121053809998
:051166008A04BC30000A
:0D116B00402A8A04EC24C64023BDFF13E592
:0B1178007475F00AA4FCEA24D02CF5EA
:071183007470C1D20480BDAD
:0D118A00ED75F00AA4FCEA24D02CFD80B025
:0A119700BA2E07BDFFAA7D0080A656
:0511A1008A04BC61009E
:0D11A600400E8A04EC248540075302DFD27E
:0311B300028002B5
:0211B600C20273
:0511B800BA2002805581
:0511BD00BA2B02804B7B
:0511C200BA2D0280417E
:0511C700BA4202804B5A
:0511CC00BA430280504F
:0611D100BA440302137C86
:0611D700BA460302139268
:0611DD00BA490302137C75
:0511E300BA4C0280344B
:0611E800BA4F030213835D
:0611EE00BA5003021313C6
:0511F400BA5302804C1B
:0611F900BA550302138841
:0611FF00BA580302138D33
:031205000213963B
:05120800D203021147B2
:05120D00D205021147AB
:05121200D206021147A5
:05121700D2080211479E
:05121C00D20902114798
:0812210030080AE57214F88898
:05122900728602800F37
:0A122E00E57224FEF88872860308BA
:051238008604188B0282
:08123D008A8212105302139F74
:0A124500E57224FDF88872860308A4
:0A124F00860408860618188B658CCB
:04125900668E6785B1
:06125D00658285668385B1
:0C12630067F0C0051215D9AB82AC83D037
:06126F0005BDFF028B0526
:0A12750020032CC3EB95745026E50E
:06127F0074C39BF574AC82
:0112850074F4
:0C1286008C061C8C74EE6014758220C075
:0E12920003C004C005121053D005D004D003D1
:0212A00080E4E8
:0212A2008C744A
:0212A4008D04B7
:0712A60085658285668385E2
:0C12AD0067F01215F1FDFA602F8C051C93
:0E12B900C374808DF063F08095F050208A821F
:0C12C700C003C004121053D004D003ADCB
:0412D30065AE66AFEF
:0612D700670DBD00010ED1
:0512DD008D658E668F97
:0312E2006780C161
:0612E50020030302139F29
:0912EB00C3EB9574400302139F4C
:0712F400E574C39BF574AC27
:0112FB00747E
:0B12FC008C051C8C74ED700302139D28
:0C130700758220C004121053D00480E94D
:0A131300E57224FDF88872860508D3
:0A131D00860608860718188D658EF5
:04132700668F67ADB9
:04132B0067BD80001A
:06132F0040047A43801423
:03133500BD600098
:0613380040047A50800B16
:03133E00BD4000AF
:0613410040047A4980021D
:021347007A58D2
:0E1349008A82C00212105375823A1210537538
:0E1357008230121053758278121053D002BAF1
:041365004902800BAE
:05136900BA50028006ED
:06136E0085668212109258
:081374008565821210928023AE
:07137C00D20775730A801C03
:051383007573088017DE
:0513880075730A8012DC
:05138D00757310800DD6
:04139200D20A8009F2
:071396008A8212105380024D
:02139D008C744E
:09139F00300A5AE57224FCF888BA
:0C13A80072860408860508860608860781
:0813B4001818188C658D668E77
:0413BC00678F68755A
:0313C000652E7522
:0313C30066187534
:0213C60067803E
:0413C800856576853C
:0313CC00667785BC
:0513CF006778740125A0
:0713D40076FFE43577FCAD64
:0413DB00788F658C16
:0413DF00668D67852B
:0613E30076828577838508
:0A13E90078F01215F1FCFA7003020F
:0213F30010FFE9
:0713F5008A8212105380CC24
:0713FC00E57370030210FF0E
:0414030075751130BA
:07140700082BE57214F888C0
:0A140E0072E6FD3395E0FEFFFC8D51
:04141800658E668FE8
:04141C00678C682051
:0A142000075EAC657D007E007F00D2
:05142A008C658D668E4B
:05142F00678F68804C8E
:0914340030091FE57224FCF88860
:0C143D00728604088605088606088607EB
:081449001818188C658D668EE1
:05145100678F68802A8E
:0A145600E57224FEF888728604088F
:0C146000860518ED3395E0FEFF8C658DCD
:04146C00668E678F92
:051470006820070CAC30
:0814750065AD667E007F008E6C
:03147D00678F680E
:0A148000300722E56830E71BC3E4E3
:09148A009565FCE49566FDE4950E
:0714930067FEE49568FF8C81
:04149A00658D668E68
:05149E00678F68800269
:0214A300C2077E
:0614A500D20BA8757C00CB
:0A14AB00756900857382C004C0005B
:0B14B5001210A9D000D004200B0DE5A0
:0A14C00069C4FDE6FE4DF6188875BC
:0214CA0080029E
:0214CC00A6690F
:0814CE000C8C03B20BE565452F
:0414D60066456745BB
:0814DA006870CE88758C03E5F3
:0614E20074700375740133
:0A14E800200424200321EB04FCADD6
:0114F2007485
:0E14F300C3EC9D5015758220C003C004C005D7
:0C150100121053D005D004D0031D80E66A
:02150D008D74DB
:0C150F0030070E75822DC003121053D05F
:05151B0003157480239C
:0C152000EB602030050E75822BC003121A
:08152C001053D0031574800F69
:0C15340030060C758220C003121053D04A
:031540000315741C
:05154300200324AC743C
:0B1548008C051C8C74C3EB9D502B30F5
:0615530004047D3080025B
:021559007D20F3
:0E155B008D82C003C004121053D004D0038050
:01156900DEA3
:0A156A00C3EB95745008E574C39BB1
:04157400F574800783
:05157800757400800203
:02157D008C746C
:02157F00A8754D
:0A1581008B041BEC6026B20B200B5C
:0B158B000A08E6C4540FFC8C698007BE
:071596008604740F5CF56987
:0C159D00856982C003C000121079D000E4
:0415A900D00380D417
:0615AD002003030210FF01
:0215B300AB7417
:0915B5008B041BEC70030210FF13
:0C15BE00758220C003121053D00380EB94
:0815CA008A821210530210FF87
:0715D200856A82856B83220C
:0B182E003C4E4F20464C4F41543E0002
:0415D900AA82AB83B4
:0815DD001215F16003A380F870
:0C15E500C3E5829AF582E5839BF5832222
:03000B0075817884
:0A000E0012167BE582600302000673
:0E15F10020F71430F6148883A88220F507E650
:0615FF00A88375830022A1
:03160500E280F789
:03160800E4932246
:02160B00E022DB
:0E160D00C2D5E58330E70DD2D5E4C39582F552
:06161B0082E49583F583D3
:0A162100E50B30E70BE4C3950AF572
:05162B000AE4950BF537
:011630000BAE
:0E163100120F9130D50BE4C39582F582E4953B
:03163F0083F583AD
:011642002285
:0E164300C2D5E58330E70DD2D5E4C39582F51C
:0616510082E49583F5839D
:0A165700E50B30E70DB2D5E4C395B2
:051661000AF50AE49502
:031666000BF50B76
:0E166900120FDE30D50BE4C39582F582E495B6
:0316770083F58375
:01167A00224D
:04167B007582002252
:00000001FF
