:03000000020008F3
:05006100752200C20041
:0300660002000392
:0500030012007C80FEEC
:02006900AA8269
:05006B0010990280FB6A
:030070008A992248
:0500730010980280FB63
:0400780085998222C2
:0D007C0075FFDE75FFAD120BDF120C0212D6
:0A0089000C46758400745EC0E0743C
:0C00930013C0E07480C0E0120D04158161
:0A009F00158115817463C0E074132D
:0E00A900C0E07480C0E0120D041581158115B1
:0100B70081C7
:0300B800120159D9
:0A00BB0012078E406974ADC0E074B6
:0C00C50013C0E07480C0E0120D0415812F
:0A00D1001581158120001774B5C0D9
:0C00DB00E07413C0E07480C0E0120D045B
:0800E7001581158115818015BA
:0A00EF0074D1C0E07413C0E0748007
:0B00F900C0E0120D0415811581158177
:08010400E522F5583395E0F502
:0C010C0059900009120991AA82BA20073C
:07011800C2011207DE8005A1
:05011F00D2011207DE11
:050124001201D38092DE
:0A01290074EDC0E07413C0E07480B0
:0C013300C0E0120D0415811581158174C7
:0A013F00F5C0E07413C0E07480C046
:0E014900E0120D04158115811581120073025C
:0201570000B8EE
:040159007A007B00AD
:0E015D00C3EA940AEB6480948050347C007DE9
:0E016B00008A06EBCE25E0CE33CE25E0CE3363
:05017900FFEE2423FE4F
:0E017E00C3EC9404ED64809480500CEC2EF8D9
:09018C0076000CBC00EC0D80E9CA
:070195000ABA00C40B80C18F
:06019C00C2001201D37441
:0A01A200ADC0E07413C0E07480C02B
:0C01AC00E0120D0415811581158174B559
:0B01B800C0E07413C0E07480C0E012CF
:0B01C3000D04158115811581D2011279
:0501CE0007DE0201D371
:0A01D3007411C0E07414C0E07480E1
:0E01DD00C0E0120D041581158115817A007B9A
:0501EB00008A048B05F1
:0E01F000C3EC940BED648094805051BC030569
:0501FE00BD00028006B7
:06020300BC0722BD001F34
:0A020900C004C0057418C0E07414AE
:0E021300C0E07480C0E0120D04158115811545
:0702210081D005D004801D0F
:0A022800C004C005742CC0E074147B
:0E023200C0E07480C0E0120D04158115811526
:0502400081D005D0048F
:070245000CBC00A70D80A412
:07024C00120AEE7A007B00AC
:0E025300C3EA9409EB6480948050168A828B73
:0E02610083C002C003120275D003D0020ABA95
:05026F0000E20B80DF3E
:010274002267
:0702750085824B85834C7567
:06027C000A03E4F50B8506
:060282004B82854C831243
:0C02880012E6AC82AD83EC245BF582ED45
:0C0294003413F583E493FC3395E0FD7512
:0602A0000A03E4F50B85E2
:0A02A6004B82854C83C004C0051292
:0C02B000131CAE82AF83EE2458F582EFE1
:0C02BC003413F583E493FE3395E0FFC09B
:0A02C80006C0077440C0E07414C0C3
:0E02D200E07480C0E0120D04E58124F9F5818E
:0402E000854B58856D
:0602E4004C5990000912C4
:0902EA000991AC82BC58028003AA
:0302F3000203D72C
:0A02F6007449C0E07414C0E0748085
:0C030000C0E0120D0415811581158175F7
:06030C000A03E4F50B8575
:060312004B82854C8312B2
:0C03180012E6AC82AD83EC245BF582EDB4
:0A0324003413F583E493FE8E4D338D
:09032E0095E0F54E750A03E4F5B3
:050337000B854B8285DF
:0C033C004C83C004C00512131CA882A949
:0C03480083D005D004E82458F582E93485
:0C03540013F583E493FE3395E0FF0EBE2A
:0303600000010F8A
:0B036300C004C005C000C001C04DC0B8
:0A036E004EC006C007744EC0E074D4
:0C03780014C0E07480C0E0120D04E581A8
:0E03840024F9F581D001D000D005D004EC247E
:0A0392005BF582ED3413F583E4936C
:0C039C00FC3395E0FDE82458F582E934BC
:0C03A80013F583E493FE3395E0FF74022C
:0E03B4002EFEE43FFFC004C005C006C0077463
:0A03C2005BC0E07414C0E07480C05A
:0B03CC00E0120D04E58124F9F5812208
:0403D700854B588575
:0603DB004C5990000912CC
:0903E1000991AC82BC4F028003BB
:0303EA000204CE3C
:0A03ED007468C0E07414C0E074806E
:0C03F700C0E0120D041581158115817500
:060403000A03E4F50B857D
:060409004B82854C8312BA
:0C040F0012E6AC82AD83EC245BF582EDBC
:0A041B003413F583E493FE8E4D3395
:0904250095E0F54E750A03E4F5BB
:05042E000B854B8285E7
:0C0433004C83C004C00512131CA882A951
:0C043F0083D005D004E82458F582E9348D
:0C044B0013F583E493FE3395E0FF0EBE32
:0304570000010F92
:0B045A00C004C005C000C001C04DC0C0
:0A0465004EC006C007746DC0E074BD
:0C046F0014C0E07480C0E0120D04E581B0
:0E047B0024F9F581D001D000D005D004EC2486
:0A0489005BF582ED3413F583E49374
:0C049300FC3395E0FDE82458F582E934C4
:0C049F0013F583E493FE3395E0FF740234
:0E04AB002EFEE43FFFC004C005C006C007746B
:0A04B9007AC0E07414C0E07480C043
:0B04C300E0120D04E58124F9F5812210
:0A04CE007C007D00750A03E4F50BC5
:0A04D800854B82854C83C004C005EB
:0C04E2001212E6AE82AF83750A03E4F547
:0504EE000B854B828527
:0C04F3004C83C006C00712131CA882A98D
:0904FF0083D007D006D005D0041B
:0C050800C3EC9409ED6480948040012253
:0A051400750A03E4F50B8C828D8359
:0D051E00C004C005C006C007C000C0011227
:0E052B0012E6E5828583F0D001D000D007D023
:0C05390006D005D00445F060030205D890
:0A054500EE245BF582EF3413F5831A
:0C054F00E493FA3395E0FBE82458F582B1
:0C055B00E93413F583C000C001E493F8FC
:08056700884D3395E0F54E7557
:0A056F000A03E4F50B8C828D83C0B3
:0E05790002C003C004C005C006C00712131C58
:0E058700A882A983D007D006D005D004D003E7
:0A059500D002E8254DF8E9354EF9D3
:0E059F00C004C005C006C007C000C001C002F5
:0B05AD00C003C000C0017440C0E07437
:0C05B80014C0E07480C0E0120D04E58166
:0E05C40024F9F581D001D000D007D006D00573
:0605D200D004D001D000AE
:0505D8008C588D5985CF
:0A05DD004B82854C83C004C005C0AA
:0E05E70006C007C000C001120991E582FA3378
:0C05F50095E0FBC002C0037486C0E074F7
:0C06010014C0E07480C0E0120D04E5811C
:0E060D0024FBF581D001D000D007D006D00527
:0A061B00D004750A03E4F50B8C828D
:0E0625008D83C004C005C006C007C000C00120
:0E0633001212E6AA82AB83D001D000D007D00D
:0D06410006D005D004BA0205BB0002802DD2
:0D064E00C004C005C006C007C000C0017494
:0A065B0089C0E07414C0E07480C090
:0E066500E0120D04158115811581D001D00021
:08067300D007D006D005D00429
:05067B000CBC00010DA4
:0306800002050868
:0C068300AA82AB837C007D008C068D07F2
:0D068F00C3EE9409EF64809480502DEE249A
:05069C004FF88E588F9D
:0C06A100598A828B83C002C003C006C0CF
:0E06AD0007C000120991E582D000D007D006E8
:0C06BB00D003D002F60EBE00CB0F80C8AA
:0806C7007C007D008C028D0314
:0D06CF00C3EA9403EB64809480503CEA245D
:0A06DC004FF886068A0774032F24E6
:0A06E6004FF88607EEB50721EA245D
:0A06F0004FF886068A0774062F24CF
:0A06FA004FF88607EEB5070DEA245D
:090704004FF88606BE20028002B7
:02070D00D322F5
:07070F000ABA00BC0B80B91F
:080716007C007D008C028D03C4
:0D071E00C3EA9407EB64809480503DEA2408
:0A072B004FF886048A05ED04244F00
:0C073500F88605ECB50521EA244FF88693
:0C074100048A0574022D244FF88605EC94
:0C074D00B5050DEA244FF88604BC20021C
:0207590080021C
:02075B00D322A7
:09075D0074032AFAE43BFB80B8A6
:06076600E553B54F0EE55E
:07076C0057B54F097420B5D9
:040773004F028002AF
:02077700D3228B
:06077900E553B5510EE549
:07077F0055B551097420B5C6
:04078600510280029A
:02078A00D32278
:02078C00C32286
:0C078E00900009120683504674ADC0E0D4
:0C079A007413C0E07480C0E0120D041560
:0A07A6008115811581200017748B66
:0B07B000C0E07414C0E07480C0E012D0
:0A07BB000D041581158115818015CC
:0A07C50074A9C0E07414C0E0748051
:0B07CF00C0E0120D041581158115819A
:0207DA00D32228
:0207DC00C32236
:0807DE0030016174EDC0E0740C
:0C07E60013C0E07480C0E0120D04158107
:0A07F2001581158174C7C0E074146E
:0E07FC00C0E07480C0E0120D04158115811557
:04080A00817522FFD3
:0A080E00E52220E723C37488852249
:0B081800F063F08095F04016E522F53B
:0A082300583395E0F55990000912D2
:09082D000991AA82BA2002800C94
:0C083600120073E582FA24CFF52280CC7A
:0A08420074EDC0E07413C0E0748090
:0C084C00C0E0120D0415811581158174A7
:0A085800E6C0E07414C0E07480C034
:0E086200E0120D0415811581158175F003E576
:0A08700022C2D530E704D2D5F4040B
:08087A0084E5F030D502F4041E
:0E08820090135B93FB3395E0FCC2D575F00339
:09089000E52230E704B2D5F404BE
:060899008430D502F404D6
:0E089F0090135893FD3395E0FEC003C004C0D3
:0A08AD0005C0067440C0E07414C0DA
:0E08B700E07480C0E0120D04E58124F9F581A3
:0208C5007AFFB8
:0E08C700EA20E72DC374888AF063F08095F074
:0B08D5004021E522FB3395E0FCEAF532
:0A08E000583395E0F5598B828C83A4
:0E08EA00C002120991AB82D002BB2002800A2C
:0A08F800120073E58224CFFA80C5D8
:0A09020020001FE522FB3395E0FC06
:09090C00EAF55B3395E0F55C753A
:0C0915005D4F8B828C83C002120A22D03E
:0309210002801D34
:0A092400E522FB3395E0FCEAF55BE9
:0A092E003395E0F55C755D588B828F
:090938008C83C002120A22D002D5
:0C094100E522FB3395E0FC8B828C83C028
:0C094D0002120683D0025031200018E591
:0709590022F55B3395E0F588
:0A0960005C755D4F900009C00212A3
:06096A000A22D0028016F3
:08097000E522F55B3395E0F58B
:0A0978005C755D58900009C0021282
:040982000A22D00273
:070986008A2210000280012B
:01098D002247
:03098E00D2002272
:0A099100AA82AB83750A03E4F50B9C
:0A099B00855882855983C002C0030D
:0E09A50012131CAC82D003D002EBCA25E0CAAC
:0C09B30033CA25E0CA33EA2423FAEC2AF8
:0A09BF00F88602750A03E4F50B85C3
:0809C9005882855983C0021217
:0709D10012E68582588583C0
:0609D80059D002E558456C
:0709DE0059700474035AFB79
:0A09E5007401B55806E4B55902800C
:0109EF000205
:0209F00080097C
:0909F200740C5AFC0303543FFB92
:0A09FB007402B55806E4B5590280F5
:010A050002EE
:020A0600800866
:080A0800530230EAC4540FFB55
:070A1000BB010475825822AE
:070A1700BB020475824F22AF
:040A1E00758220229B
:0A0A2200AA82AB83750A03E4F50B0A
:0A0A2C00855B82855C83C002C00375
:0C0A360012131CAC82AD83750A03E4F5BA
:050A42000B855B8285BD
:0B0A47005C83C004C0051212E685822B
:0A0A52005B85835CD005D004D0035F
:0A0A5C00D0027458B55D05755E0107
:020A6600800806
:080A6800744FB55D03755E02D9
:0A0A7000E55B455C701E8A07EBCFC2
:0C0A7A0025E0CF33CF25E0CF33EF24235D
:0C0A86002CF886065306FCA606E55E4E22
:020A9200F6224A
:0A0A94007401B55B06E4B55C028056
:010A9E000255
:020A9F008022B3
:0E0AA1008A06EBCE25E0CE33CE25E0CE33EE36
:0C0AAF0024232CF886065306F3A606E567
:080ABB005E255E25E04EF622E7
:0A0AC3007402B55B06E4B55C028026
:010ACD000127
:010ACE002205
:0D0ACF00EBCA25E0CA33CA25E0CA33EA2489
:0B0ADC00232CF886025302CFA602E58F
:070AE7005EC454F04AF62240
:090AEE0075840FE4F558F55990E8
:0E0AF7000009120991AA82BA4F0575D8018034
:010B050018D7
:090B0600E4F558F55990000912BC
:0C0B0F000991AA82BA580575D80280032B
:030B1B0075D8008A
:0B0B1E0075E8007A017B008A048B055B
:0E0B2900C3EC9405ED64809480504AE5E82505
:0A0B3700E025E0F5E88C588D599098
:0E0B41000009C004C005120991AE82D005D093
:080B4F0004BE4F0405E88020FC
:0A0B57008C588D59900009C004C0AD
:0E0B610005120991AE82D005D004BE580605DB
:050B6F00E805E8800329
:030B740085E8E829
:070B77000CBC00AE0D80ABC9
:070B7E0075F8007A057B0009
:0E0B8500C3EA9409EB64809480504AE5F82599
:0A0B9300E025E0F5F88A588B599030
:0E0B9D000009C002C003120991AC82D003D03F
:080BAB0002BC4F0405F8802094
:0A0BB3008A588B59900009C002C057
:0E0BBD0003120991AC82D003D002BC58060589
:050BCB00F805F88003AD
:030BD00085F8F8AD
:070BD3000ABA00AE0B80AB73
:040BDA0075840022FC
:010BDE0022F4
:0C0BDF00AA8475840F758C677BB87C0BB2
:050BEB001BBBFF011C13
:040BF000EB4C70F763
:0E0BF400E58C30E7FB759701758A008A842234
:0E0C0200AA8475840F75E10475E20075E34065
:0E0C100043A401E5A575A5FF759000E5A67546
:0E0C1E00A6FF75A000E59C759CFF75C800E55B
:0E0C2C009D759DFF75D800E59E759EFF75E8CD
:0C0C3A0000E59F759FFF75F8008A84227A
:0E0C4600AA8475840075884053890F43892065
:0E0C5400438E10758DE8D28E75840075985011
:080C6200759100D2998A8422E9
:0313580003070B7D
:03135B0001070D7A
:05135E001B5B324A0098
:0E136300576974682065616368207265766F53
:0E1371006C7574696F6E2C207765206765744B
:0E137F00206F6E65207374657020636C6F7351
:0E138D0065723B2074686174277320686F7767
:0E139B002061206472696C6C20776F726B7336
:0413A9002E0A0D00FB
:0813AD001B5B31353B314800A8
:0E13B50049742069732063757272656E746CE2
:0E13C30079204F2773207475726E2E0A0D006C
:0E13D10049742069732063757272656E746CC6
:0E13DF007920582773207475726E2E0A0D0047
:0813ED001B5B31363B31480067
:0E13F500507265737320616E79206B657920EC
:0E140300746F20706C617920616761696E0002
:071411001B5B333B31480077
:0E1418002D2D2D2D2D7C2D2D2D2D2D7C2D2DB2
:061426002D2D2D0A0D0022
:0E142C0020202020207C20202020207C20203A
:06143A002020200A0D0035
:091440001B5B25643B2564480098
:051449005820205800AE
:0D144E001B5B25643B256448205858200096
:0D145B001B5B25643B256448582020580089
:05146800204F4F2000A1
:0D146D001B5B25643B2564484F20204F0089
:0C147A001B5B25643B256448204F4F009D
:03148600256300DB
:021489007C00E5
:0E148B0047616D6520686173206265656E20A3
:0E149900776F6E20627920706C617965722029
:0214A7005800EB
:0E14A90047616D6520686173206265656E2085
:0E14B700776F6E20627920706C61796572200B
:0214C5004F00D6
:0E14C70046726565206D6F76652E2043686F56
:0E14D5006F7365207375622D626F6172642EF5
:0314E3000A0D00EF
:0E14E600202020202020202020202020202038
:0E14F40020202020202020202020202020202A
:0515020020200A0D008D
:06003700E478FFF6D8FD9D
:080015007900E94400601B7A48
:05001D000090151278AF
:030022000075A2C4
:0A00250000E493F2A308B8000205FE
:08002F00A2D9F4DAF275A2FF78
:080C6A00E50A450B60467A0122
:070C7200E50A25E0F50AE5A3
:090C79000B334012F50BE58295E6
:0A0C82000AE583950B40030A80E6A3
:030C8C00C3E50BB2
:070C8F0013F50BE50A13F554
:010C96000A53
:0A0C9700C3E582950AF5F0E58395A8
:080CA1000B4005F58385F0828C
:070CA900C3E50B13F50BE599
:060CB0000A13F50ADAE167
:010CB600221B
:08003D007800E84400600A7934
:030045000075A2A1
:0600480000E4F309D8FCFE
:08004E007800E84400600C7921
:0B00560000900000E4F0A3D8FCD9FAF1
:050CB7007A10E4FBFCD3
:0E0CBC00E58225E0F582E58333F583EB33FB1B
:0A0CCA00EC33FCEB950AF5F0EC9515
:090CD4000B4006FCABF043820169
:030CDD00DADD223B
:060CE000C0098581091224
:050CE6000069D00922A5
:080CEB0085826E85836F85F0A0
:050CF30070E4F56BF553
:040CF8006CF56D85A5
:030CFC00087190EC
:050CFF000CE0020DC431
:060D0400C009858109E52C
:070D0A000924FBF571E4F57B
:040D11006BF56CF51D
:070D15006DE50924FBF886DF
:060D1C006E08866F0886D8
:050D220070900CE012CE
:050D27000DC4D00922FB
:070D2C00AA82C061C062C091
:060D3300637443C0E0748C
:060D39000DC0E0C05FC028
:040D3F00608A822222
:0A0D43001581158115810569E4B5DD
:040D4D006902056AC8
:010D5100227F
:0E0D5200AA8274302AFA24C6500A74072AFABC
:060D6000300203430220F3
:050D66008A82020D2C41
:0E0D6B00E582FAC4540FF582C002120D52D078
:090D790002740F5AF582020D52BA
:060D820085820AAB64AC9F
:040D880065AD66AE41
:040D8C0067AF687570
:020D90000B2036
:0E0D9200EF2FFFEE235401FA4207EB2BFBEC90
:0C0DA00033FCED33FDEE33FEC3EF950A8B
:0A0DAC004008EFC3950AFF4303015E
:060DB600D50BD98B648C03
:040DBC00658D668E4D
:040DC000678F6822AF
:070DC40085825F85836085D5
:030DCB006B6185D4
:030DCE006C6285CF
:040DD1006D63E4F575
:030DD50069F56A53
:050DD800AA6EAB6FAC38
:0C0DDD00708A828B838CF01212CAFD74A5
:090DE900012AF56EE43BF56F8C64
:080DF20070EDFA70030212AB70
:050DFA00BA2502800390
:030DFF000212A33A
:050E0200C203C204C29E
:040E070005C206C258
:040E0B0007C208C250
:040E0F0009C20A7595
:080E130072007573007DFFAE53
:040E1B006EAF6FAB9C
:010E1F007062
:0E0E20008E828F838BF01212CAFAA3AE82AFBD
:060E2E00838E6E8F6F8BB6
:0B0E340070BA25078A82120D2C8099ED
:050E3F008A04BC300034
:0D0E4400402A8A04EC24C64023BDFF13E5BC
:0B0E51007375F00AA4FCEA24D02CF515
:070E5C007370C1D20480BDD8
:0D0E6300ED75F00AA4FCEA24D02CFD80B04F
:0A0E7000BA2E07BDFFAA7D0080A680
:050E7A008A04BC6100C8
:0D0E7F00400E8A04EC248540075302DFD2A8
:030E8C00028002DF
:020E8F00C2029D
:050E9100BA20028055AB
:050E9600BA2B02804BA5
:050E9B00BA2D028041A8
:050EA000BA4202804B84
:050EA500BA4302805079
:060EAA00BA4403021055DA
:060EB000BA460302106BBC
:060EB600BA4903021055C9
:050EBC00BA4C02803475
:060EC100BA4F0302105CB1
:060EC700BA5003020FEC1B
:050ECD00BA5302804C45
:060ED200BA550302106195
:060ED800BA580302106687
:030EDE0002106F90
:050EE100D203020E2007
:050EE600D205020E2000
:050EEB00D206020E20FA
:050EF000D208020E20F3
:050EF500D209020E20ED
:080EFA0030080AE57114F888C4
:050F0200718602800F62
:0A0F0700E57124FEF88871860308E6
:050F11008604188B02AC
:080F16008A82120D2C021078F2
:0A0F1E00E57124FDF88871860308D0
:0A0F2800860408860618188B648CF6
:040F3200658E6685DD
:060F3600648285658385DD
:0C0F3C0066F0C0051212B2AB82AC83D08C
:060F480005BDFF028B0550
:0A0F4E0020032CC3EB95735026E539
:060F580073C39BF573ACAE
:010F5E00731F
:0C0F5F008C061C8C73EE6014758220C0A0
:0E0F6B0003C004C005120D2CD005D004D00325
:020F790080E412
:020F7B008C7375
:020F7D008D04E1
:070F7F00856482856583850E
:0C0F860066F01212CAFDFA602F8C051CE8
:0E0F9200C374808DF063F08095F050208A8249
:0C0FA000C003C004120D2CD004D003AD1F
:040FAC0064AE65AF1B
:060FB000660DBD00010EFC
:050FB6008D648E658FC3
:030FBB006680C18C
:060FBE002003030210787D
:090FC400C3EB95734003021078A1
:070FCD00E573C39BF573AC53
:010FD40073A9
:0B0FD5008C051C8C73ED70030210767D
:0C0FE000758220C004120D2CD00480E9A2
:0A0FEC00E57124FDF8887186050800
:0A0FF600860608860718188D648E21
:04100000658F66ADE5
:0410040066BD800045
:0610080040047A4380144D
:03100E00BD6000C2
:0610110040047A50800B40
:03101700BD4000D9
:06101A0040047A49800247
:021020007A58FC
:0E1022008A82C002120D2C75823A120D2C75B6
:0E1030008230120D2C758278120D2CD002BA6F
:04103E004902800BD8
:05104200BA5002800617
:06104700856582120D6BAD
:08104D00856482120D6B802303
:07105500D20775720A801C2E
:05105C00757208801709
:0510610075720A801207
:05106600757210800D01
:04106B00D20A80091C
:07106F008A82120D2C8002A1
:021076008C7379
:09107800300A5AE57124FCF888E5
:0C108100718604088605088606088607AC
:08108D001818188C648D658EA3
:04109500668F677586
:0310990064077574
:03109C0065157562
:02109F00668069
:0410A1008564758568
:0310A500657685E8
:0510A8006677740125CC
:0710AD0075FFE43576FCAD90
:0410B400778F648C42
:0410B800658D668557
:0610BC0075828576838534
:0A10C20077F01212CAFCFA70030264
:0210CC000DD83D
:0710CE008A82120D2C80CC78
:0710D500E5727003020DD863
:0410DC0075741130E6
:0710E000082BE57114F888EC
:0A10E70071E6FD3395E0FEFFFC8D7D
:0410F100648E658F15
:0410F500668C67207E
:0A10F900075EAC647D007E007F00FE
:051103008C648D658E77
:05110800668F67804CBA
:09110D0030091FE57124FCF8888B
:0C11160071860408860508860608860716
:081122001818188C648D658E0D
:05112A00668F67802ABA
:0A112F00E57124FEF88871860408BB
:0C113900860518ED3395E0FEFF8C648DF8
:04114500658E668FBE
:051149006720070CAC5B
:08114E0064AD657E007F008E98
:03115600668F673A
:0A115900300722E56730E71BC3E40E
:091163009564FCE49565FDE4953A
:07116C0066FEE49567FF8CAD
:04117300648D658E94
:05117700668F67800295
:02117C00C207A8
:06117E00D20BA8747C00F6
:0A118400756800857282C004C00087
:0B118E00120D82D000D004200B0DE5F4
:0A11990068C4FDE6FE4DF6188874E8
:0211A3008002C8
:0211A500A6683A
:0811A7000C8C03B20BE564455A
:0411AF0065456645E7
:0811B3006770CE88748C03E51F
:0611BB007370037573015F
:0A11C100200424200321EB04FCAD00
:0111CB0073B0
:0E11CC00C3EC9D5015758220C003C004C00501
:0C11DA00120D2CD005D004D0031D80E6BF
:0211E6008D7307
:0C11E80030070E75822DC003120D2CD0B4
:0511F4000315738023C8
:0C11F900EB602030050E75822BC0031245
:081205000D2CD0031573800FBE
:0C120D0030060C758220C003120D2CD09E
:0312190003157347
:05121C00200324AC7367
:0B1221008C051C8C73C3EB9D502B3020
:06122C0004047D30800285
:021232007D201D
:0E1234008D82C003C004120D2CD004D00380A4
:01124200DECD
:0A124300C3EB95735008E573C39BDD
:04124D00F5738007AE
:0512510075730080022E
:021256008C7397
:02125800A87478
:0A125A008B041BEC6026B20B200B86
:0B1264000A08E6C4540FFC8C688007E9
:07126F008604740F5CF568B2
:0C127600856882C003C000120D52D00039
:04128200D00380D441
:06128600200303020DD855
:02128C00AB7342
:09128E008B041BEC7003020DD867
:0C129700758220C003120D2CD00380EBE8
:0812A3008A82120D2C020DD805
:0712AB00856982856A832238
:0B1507003C4E4F20464C4F41543E002C
:0412B200AA82AB83DE
:0812B6001212CA6003A380F8C4
:0C12BE00C3E5829AF582E5839BF583224C
:0300080075817788
:0A000B00121354E5826003020003A3
:0E12CA0020F71430F6148883A88220F507E67A
:0612D800A88375830022CB
:0312DE00E280F7B4
:0312E100E4932271
:0212E400E02206
:0E12E600C2D5E58330E70DD2D5E4C39582F57D
:0612F40082E49583F583FE
:0A12FA00E50B30E70BE4C3950AF59D
:051304000AE4950BF561
:011309000BD8
:0E130A00120C6A30D50BE4C39582F582E4958F
:0313180083F583D7
:01131B0022AF
:0E131C00C2D5E58330E70DD2D5E4C39582F546
:06132A0082E49583F583C7
:0A133000E50B30E70DB2D5E4C395DC
:05133A000AF50AE4952C
:03133F000BF50BA0
:0E134200120CB730D50BE4C39582F582E4950A
:0313500083F5839F
:011353002277
:04135400758200227C
:00000001FF
