:03000000020008F3
:05006100750800C2005B
:0300660002000392
:0500030012007C80FEEC
:02006900AA8269
:05006B0010990280FB6A
:030070008A992248
:0500730010980280FB63
:0400780085998222C2
:0D007C0075FFDE75FFAD120B34120B57122D
:0A0089000B6E758400748CC0E074E7
:0C00930012C0E07480C0E0120C2C15813B
:0A009F00158115817491C0E0741200
:0E00A900C0E07480C0E0120C2C15811581158A
:0100B70081C7
:0300B800120155DD
:0A00BB0012091E406574DBC0E074FA
:0C00C50012C0E07480C0E0120C2C158109
:0A00D1001581158120001774E3C0AB
:0C00DB00E07412C0E07480C0E0120C2C35
:0800E7001581158115818015BA
:0A00EF0074FFC0E07412C0E07480DA
:0B00F900C0E0120C2C15811581158150
:08010400E5082490F582E434C3
:0A010C0000F583E0FABA2007C201F3
:050116001209718005D3
:05011B00D20112097180
:050120001201DB8096D6
:0A012500741BC0E07413C0E0748086
:0C012F00C0E0120C2C15811581158174A4
:0A013B0023C0E07413C0E07480C01C
:0E014500E0120C2C1581158115811200730239
:0201530000B8F2
:040155007A007B00B1
:0E015900C3EA940AEB6480948050407C007DE1
:0E016700008A06EBC454F0CEC4CE6ECE54F027
:0A017500CE6EFFEE2400FEEF340012
:01017F00FF80
:0E018000C3EC9409ED648094805012EC2EF5CF
:0E018E0082ED3FF5837420F00CBC00E60D807E
:01019C00E37F
:07019D000ABA00B80B80B59F
:0601A400C2001201DB7431
:0A01AA00DBC0E07412C0E07480C0F6
:0C01B400E0120C2C15811581158174E3FC
:0B01C000C0E07412C0E07480C0E012C8
:0B01CB000C2C158115811581D201124A
:0501D60009710201DBCC
:0A01DB00743FC0E07413C0E07480AC
:0E01E500C0E0120C2C1581158115817A007B6B
:0501F300008A048B05E9
:0E01F800C3EC940BED648094805051BC030561
:05020600BD00028006AE
:06020B00BC0722BD001F2C
:0A021100C004C0057446C0E0741379
:0E021B00C0E07480C0E0120C2C158115811516
:0702290081D005D004801D07
:0A023000C004C005745AC0E0741346
:0E023A00C0E07480C0E0120C2C1581158115F7
:0502480081D005D00487
:07024D000CBC00A70D80A40A
:040254007A007B00B1
:0E025800C3EA9409EB6480948050168A828B6E
:0E02660083C002C00312027AD003D0020ABA8B
:0502740000E20B80DF39
:010279002262
:0A027A00AA82AB83750F03E4F510B0
:0E0284008A828B83C002C00312120EAC82ADC0
:0E02920083D003D002EDCC25E0CC33FDEC246C
:0A02A00086F582ED3412F583E49335
:0A02AA00FCA3E493FD750F03E4F5D7
:0C02B400108A828B83C002C003C004C00B
:0E02C00005121244AE82E583CE25E0CE33FF58
:0A02CE00EE2480F582EF3412F58370
:0C02D800E493FEA3E493FFC006C007748B
:0A02E4006EC0E07413C0E07480C027
:0E02EE00E0120C2CE58124F9F581D003D0023A
:0A02FC00EA2490F582EB3400F5834C
:07030600E0FCBC01028003D2
:03030D0002040ADD
:0A031000C002C0037477C0E074134C
:0E031A00C0E07480C0E0120C2C158115811516
:0A03280081D003D002750F03E4F545
:0C033200108A828B83C002C00312120EDE
:0E033E00AC82AD83D003D002EDCC25E0CC33F1
:0A034C00FDEC2486F582ED3412F575
:0A03560083E493F509A3E493F50A8C
:0A036000750F03E4F5108A828B8309
:0E036A00C004C005121244A882A983D005D099
:0C03780004E9C825E0C833F9E82480F54A
:0C03840082E93412F583E493FEA3E493B5
:06039000FF0EBE00010F8C
:0B039600C004C005C000C001C009C0C9
:0A03A1000AC006C007747CC0E074B7
:0C03AB0013C0E07480C0E0120C2CE5814F
:0E03B70024F9F581D001D000D005D004EC244B
:0A03C50086F582ED3412F583E4930F
:0C03CF00FCA3E493FDE82480F582E934EF
:0C03DB0012F583E493FEA3E493FF740288
:0E03E7002EFEE43FFFC004C005C006C0077430
:0A03F50089C0E07413C0E07480C0FA
:0B03FF00E0120C2CE58124F9F58122AE
:0A040A00EA2490FCEB3400FD8C8224
:080414008D83E0600302051670
:0A041C00C002C0037496C0E0741320
:0E042600C0E07480C0E0120C2C158115811509
:0A04340081D003D002750F03E4F538
:0C043E00108A828B83C002C00312120ED1
:0E044A00AC82AD83D003D002EDCC25E0CC33E4
:0A045800FDEC2486F582ED3412F568
:0A04620083E493F509A3E493F50A7F
:0A046C00750F03E4F5108A828B83FC
:0E047600C004C005121244A882A983D005D08C
:0C04840004E9C825E0C833F9E82480F53D
:0C04900082E93412F583E493FEA3E493A8
:06049C00FF0EBE00010F7F
:0B04A200C004C005C000C001C009C0BC
:0A04AD000AC006C007749BC0E0748B
:0C04B70013C0E07480C0E0120C2CE58142
:0E04C30024F9F581D001D000D005D004EC243E
:0A04D10086F582ED3412F583E49302
:0C04DB00FCA3E493FDE82480F582E934E2
:0C04E70012F583E493FEA3E493FF74027B
:0E04F3002EFEE43FFFC004C005C006C0077423
:0A050100A8C0E07413C0E07480C0CD
:0B050B00E0120C2CE58124F9F58122A0
:0A0516007C007D00750F03E4F51072
:0D0520008A828B83C002C003C004C0051294
:0E052D00120EAE82AF83D005D004D003D002F0
:0C053B00EFCE25E0CE33FF750F03E4F592
:0C054700108A828B83C002C003C004C075
:0E05530005C006C007121244A882A983D00773
:0C056100D006D005D004D003D0028809D9
:09056D00E9C50925E0C50933F5D3
:0C0576000AEBC454F0CAC4CA6ACA54F0AC
:03058200CA6AFB47
:0C058500C3EC9409ED64809480400122D6
:0A059100750F03E4F5108C828D83D2
:0D059B00C002C003C004C005C006C00712A6
:0E05A800120EE5828583F0D007D006D005D074
:0C05B60004D003D00245F060030206569A
:0B05C200C002C003EE2486F582EF3477
:0B05CD0012F583E493FAA3E493FBE52E
:0605D800092480F582E514
:0805DE000A3412F583E493F5E1
:0705E6000BA3E493F50C7573
:0A05ED000F03E4F5108C828D83C02B
:0E05F70002C003C004C005C006C007121244B3
:0E060500A882A983D007D006D005D004D00368
:0A061300D002E8250BF8E9350CF9D8
:0E061D00C002C003C004C005C006C007C00272
:0B062B00C003C000C001746EC0E0748A
:0C06360013C0E07480C0E0120C2CE581C1
:0E06420024F9F581D007D006D005D004D003EE
:06065000D002D003D0022D
:0A065600EA2400F8EB3400F9EC2868
:0E066000F582ED39F583E0F83395E0F9C0023C
:0E066E00C003C004C005C006C007C000C00124
:0A067C0074B4C0E07413C0E0748091
:0E068600C0E0120C2CE58124FBF581D007D0DA
:0A06940006D005D004750F03E4F54D
:0C069E00108C828D83C004C005C006C013
:0E06AA000712120EA882A983D007D006D00531
:0E06B800D004D003D002B80205B90002802D94
:0D06C600C002C003C004C005C006C0077418
:0A06D300B7C0E07413C0E07480C0EB
:0E06DD00E0120C2C158115811581D007D00676
:0806EB00D005D004D003D002B9
:0506F3000CBC00010D2C
:0306F80002058573
:0806FB0085820F85831085F054
:09070300117D007E008D078E00BF
:0E070C00C3EF9403E86480948040030207A3C7
:09071A00EF250FF9E83510FAABE8
:0C0723001189828A838BF01211F2F974A4
:0C072F00032FFAE438FBEA250FFAEB3543
:0A073B0010FBAC118A828B838CF056
:0C0745001211F2FAE9B5024EEF250FFA8E
:0A075100E83510FBAC118A828B839F
:0E075B008CF01211F2FA74062FFBE438FCEB5E
:08076900250FFBEC3510FCA983
:0C077100118B828C8389F01211F2FBEADC
:0A077D00B5031BEF250FFAE8351055
:0C078700FBAC118A828B838CF01211F203
:06079300FABA2002800208
:02079900D32269
:05079B000FBF00010882
:0307A00002070C41
:0807A3007D007E008D028E0333
:0E07AB00C3EA9406EB64809480400302084485
:0907B900EA250FFCEB3510FDAE42
:0C07C200118C828D838EF01211F2FC74F9
:0C07CE00012AFDE43BFEED250FFDEE3599
:0A07DA0010FEAF118D828E838FF0A8
:0C07E4001211F2FDECB5054EEA250FFCE9
:0A07F000EB3510FDAE118C828D83F5
:0E07FA008EF01211F2FC74022AFDE43BFEEDBB
:08080800250FFDEE3510FEAFD7
:0C081000118D828E838FF01211F2FDEC2E
:0A081C00B5051BEA250FFCEB3510B3
:0C082600FDAE118C828D838EF01211F259
:06083200FCBC2002800264
:02083800D322C9
:0A083A0074032AFAE43BFB0207AB4B
:07084400850F8285108385FA
:09084B0011F01211F2FA740425F7
:070854000FFBE43510FCADC1
:0C085B00118B828C838DF01211F2FBEAED
:0A086700B5033A850F8285108385E2
:0908710011F01211F2FA740825CD
:07087A000FFBE43510FCAD9B
:0C088100118B828C838DF01211F2FBEAC7
:0A088D00B50314850F8285108385E2
:0B08970011F01211F2FABA20028002E8
:0208A200D3225F
:0A08A4007402250FFAE43510FBACD6
:0C08AE00118A828B838CF01211F2FA7414
:0908BA0004250FFBE43510FCAD30
:0C08C300118B828C838DF01211F2FBEA85
:0A08CF00B5034A7402250FFAE43560
:0A08D90010FBAC118A828B838CF0B7
:0B08E3001211F2FA7406250FFBE43539
:0A08EE0010FCAD118B828C838DF09D
:0C08F8001211F2FBEAB5031C7402250F7C
:0A090400FAE43510FBAC118A828B77
:0C090E00838CF01211F2FABA2002800271
:02091A00D322E6
:02091C00C322F4
:0C091E0090009075F0001206FB5046742B
:0A092A00B9C0E07413C0E07480C08F
:0C093400E0120C2C1581158115812000AB
:0A0940001774C1C0E07413C0E07426
:0E094A0080C0E0120C2C1581158115818015DE
:0A09580074DFC0E07413C0E0748087
:0B096200C0E0120C2C158115811581DE
:02096D00D32293
:02096F00C322A1
:0809710030015D741BC0E0744D
:0C09790013C0E07480C0E0120C2C15814B
:0A0985001581158174FDC0E07413A4
:0E098F00C0E07480C0E0120C2C15811581159B
:04099D00817508FF59
:0A09A100E50820E71FC374888508ED
:0B09AB00F063F08095F04012E5082496
:0A09B60090F582E43400F583E0FAC6
:0509C000BA2002800CCA
:0C09C500120073E582FA24CFF50880D000
:0A09D100741BC0E07413C0E07480D2
:0C09DB00C0E0120C2C15811581158174F0
:0A09E7001CC0E07414C0E07480C06E
:0E09F100E0120C2C15811581158175F003E5BF
:0A09FF0008C2D530E704D2D5F40495
:080A090084E5F030D502F4048D
:0E0A110025E0FB90128693CBA393FCC2D57513
:0B0A1F00F003E50830E704B2D5F40452
:060A2A008430D502F40443
:0E0A300025E0FD90128093CDA393FEC003C07D
:0A0A3E0004C005C006746EC0E07429
:0C0A480013C0E07480C0E0120C2CE581AB
:060A540024F9F5817AFF90
:0E0A5A00EA20E727C374888AF063F08095F0E5
:0A0A6800401BE508C454F02400FB15
:0C0A7200E43400FCEA2BF582E43CF58340
:070A7E00E0FBBB2002800A2F
:0A0A8500120073E58224CFFA80CB43
:0A0A8F0020002EE508FB3395E0C4BB
:0E0A990054F0CBC4CB6BCB54F0CB6BFCEB24F6
:0A0AA70000FBEC3400FCEAFD33957F
:0E0AB100E0FEED2BF582EE3CF583744FF080F5
:010ABF002C0A
:0C0AC000E508FB3395E0C454F0CBC4CB38
:0C0ACC006BCB54F0CB6BFCEB2400FBEC7C
:0C0AD8003400FCEAFD3395E0FEED2BF548
:080AE40082EE3CF5837458F02A
:0C0AEC00E508FB3395E0C454F0CBC4CB0C
:0C0AF8006BCB54F0CB6BFCEB2400FBEC50
:0C0B04003400FC7D008B828C838DF0C0DF
:0B0B1000021206FBD0025011E5082481
:090B1B0090F582E43400F583A298
:050B240000E433FBF0CA
:070B29008A081000028001A0
:010B300022A2
:030B3100D20022CD
:0C0B3400AA8475840F758C677BB87C0B5D
:050B40001BBBFF011CBE
:040B4500EB4C70F70E
:0E0B4900E58C30E7FB759701758A008A8422DF
:0E0B5700AA8475840F75E10475E20075E34011
:090B650043A40143A5408A842247
:0E0B6E00AA8475840075884053890F4389203E
:0E0B7C00438E10758DE8D28E758400759850EA
:080B8A00759100D2998A8422C2
:06128000030007000B0053
:06128600010007000D004D
:05128C001B5B324A006B
:0E129100576974682065616368207265766F26
:0E129F006C7574696F6E2C207765206765741E
:0E12AD00206F6E65207374657020636C6F7324
:0E12BB0065723B2074686174277320686F773A
:0E12C9002061206472696C6C20776F726B7309
:0412D7002E0A0D00CE
:0812DB001B5B31353B3148007B
:0E12E30049742069732063757272656E746CB5
:0E12F10079204F2773207475726E2E0A0D003F
:0E12FF0049742069732063757272656E746C99
:0E130D007920582773207475726E2E0A0D0019
:08131B001B5B31363B31480039
:0E132300507265737320616E79206B657920BE
:0E133100746F20706C617920616761696E00D5
:07133F001B5B333B3148004A
:0E1346002D2D2D2D2D7C2D2D2D2D2D7C2D2D85
:061354002D2D2D0A0D00F5
:0E135A0020202020207C20202020207C20200D
:061368002020200A0D0008
:09136E001B5B25643B256448006B
:05137700582020580081
:0D137C001B5B25643B256448205858200069
:0D1389001B5B25643B25644858202058005C
:05139600204F4F200074
:0D139B001B5B25643B2564484F20204F005C
:0C13A8001B5B25643B256448204F4F0070
:0313B400256300AE
:0213B7007C00B8
:0813B9001B5B32303B314800A0
:0E13C10047616D6520686173206265656E206E
:0E13CF00776F6E20627920706C6179657220F4
:0213DD004F00BF
:0E13DF0047616D6520686173206265656E2050
:0E13ED00776F6E20627920706C6179657220D6
:0213FB00580098
:0E13FD0046726565206D6F76652E2043686F21
:0E140B006F7365207375622D626F6172642EBF
:031419000A0D00B9
:0E141C00202020202020202020202020202002
:0E142A002020202020202020202020202020F4
:0514380020200A0D0058
:06003700E478FFF6D8FD9D
:080015007900E94400601B7A48
:05001D0000901448787A
:03002200A075A224
:0A00250000E493F2A308B8000205FE
:08002F00A2D9F4DAF275A2FF78
:080B9200E50F451060467A01F1
:070B9A00E50F25E0F50FE572
:090BA10010334012F510E58295B5
:0A0BAA000FE583951040030A80E672
:030BB400C3E51086
:070BB70013F510E50F13F523
:010BBE000F27
:0A0BBF00C3E582950FF5F0E583957C
:080BC900104005F58385F08260
:070BD100C3E51013F510E568
:060BD8000F13F50FDAE136
:010BDE0022F4
:08003D007800E84400600A7934
:030045000075A2A1
:0600480000E4F309D8FCFE
:08004E0078A0E84400600C7981
:0B00560001900000E4F0A3D8FCD9FAF0
:050BDF007A10E4FBFCAC
:0E0BE400E58225E0F582E58333F583EB33FBF4
:0A0BF200EC33FCEB950FF5F0EC95E9
:090BFC00104006FCABF04382013D
:030C0500DADD2213
:060C0800C00E85810E12F2
:050C0E000069D00E2278
:080C130085823185833285F0F2
:050C1B0033E4F52EF5A5
:040C20002FF53085F7
:030C24000D3490FC
:050C27000C08020CECBA
:060C2C00C00E85810EE5FB
:070C32000E24FBF534E4F58C
:040C39002EF52FF570
:070C3D0030E50E24FBF886F0
:060C44003108863208862B
:050C4A0033900C0812BC
:050C4F000CECD00E22A8
:070C5400AA82C024C025C0E4
:060C5B0026746BC0E0747A
:060C61000CC0E0C022C03F
:040C6700238A822238
:0A0C6B00158115811581052CE4B5F3
:040C75002C02052D1B
:010C79002258
:0E0C7A00AA8274302AFA24C6500A74072AFA95
:060C8800300203430220CC
:050C8E008A82020C54F3
:0E0C9300E582FAC4540FF582C002120C7AD02A
:090CA10002740F5AF582020C7A6C
:060CAA0085820FAB27ACB0
:040CB00028AD29AE94
:040CB4002AAF2B75C3
:020CB80010200A
:0E0CBA00EF2FFFEE235401FA4207EB2BFBEC69
:0C0CC80033FCED33FDEE33FEC3EF950F5F
:0A0CD4004008EFC3950FFF43030132
:060CDE00D510D98B278C14
:040CE400288D298EA0
:040CE8002A8F2B2202
:070CEC008582228583238528
:030CF3002E248527
:030CF6002F258522
:040CF9003026E4F5C8
:030CFD002CF52DA6
:050D0000AA31AB32AC8A
:0C0D0500338A828B838CF01211F2FD7493
:090D1100012AF531E43BF5328CB6
:080D1A0033EDFA70030211D35E
:050D2200BA2502800368
:030D27000211CBEB
:050D2A00C203C204C277
:040D2F0005C206C231
:040D330007C208C229
:040D370009C20A756E
:080D3B0035007536007DFFAEA6
:040D430031AF32ABEF
:010D47003378
:0E0D48008E828F838BF01211F2FAA3AE82AF6F
:060D5600838E318F328B09
:0B0D5C0033BA25078A82120C548099DC
:050D67008A04BC30000D
:0D0D6C00402A8A04EC24C64023BDFF13E595
:0B0D79003675F00AA4FCEA24D02CF52B
:070D84003670C1D20480BDEE
:0D0D8B00ED75F00AA4FCEA24D02CFD80B028
:0A0D9800BA2E07BDFFAA7D0080A659
:050DA2008A04BC6100A1
:0D0DA700400E8A04EC248540075302DFD281
:030DB400028002B8
:020DB700C20276
:050DB900BA2002805584
:050DBE00BA2B02804B7E
:050DC300BA2D02804181
:050DC800BA4202804B5D
:050DCD00BA4302805052
:060DD200BA4403020F7D8C
:060DD800BA4603020F936E
:060DDE00BA4903020F7D7B
:050DE400BA4C0280344E
:060DE900BA4F03020F8463
:060DEF00BA5003020F14CC
:050DF500BA5302804C1E
:060DFA00BA5503020F8947
:060E0000BA5803020F8E38
:030E0600020F9741
:050E0900D203020D48B8
:050E0E00D205020D48B1
:050E1300D206020D48AB
:050E1800D208020D48A4
:050E1D00D209020D489E
:080E220030080AE53414F888D9
:050E2A00348602800F78
:0A0E2F00E53424FEF8883486030839
:050E39008604188B0285
:080E3E008A82120C54020FA07D
:0A0E4600E53424FDF8883486030823
:0A0E5000860408860618188B278C0C
:040E5A00288E298530
:060E5E0027828528838530
:0C0E640029F0C0051211DAAB82AC83D07B
:060E700005BDFF028B0529
:0A0E760020032CC3EB95365026E54F
:060E800036C39BF536AC01
:010E86003635
:0C0E87008C061C8C36EE6014758220C0B6
:0E0E930003C004C005120C54D005D004D003D7
:020EA10080E4EB
:020EA3008C368B
:020EA5008D04BA
:070EA7008527828528838561
:0C0EAE0029F01211F2FDFA602F8C051CD7
:0E0EBA00C374808DF063F08095F050208A8222
:0C0EC800C003C004120C54D004D003ADD1
:040ED40027AE28AF6E
:060ED800290DBD00010E12
:050EDE008D278E288F16
:030EE3002980C1A2
:060EE600200303020FA02F
:090EEC00C3EB95364003020FA090
:070EF500E536C39BF536ACA6
:010EFC0036BF
:0B0EFD008C051C8C36ED7003020F9E6C
:0C0F0800758220C004120C54D00480E953
:0A0F1400E53424FDF8883486050852
:0A0F1E00860608860718188D278E36
:040F2800288F29AD38
:040F2C0029BD80005B
:060F300040047A43801426
:030F3600BD60009B
:060F390040047A50800B19
:030F3F00BD4000B2
:060F420040047A49800220
:020F48007A58D5
:0E0F4A008A82C002120C5475823A120C547541
:0E0F58008230120C54758278120C54D002BAFA
:040F66004902800BB1
:050F6A00BA50028006F0
:060F6F00852882120C939C
:080F7500852782120C938023F2
:070F7D00D20775350A801C44
:050F840075350880171F
:050F890075350A80121D
:050F8E00753510800D17
:040F9300D20A8009F5
:070F97008A82120C54800253
:020F9E008C368F
:090FA000300A5AE53424FCF888FB
:0C0FA900348604088605088606088607C2
:080FB5001818188C278D288EF6
:040FBD00298F2A75D9
:030FC100273D7554
:030FC40028147579
:020FC70029807F
:040FC90085273885BB
:030FCD002839853B
:050FD000293A7401251F
:070FD50038FFE43539FCADE3
:040FDC003A8F278C95
:040FE000288D2985AA
:060FE40038828539838587
:0A0FEA003AF01211F2FCFA70030253
:020FF4000D00EE
:070FF6008A82120C5480CC2A
:070FFD00E5357003020D0051
:0410040075371730F5
:07100800082BE53414F88801
:0A100F0034E6FD3395E0FEFFFC8D92
:04101900278E288F67
:04101D00298C2A20D0
:0A102100075EAC277D007E007F0013
:05102B008C278D288ECA
:05103000298F2A804C0D
:0910350030091FE53424FCF888A1
:0C103E003486040886050886060886072C
:08104A001818188C278D288E60
:05105200298F2A802A0D
:0A105700E53424FEF888348604080E
:0C106100860518ED3395E0FEFF8C278D0E
:04106D00288E298F11
:051071002A20070CAC71
:0810760027AD287E007F008EEB
:03107E00298F2A8D
:0A108100300722E52A30E71BC3E424
:09108B009527FCE49528FDE4958D
:0710940029FEE4952AFF8C00
:04109B00278D288EE7
:05109F00298F2A8002E8
:0210A400C20781
:0610A600D20BA8377C000C
:0A10AC00752B00853582C004C000DA
:0B10B600120CAAD000D004200B0DE5A6
:0A10C1002BC4FDE6FE4DF61888373B
:0210CB008002A1
:0210CD00A62B50
:0810CF000C8C03B20BE5274570
:0410D700284529453A
:0810DB002A70CE88378C03E572
:0610E300367003753601B2
:0A10E900200424200321EB04FCADD9
:0110F30036C6
:0E10F400C3EC9D5015758220C003C004C005DA
:0C110200120C54D005D004D0031D80E670
:02110E008D361C
:0C11100030070E75822DC003120C54D065
:05111C000315368023DD
:0C112100EB602030050E75822BC003121D
:08112D000C54D0031536800FAD
:0C11350030060C758220C003120C54D050
:031141000315365D
:05114400200324AC367D
:0B1149008C051C8C36C3EB9D502B3036
:0611540004047D3080025E
:02115A007D20F6
:0E115C008D82C003C004120C54D004D0038056
:01116A00DEA6
:0A116B00C3EB95365008E536C39B30
:04117500F5368007C4
:05117900753600800244
:02117E008C36AD
:02118000A8378E
:0A1182008B041BEC6026B20B200B5F
:0B118C000A08E6C4540FFC8C2B8007FF
:071197008604740F5CF52BC8
:0C119E00852B82C003C000120C7AD00028
:0411AA00D00380D41A
:0611AE00200303020D0006
:0211B400AB3658
:0911B6008B041BEC7003020D0018
:0C11BF00758220C003120C54D00380EB9A
:0811CB008A82120C54020D008F
:0711D300852C82852D83228B
:0B143D003C4E4F20464C4F41543E00F7
:0411DA00AA82AB83B7
:0811DE001211F26003A380F876
:0C11E600C3E5829AF582E5839BF5832225
:0300080075813AC5
:0A000B0012127CE58260030200037C
:0E11F20020F71430F6148883A88220F507E653
:06120000A88375830022A3
:03120600E280F78C
:03120900E4932249
:02120C00E022DE
:0E120E00C2D5E58330E70DD2D5E4C39582F555
:06121C0082E49583F583D6
:0A122200E51030E70BE4C3950FF56B
:05122C000FE49510F530
:0112310010AC
:0E123200120B9230D50BE4C39582F582E49541
:0312400083F583B0
:011243002288
:0E124400C2D5E58330E70DD2D5E4C39582F51F
:0612520082E49583F583A0
:0A125800E51030E70DB2D5E4C395B0
:051262000FF50FE495FB
:0312670010F5106F
:0E126A00120BDF30D50BE4C39582F582E495BC
:0312780083F58378
:01127B002250
:04127C007582002255
:00000001FF
