:03000000020008F3
:07006100750800750900C2DB
:0300680000C201D2
:03006B000200038D
:0500030012008180FEE7
:02006E00AA8264
:0500700010990280FB65
:030075008A992243
:0500780010980280FB5E
:04007D0085998222BD
:0D00810075FFDE75FFAD12067D1206A012A0
:0A008E0006B775840074D5C0E07455
:0C0098000DC0E07480C0E01207751581F7
:0A00A4001581158174DAC0E0740DB7
:0E00AE00C0E07480C0E0120775158115811541
:0100BC0081C2
:0800BD001201097424C0E07473
:0C00C5000EC0E07480C0E01207751581C9
:0A00D10015811581200117742CC061
:0C00DB00E0740EC0E07480C0E0120775F5
:0800E7001581158115818015BA
:0A00EF007438C0E0740EC0E07480A5
:0B00F900C0E01207751581158115810C
:0501040012007880B438
:040109007A007B00FD
:0E010D00C3EA940AEB6480948050407C007D2D
:0E011B00008A06EBC454F0CEC4CE6ECE54F073
:0A012900CE6EFFEE2400FEEF34005E
:01013300FFCC
:0E013400C3EC9409ED648094805012EC2EF51B
:0E01420082ED3FF5837420F00CBC00E60D80CA
:01015000E3CB
:070151000ABA00B80B80B5EB
:0301580002015B46
:0A015B007444C0E0740EC0E074802C
:0E016500C0E01207751581158115817A007BA7
:05017300008A048B0569
:0E017800C3EC940BED648094805051BC0305E1
:05018600BD000280062F
:06018B00BC0722BD001FAD
:0A019100C004C005744BC0E0740EFA
:0E019B00C0E07480C0E0120775158115811553
:0701A90081D005D004801D88
:0A01B000C004C005745FC0E0740EC7
:0E01BA00C0E07480C0E0120775158115811534
:0501C80081D005D00408
:0701CD000CBC00A70D80A48B
:0401D4007A007B0032
:0E01D800C3EA9409EB6480948050168A828BEF
:0E01E60083C002C0031201FAD003D0020ABA8D
:0501F40000E20B80DFBA
:0101F90022E3
:0A01FA00AA82AB83751003E4F5112F
:0E0204008A828B83C002C003120D57AC82ADFC
:0E02120083D003D002EDCC25E0CC33FDEC24EC
:0A022000CFF582ED340DF583E49371
:0A022A00FCA3E493FD751003E4F556
:0C023400118A828B83C002C003C004C08A
:0E02400005120D8DAE82E583CE25E0CE33FF94
:0A024E00EE24C9F582EF340DF583AC
:0C025800E493FEA3E493FFC006C007740B
:0A02640073C0E0740EC0E07480C0A7
:0E026E00E0120775E58124F9F581D003D00276
:0A027C00EA2490F582EB3400F583CC
:07028600E0FCBC58028003FC
:03028D0002038ADF
:0A029000C002C003747CC0E0740ECD
:0E029A00C0E07480C0E0120775158115811553
:0A02A80081D003D002751003E4F5C5
:0C02B200118A828B83C002C003120D571A
:0E02BE00AC82AD83D003D002EDCC25E0CC3372
:0A02CC00FDEC24CFF582ED340DF5B2
:0A02D60083E493F50AA3E493F50B0B
:0A02E000751003E4F5118A828B8388
:0E02EA00C004C005120D8DA882A983D005D0D6
:0C02F80004E9C825E0C833F9E824C9F582
:0C03040082E9340DF583E493FEA3E4933A
:06031000FF0EBE00010F0C
:0B031600C004C005C000C001C00AC048
:0A0321000BC006C0077481C0E07431
:0C032B000EC0E07480C0E0120775E58190
:0E03370024F9F581D001D000D005D004EC24CB
:0A034500CFF582ED340DF583E4934B
:0C034F00FCA3E493FDE824C9F582E93426
:0C035B000DF583E493FEA3E493FF74020D
:0E0367002EFEE43FFFC004C005C006C00774B0
:0A0375008EC0E0740EC0E07480C07A
:0B037F00E0120775E58124F9F58122EA
:0A038A00EA2490F582EB3400F583BD
:07039400E0FCBC4F028003F6
:03039B00020498C1
:0A039E00C002C003749BC0E0740E9F
:0E03A800C0E07480C0E0120775158115811544
:0A03B60081D003D002751003E4F5B6
:0C03C000118A828B83C002C003120D570B
:0E03CC00AC82AD83D003D002EDCC25E0CC3363
:0A03DA00FDEC24CFF582ED340DF5A3
:0A03E40083E493F50AA3E493F50BFC
:0A03EE00751003E4F5118A828B8379
:0E03F800C004C005120D8DA882A983D005D0C7
:0C04060004E9C825E0C833F9E824C9F572
:0C04120082E9340DF583E493FEA3E4932B
:06041E00FF0EBE00010FFD
:0B042400C004C005C000C001C00AC039
:0A042F000BC006C00774A0C0E07403
:0C0439000EC0E07480C0E0120775E58181
:0E04450024F9F581D001D000D005D004EC24BC
:0A045300CFF582ED340DF583E4933C
:0C045D00FCA3E493FDE824C9F582E93417
:0C0469000DF583E493FEA3E493FF7402FE
:0E0475002EFEE43FFFC004C005C006C00774A1
:0A048300ADC0E0740EC0E07480C04C
:0B048D00E0120775E58124F9F58122DB
:0A0498007C007D00751003E4F511EF
:0D04A2008A828B83C002C003C004C0051213
:0E04AF000D57AE82AF83D005D004D003D0022B
:0C04BD00EFCE25E0CE33FF751003E4F510
:0C04C900118A828B83C002C003C004C0F3
:0E04D50005C006C007120D8DA882A983D007AE
:0C04E300D006D005D004D003D002880A57
:0904EF00E9C50A25E0C50A33F550
:0C04F8000BEBC454F0CAC4CA6ACA54F02A
:03050400CA6AFBC5
:0C050700C3EC9409ED6480948040012254
:0A051300751003E4F5118C828D834E
:0D051D00C002C003C004C005C006C0071224
:0E052A000D57E5828583F0D007D006D005D0AE
:0C05380004D003D00245F060030205D897
:0B054400C002C003EE24CFF582EF34AC
:0B054F000DF583E493FAA3E493FBE5B1
:06055A000A24C9F582E548
:080560000B340DF583E493F563
:070568000CA3E493F50D75EF
:0A056F001003E4F5118C828D83C0A7
:0E05790002C003C004C005C006C007120D8DED
:0E058700A882A983D007D006D005D004D003E7
:0A059500D002E8250CF8E9350DF955
:0E059F00C002C003C004C005C006C007C002F1
:0B05AD00C003C000C0017473C0E07404
:0C05B8000EC0E07480C0E0120775E58101
:0E05C40024F9F581D007D006D005D004D0036D
:0605D200D002D003D002AC
:0A05D800EA2400F8EB3400F9EC28E7
:0E05E200F582ED39F583E0F83395E0F9C002BB
:0E05F000C003C004C005C006C007C000C001A3
:0A05FE0074B9C0E0740EC0E0748010
:0E060800C0E0120775E58124FBF581D007D014
:0A06160006D005D004751003E4F5CA
:0C062000118C828D83C004C005C006C090
:0E062C0007120D57A882A983D007D006D0056B
:0E063A00D004D003D002B80205B90002802D12
:0D064800C002C003C004C005C006C0077496
:0A065500BCC0E0740EC0E07480C069
:0E065F00E0120775158115811581D007D006B0
:08066D00D005D004D003D00237
:050675000CBC00010DAA
:03067A000205076F
:0C067D00AA8475840F758C677BB87C0B19
:050689001BBBFF011C7A
:04068E00EB4C70F7CA
:0E069200E58C30E7FB759701758A008A84229B
:0E06A000AA8475840F75E10475E20075E340CD
:0906AE0043A40143A5408A842203
:0E06B700AA8475840075884053890F438920FA
:0E06C500438E10758DE8D28E758400759850A6
:0806D300759100D2998A84227E
:060DC900030007000B000F
:060DCF00010007000D0009
:050DD5001B5B324A0027
:0E0DDA00576974682065616368207265766FE2
:0E0DE8006C7574696F6E2C20776520676574DA
:0E0DF600206F6E65207374657020636C6F73E0
:0E0E040065723B2074686174277320686F77F5
:0E0E12002061206472696C6C20776F726B73C4
:040E20002E0A0D0089
:080E24001B5B31353B31480036
:0C0E2C004F2773207475726E2E0A0D00A3
:0C0E3800582773207475726E2E0A0D008E
:070E44001B5B333B3148004A
:0E0E4B002D2D2D2D2D7C2D2D2D2D2D7C2D2D85
:060E59002D2D2D0A0D00F5
:0E0E5F0020202020207C20202020207C20200D
:060E6D002020200A0D0008
:090E73001B5B25643B256448006B
:050E7C00582020580081
:0D0E81001B5B25643B256448205858200069
:0D0E8E001B5B25643B25644858202058005C
:050E9B00204F4F200074
:0D0EA0001B5B25643B2564484F20204F005C
:0C0EAD001B5B25643B256448204F4F0070
:030EB900256300AE
:020EBC007C00B8
:06003700E478FFF6D8FD9D
:080015007900E94400601B7A48
:05001D0000900EC978FF
:03002200A075A224
:0A00250000E493F2A308B8000205FE
:08002F00A2D9F4DAF275A2FF78
:0806DB00E510451160467A01AB
:0706E300E51025E0F510E52C
:0906EA0011334012F511E582956F
:0A06F30010E583951140030A80E62C
:0306FD00C3E51141
:0707000013F511E51013F5DC
:0107070010E1
:0A070800C3E5829510F5F0E5839536
:08071200114005F58385F0821A
:07071A00C3E51113F511E521
:060721001013F510DAE1EF
:0107270022AF
:08003D007800E84400600A7934
:030045000075A2A1
:0600480000E4F309D8FCFE
:08004E0078A0E84400600C7981
:0B00560001900000E4F0A3D8FCD9FAF0
:050728007A10E4FBFC67
:0E072D00E58225E0F582E58333F583EB33FBAF
:0A073B00EC33FCEB9510F5F0EC95A3
:09074500114006FCABF0438201F7
:03074E00DADD22CF
:06075100C00F85810F12AC
:05075700006ED00F222E
:08075C0085823185833285F0AE
:0507640033E4F52EF561
:040769002FF53085B3
:03076D000E3490B7
:050770000751020835ED
:06077500C00F85810FE5B5
:07077B000F24FBF534E4F547
:040782002EF52FF52C
:0707860030E50F24FBF886AB
:06078D00310886320886E7
:05079300339007511234
:050798000835D00F221E
:07079D00AA82C024C025C0A0
:0607A4002674B4C0E074ED
:0607AA0007C0E0C022C000
:0407B000238A8222F4
:0A07B400158115811581052CE4B5AF
:0407BE002C02052DD7
:0107C2002214
:0E07C300AA8274302AFA24C6500A74072AFA51
:0607D10030020343022088
:0507D7008A8202079D6B
:0E07DC00E582FAC4540FF582C0021207C3D0A2
:0907EA0002740F5AF5820207C3E4
:0607F300858210AB27AC6B
:0407F90028AD29AE50
:0407FD002AAF2B757F
:020801001120C4
:0E080300EF2FFFEE235401FA4207EB2BFBEC24
:0C08110033FCED33FDEE33FEC3EF951019
:0A081D004008EFC39510FF430301EC
:06082700D511D98B278CCE
:04082D00288D298E5B
:040831002A8F2B22BD
:0708350085822285832385E3
:03083C002E2485E2
:03083F002F2585DD
:040842003026E4F583
:030846002CF52D61
:05084900AA31AB32AC46
:0C084E00338A828B838CF0120D3BFD740A
:09085A00012AF531E43BF5328C72
:0808630033EDFA7003020D1CD5
:05086B00BA2502800324
:03087000020D1462
:05087300C203C204C233
:0408780005C206C2ED
:04087C0007C208C2E5
:0408800009C20A752A
:0808840035007536007DFFAE62
:04088C0031AF32ABAB
:010890003334
:0E0891008E828F838BF0120D3BFAA3AE82AFE6
:06089F00838E318F328BC5
:0B08A50033BA25078A8212079D809954
:0508B0008A04BC3000C9
:0D08B500402A8A04EC24C64023BDFF13E551
:0B08C2003675F00AA4FCEA24D02CF5E7
:0708CD003670C1D20480BDAA
:0D08D400ED75F00AA4FCEA24D02CFD80B0E4
:0A08E100BA2E07BDFFAA7D0080A615
:0508EB008A04BC61005D
:0D08F000400E8A04EC248540075302DFD23D
:0308FD0002800274
:02090000C20231
:05090200BA200280553F
:05090700BA2B02804B39
:05090C00BA2D0280413C
:05091100BA4202804B18
:05091600BA430280500D
:06091B00BA4403020AC603
:06092100BA4603020ADCE5
:06092700BA4903020AC6F2
:05092D00BA4C02803409
:06093200BA4F03020ACDDA
:06093800BA5003020A5D43
:05093E00BA5302804CD9
:06094300BA5503020AD2BE
:06094900BA5803020AD7B0
:03094F00020AE0B9
:05095200D20302089130
:05095700D20502089129
:05095C00D20602089123
:05096100D2080208911C
:05096600D20902089116
:08096B0030080AE53414F88895
:05097300348602800F34
:0A097800E53424FEF88834860308F5
:050982008604188B0241
:080987008A8212079D020AE9B1
:0A098F00E53424FDF88834860308DF
:0A099900860408860618188B278CC8
:0409A300288E2985EC
:0609A700278285288385EC
:0C09AD0029F0C005120D23AB82AC83D0F2
:0609B90005BDFF028B05E5
:0A09BF0020032CC3EB95365026E50B
:0609C90036C39BF536ACBD
:0109CF0036F1
:0C09D0008C061C8C36EE6014758220C072
:0E09DC0003C004C00512079DD005D004D0034F
:0209EA0080E4A7
:0209EC008C3647
:0209EE008D0476
:0709F000852782852883851D
:0C09F70029F0120D3BFDFA602F8C051C4E
:0E0A0300C374808DF063F08095F050208A82DD
:0C0A1100C003C00412079DD004D003AD48
:040A1D0027AE28AF29
:060A2100290DBD00010ECD
:050A27008D278E288FD1
:030A2C002980C15D
:060A2F00200303020AE9A6
:090A3500C3EB95364003020AE907
:070A3E00E536C39BF536AC61
:010A4500367A
:0B0A46008C051C8C36ED7003020AE7E3
:0C0A5100758220C00412079DD00480E9CB
:0A0A5D00E53424FDF888348605080E
:0A0A6700860608860718188D278EF2
:040A7100288F29ADF4
:040A750029BD800017
:060A790040047A438014E2
:030A7F00BD600057
:060A820040047A50800BD5
:030A8800BD40006E
:060A8B0040047A498002DC
:020A91007A5891
:0E0A93008A82C00212079D75823A12079D7575
:0E0AA100823012079D75827812079DD002BA2E
:040AAF004902800B6D
:050AB300BA50028006AC
:060AB8008528821207DC14
:080ABE008527821207DC80236A
:070AC600D20775350A801C00
:050ACD007535088017DB
:050AD20075350A8012D9
:050AD700753510800DD3
:040ADC00D20A8009B1
:070AE0008A8212079D8002CB
:020AE7008C364B
:090AE900300A5AE53424FCF888B7
:0C0AF2003486040886050886060886077E
:080AFE001818188C278D288EB2
:040B0600298F2A7594
:030B0A0027BE758E
:030B0D00280E753A
:020B100029803A
:040B12008527388576
:030B1600283985F6
:050B1900293A740125DA
:070B1E0038FFE43539FCAD9E
:040B25003A8F278C50
:040B2900288D298565
:060B2D0038828539838542
:0A0B33003AF0120D3BFCFA700302C9
:020B3D00084965
:070B3F008A8212079D80CCA1
:070B4600E5357003020849C8
:040B4D0075371730B1
:070B5100082BE53414F888BD
:0A0B580034E6FD3395E0FEFFFC8D4E
:040B6200278E288F23
:040B6600298C2A208C
:0A0B6A00075EAC277D007E007F00CF
:050B74008C278D288E86
:050B7900298F2A804CC9
:090B7E0030091FE53424FCF8885D
:0C0B8700348604088605088606088607E8
:080B93001818188C278D288E1C
:050B9B00298F2A802AC9
:0A0BA000E53424FEF88834860408CA
:0C0BAA00860518ED3395E0FEFF8C278DCA
:040BB600288E298FCD
:050BBA002A20070CAC2D
:080BBF0027AD287E007F008EA7
:030BC700298F2A49
:0A0BCA00300722E52A30E71BC3E4E0
:090BD4009527FCE49528FDE49549
:070BDD0029FEE4952AFF8CBC
:040BE400278D288EA3
:050BE800298F2A8002A4
:020BED00C2073D
:060BEF00D20BA8377C00C8
:0A0BF500752B00853582C004C00096
:0B0BFF001207F3D000D004200B0DE51E
:0A0C0A002BC4FDE6FE4DF6188837F6
:020C140080025C
:020C1600A62B0B
:080C18000C8C03B20BE527452B
:040C200028452945F5
:080C24002A70CE88378C03E52D
:060C2C003670037536016D
:0A0C3200200424200321EB04FCAD94
:010C3C003681
:0E0C3D00C3EC9D5015758220C003C004C00595
:0C0C4B0012079DD005D004D0031D80E6E8
:020C57008D36D8
:0C0C590030070E75822DC00312079DD0DD
:050C6500031536802399
:0C0C6A00EB602030050E75822BC00312D9
:080C7600079DD0031536800F25
:0C0C7E0030060C758220C00312079DD0C8
:030C8A0003153619
:050C8D00200324AC3639
:0B0C92008C051C8C36C3EB9D502B30F2
:060C9D0004047D3080021A
:020CA3007D20B2
:0E0CA5008D82C003C00412079DD004D00380CE
:010CB300DE62
:0A0CB400C3EB95365008E536C39BEC
:040CBE00F536800780
:050CC200753600800200
:020CC7008C3669
:020CC900A8374A
:0A0CCB008B041BEC6026B20B200B1B
:0B0CD5000A08E6C4540FFC8C2B8007BB
:070CE0008604740F5CF52B84
:0C0CE700852B82C003C0001207C3D000A0
:040CF300D00380D4D6
:060CF7002003030208497E
:020CFD00AB3614
:090CFF008B041BEC700302084990
:0C0D0800758220C00312079DD00380EB11
:080D14008A8212079D020849C2
:070D1C00852C82852D832246
:0B0EBE003C4E4F20464C4F41543E007C
:040D2300AA82AB8372
:080D2700120D3B6003A380F8EC
:0C0D2F00C3E5829AF582E5839BF58322E0
:0300080075813AC5
:0A000B00120DC5E582600302000338
:0E0D3B0020F71430F6148883A88220F507E60E
:060D4900A883758300225F
:030D4F00E280F748
:030D5200E4932205
:020D5500E0229A
:0E0D5700C2D5E58330E70DD2D5E4C39582F511
:060D650082E49583F58392
:0A0D6B00E51130E70BE4C39510F525
:050D750010E49511F5EA
:010D7A001167
:0E0D7B001206DB30D50BE4C39582F582E495B9
:030D890083F5836C
:010D8C002244
:0E0D8D00C2D5E58330E70DD2D5E4C39582F5DB
:060D9B0082E49583F5835C
:0A0DA100E51130E70DB2D5E4C3956B
:050DAB0010F510E495B5
:030DB00011F51129
:0E0DB30012072830D50BE4C39582F582E49533
:030DC10083F58334
:010DC400220C
:040DC5007582002211
:00000001FF
